{
  "contractName": "NoahNFT",
  "abi": [
    {
      "inputs": [
        {
          "internalType": "string",
          "name": "initName",
          "type": "string"
        },
        {
          "internalType": "string",
          "name": "initSymbol",
          "type": "string"
        }
      ],
      "stateMutability": "nonpayable",
      "type": "constructor"
    },
    {
      "anonymous": false,
      "inputs": [
        {
          "indexed": true,
          "internalType": "address",
          "name": "owner",
          "type": "address"
        },
        {
          "indexed": true,
          "internalType": "address",
          "name": "approved",
          "type": "address"
        },
        {
          "indexed": true,
          "internalType": "uint256",
          "name": "tokenId",
          "type": "uint256"
        }
      ],
      "name": "Approval",
      "type": "event"
    },
    {
      "anonymous": false,
      "inputs": [
        {
          "indexed": true,
          "internalType": "address",
          "name": "owner",
          "type": "address"
        },
        {
          "indexed": true,
          "internalType": "address",
          "name": "operator",
          "type": "address"
        },
        {
          "indexed": false,
          "internalType": "bool",
          "name": "approved",
          "type": "bool"
        }
      ],
      "name": "ApprovalForAll",
      "type": "event"
    },
    {
      "anonymous": false,
      "inputs": [
        {
          "indexed": true,
          "internalType": "address",
          "name": "from",
          "type": "address"
        },
        {
          "indexed": true,
          "internalType": "address",
          "name": "to",
          "type": "address"
        },
        {
          "indexed": true,
          "internalType": "uint256",
          "name": "tokenId",
          "type": "uint256"
        }
      ],
      "name": "Transfer",
      "type": "event"
    },
    {
      "inputs": [
        {
          "internalType": "address",
          "name": "",
          "type": "address"
        }
      ],
      "name": "balances",
      "outputs": [
        {
          "internalType": "uint256",
          "name": "",
          "type": "uint256"
        }
      ],
      "stateMutability": "view",
      "type": "function",
      "constant": true
    },
    {
      "inputs": [],
      "name": "currentTokenId",
      "outputs": [
        {
          "internalType": "uint256",
          "name": "",
          "type": "uint256"
        }
      ],
      "stateMutability": "view",
      "type": "function",
      "constant": true
    },
    {
      "inputs": [
        {
          "internalType": "address",
          "name": "",
          "type": "address"
        },
        {
          "internalType": "address",
          "name": "",
          "type": "address"
        }
      ],
      "name": "operatorApprovals",
      "outputs": [
        {
          "internalType": "bool",
          "name": "",
          "type": "bool"
        }
      ],
      "stateMutability": "view",
      "type": "function",
      "constant": true
    },
    {
      "inputs": [],
      "name": "owner",
      "outputs": [
        {
          "internalType": "address",
          "name": "",
          "type": "address"
        }
      ],
      "stateMutability": "view",
      "type": "function",
      "constant": true
    },
    {
      "inputs": [
        {
          "internalType": "uint256",
          "name": "",
          "type": "uint256"
        }
      ],
      "name": "owners",
      "outputs": [
        {
          "internalType": "address",
          "name": "",
          "type": "address"
        }
      ],
      "stateMutability": "view",
      "type": "function",
      "constant": true
    },
    {
      "inputs": [
        {
          "internalType": "uint256",
          "name": "",
          "type": "uint256"
        }
      ],
      "name": "tokenApprovals",
      "outputs": [
        {
          "internalType": "address",
          "name": "",
          "type": "address"
        }
      ],
      "stateMutability": "view",
      "type": "function",
      "constant": true
    },
    {
      "inputs": [
        {
          "internalType": "bytes4",
          "name": "interfaceId",
          "type": "bytes4"
        }
      ],
      "name": "supportsInterface",
      "outputs": [
        {
          "internalType": "bool",
          "name": "",
          "type": "bool"
        }
      ],
      "stateMutability": "pure",
      "type": "function",
      "constant": true
    },
    {
      "inputs": [],
      "name": "name",
      "outputs": [
        {
          "internalType": "string",
          "name": "",
          "type": "string"
        }
      ],
      "stateMutability": "view",
      "type": "function",
      "constant": true
    },
    {
      "inputs": [],
      "name": "symbol",
      "outputs": [
        {
          "internalType": "string",
          "name": "",
          "type": "string"
        }
      ],
      "stateMutability": "view",
      "type": "function",
      "constant": true
    },
    {
      "inputs": [
        {
          "internalType": "uint256",
          "name": "tokenId",
          "type": "uint256"
        }
      ],
      "name": "tokenURI",
      "outputs": [
        {
          "internalType": "string",
          "name": "",
          "type": "string"
        }
      ],
      "stateMutability": "view",
      "type": "function",
      "constant": true
    },
    {
      "inputs": [
        {
          "internalType": "address",
          "name": "_owner",
          "type": "address"
        }
      ],
      "name": "balanceOf",
      "outputs": [
        {
          "internalType": "uint256",
          "name": "",
          "type": "uint256"
        }
      ],
      "stateMutability": "view",
      "type": "function",
      "constant": true
    },
    {
      "inputs": [
        {
          "internalType": "uint256",
          "name": "tokenId",
          "type": "uint256"
        }
      ],
      "name": "ownerOf",
      "outputs": [
        {
          "internalType": "address",
          "name": "",
          "type": "address"
        }
      ],
      "stateMutability": "view",
      "type": "function",
      "constant": true
    },
    {
      "inputs": [
        {
          "internalType": "address",
          "name": "to",
          "type": "address"
        },
        {
          "internalType": "uint256",
          "name": "tokenId",
          "type": "uint256"
        }
      ],
      "name": "approve",
      "outputs": [],
      "stateMutability": "nonpayable",
      "type": "function"
    },
    {
      "inputs": [
        {
          "internalType": "uint256",
          "name": "tokenId",
          "type": "uint256"
        }
      ],
      "name": "getApproved",
      "outputs": [
        {
          "internalType": "address",
          "name": "",
          "type": "address"
        }
      ],
      "stateMutability": "view",
      "type": "function",
      "constant": true
    },
    {
      "inputs": [
        {
          "internalType": "address",
          "name": "operator",
          "type": "address"
        },
        {
          "internalType": "bool",
          "name": "approved",
          "type": "bool"
        }
      ],
      "name": "setApprovalForAll",
      "outputs": [],
      "stateMutability": "nonpayable",
      "type": "function"
    },
    {
      "inputs": [
        {
          "internalType": "address",
          "name": "_owner",
          "type": "address"
        },
        {
          "internalType": "address",
          "name": "operator",
          "type": "address"
        }
      ],
      "name": "isApprovedForAll",
      "outputs": [
        {
          "internalType": "bool",
          "name": "",
          "type": "bool"
        }
      ],
      "stateMutability": "view",
      "type": "function",
      "constant": true
    },
    {
      "inputs": [
        {
          "internalType": "address",
          "name": "from",
          "type": "address"
        },
        {
          "internalType": "address",
          "name": "to",
          "type": "address"
        },
        {
          "internalType": "uint256",
          "name": "tokenId",
          "type": "uint256"
        }
      ],
      "name": "transferFrom",
      "outputs": [],
      "stateMutability": "nonpayable",
      "type": "function"
    },
    {
      "inputs": [
        {
          "internalType": "address",
          "name": "from",
          "type": "address"
        },
        {
          "internalType": "address",
          "name": "to",
          "type": "address"
        },
        {
          "internalType": "uint256",
          "name": "tokenId",
          "type": "uint256"
        }
      ],
      "name": "safeTransferFrom",
      "outputs": [],
      "stateMutability": "nonpayable",
      "type": "function"
    },
    {
      "inputs": [
        {
          "internalType": "address",
          "name": "from",
          "type": "address"
        },
        {
          "internalType": "address",
          "name": "to",
          "type": "address"
        },
        {
          "internalType": "uint256",
          "name": "tokenId",
          "type": "uint256"
        },
        {
          "internalType": "bytes",
          "name": "data",
          "type": "bytes"
        }
      ],
      "name": "safeTransferFrom",
      "outputs": [],
      "stateMutability": "nonpayable",
      "type": "function"
    },
    {
      "inputs": [
        {
          "internalType": "address",
          "name": "to",
          "type": "address"
        },
        {
          "internalType": "string",
          "name": "_tokenURI",
          "type": "string"
        }
      ],
      "name": "mint",
      "outputs": [
        {
          "internalType": "uint256",
          "name": "",
          "type": "uint256"
        }
      ],
      "stateMutability": "nonpayable",
      "type": "function"
    },
    {
      "inputs": [
        {
          "internalType": "address",
          "name": "to",
          "type": "address"
        },
        {
          "internalType": "string",
          "name": "_tokenURI",
          "type": "string"
        }
      ],
      "name": "safeMint",
      "outputs": [
        {
          "internalType": "uint256",
          "name": "",
          "type": "uint256"
        }
      ],
      "stateMutability": "nonpayable",
      "type": "function"
    },
    {
      "inputs": [
        {
          "internalType": "address",
          "name": "to",
          "type": "address"
        },
        {
          "internalType": "string",
          "name": "_tokenURI",
          "type": "string"
        },
        {
          "internalType": "bytes",
          "name": "data",
          "type": "bytes"
        }
      ],
      "name": "safeMint",
      "outputs": [
        {
          "internalType": "uint256",
          "name": "",
          "type": "uint256"
        }
      ],
      "stateMutability": "nonpayable",
      "type": "function"
    },
    {
      "inputs": [
        {
          "internalType": "uint256",
          "name": "tokenId",
          "type": "uint256"
        }
      ],
      "name": "burn",
      "outputs": [],
      "stateMutability": "nonpayable",
      "type": "function"
    }
  ],
  "bytecode": "0x608060405260006008553480156200001657600080fd5b50604051620034ad380380620034ad83398181016040528101906200003c91906200023c565b33600460006101000a81548173ffffffffffffffffffffffffffffffffffffffff021916908373ffffffffffffffffffffffffffffffffffffffff16021790555081600590816200008e91906200050c565b508060069081620000a091906200050c565b505050620005f3565b6000604051905090565b600080fd5b600080fd5b600080fd5b600080fd5b6000601f19601f8301169050919050565b7f4e487b7100000000000000000000000000000000000000000000000000000000600052604160045260246000fd5b6200011282620000c7565b810181811067ffffffffffffffff82111715620001345762000133620000d8565b5b80604052505050565b600062000149620000a9565b905062000157828262000107565b919050565b600067ffffffffffffffff8211156200017a5762000179620000d8565b5b6200018582620000c7565b9050602081019050919050565b60005b83811015620001b257808201518184015260208101905062000195565b60008484015250505050565b6000620001d5620001cf846200015c565b6200013d565b905082815260208101848484011115620001f457620001f3620000c2565b5b6200020184828562000192565b509392505050565b600082601f830112620002215762000220620000bd565b5b815162000233848260208601620001be565b91505092915050565b60008060408385031215620002565762000255620000b3565b5b600083015167ffffffffffffffff811115620002775762000276620000b8565b5b620002858582860162000209565b925050602083015167ffffffffffffffff811115620002a957620002a8620000b8565b5b620002b78582860162000209565b9150509250929050565b600081519050919050565b7f4e487b7100000000000000000000000000000000000000000000000000000000600052602260045260246000fd5b600060028204905060018216806200031457607f821691505b6020821081036200032a5762000329620002cc565b5b50919050565b60008190508160005260206000209050919050565b60006020601f8301049050919050565b600082821b905092915050565b600060088302620003947fffffffffffffffffffffffffffffffffffffffffffffffffffffffffffffffff8262000355565b620003a0868362000355565b95508019841693508086168417925050509392505050565b6000819050919050565b6000819050919050565b6000620003ed620003e7620003e184620003b8565b620003c2565b620003b8565b9050919050565b6000819050919050565b6200040983620003cc565b620004216200041882620003f4565b84845462000362565b825550505050565b600090565b6200043862000429565b62000445818484620003fe565b505050565b5b818110156200046d57620004616000826200042e565b6001810190506200044b565b5050565b601f821115620004bc57620004868162000330565b620004918462000345565b81016020851015620004a1578190505b620004b9620004b08562000345565b8301826200044a565b50505b505050565b600082821c905092915050565b6000620004e160001984600802620004c1565b1980831691505092915050565b6000620004fc8383620004ce565b9150826002028217905092915050565b6200051782620002c1565b67ffffffffffffffff811115620005335762000532620000d8565b5b6200053f8254620002fb565b6200054c82828562000471565b600060209050601f8311600181146200058457600084156200056f578287015190505b6200057b8582620004ee565b865550620005eb565b601f198416620005948662000330565b60005b82811015620005be5784890151825560018201915060208501945060208101905062000597565b86831015620005de5784890151620005da601f891682620004ce565b8355505b6001600288020188555050505b505050505050565b612eaa80620006036000396000f3fe608060405234801561001057600080fd5b506004361061014c5760003560e01c80636352211e116100c3578063b88d4fde1161007c578063b88d4fde146103d5578063c87b56dd146103f1578063d0def52114610421578063d204c45e14610451578063e985e9c514610481578063f6dda936146104b15761014c565b80636352211e146102ed57806370a082311461031d5780638da5cb5b1461034d57806395d89b411461036b578063a22cb46514610389578063acdeb5b9146103a55761014c565b8063095ea7b311610115578063095ea7b31461021d5780630d95e0541461023957806323b872dd1461026957806327e235e31461028557806342842e0e146102b557806342966c68146102d15761014c565b80629a9b7b1461015157806301ffc9a71461016f578063025e7c271461019f57806306fdde03146101cf578063081812fc146101ed575b600080fd5b6101596104e1565b6040516101669190611b77565b60405180910390f35b61018960048036038101906101849190611bfe565b6104e7565b6040516101969190611c46565b60405180910390f35b6101b960048036038101906101b49190611c8d565b610621565b6040516101c69190611cfb565b60405180910390f35b6101d7610654565b6040516101e49190611da6565b60405180910390f35b61020760048036038101906102029190611c8d565b6106e6565b6040516102149190611cfb565b60405180910390f35b61023760048036038101906102329190611df4565b6107ca565b005b610253600480360381019061024e9190611e34565b610ac8565b6040516102609190611c46565b60405180910390f35b610283600480360381019061027e9190611e74565b610af7565b005b61029f600480360381019061029a9190611ec7565b610b07565b6040516102ac9190611b77565b60405180910390f35b6102cf60048036038101906102ca9190611e74565b610b1f565b005b6102eb60048036038101906102e69190611c8d565b610b3f565b005b61030760048036038101906103029190611c8d565b610bc1565b6040516103149190611cfb565b60405180910390f35b61033760048036038101906103329190611ec7565b610bd3565b6040516103449190611b77565b60405180910390f35b610355610c89565b6040516103629190611cfb565b60405180910390f35b610373610caf565b6040516103809190611da6565b60405180910390f35b6103a3600480360381019061039e9190611f20565b610d41565b005b6103bf60048036038101906103ba9190611c8d565b610f1b565b6040516103cc9190611cfb565b60405180910390f35b6103ef60048036038101906103ea9190611fc5565b610f4e565b005b61040b60048036038101906104069190611c8d565b610fa5565b6040516104189190611da6565b60405180910390f35b61043b6004803603810190610436919061217d565b61104a565b6040516104489190611b77565b60405180910390f35b61046b6004803603810190610466919061222f565b61105e565b6040516104789190611b77565b60405180910390f35b61049b60048036038101906104969190611e34565b6110c7565b6040516104a89190611c46565b60405180910390f35b6104cb60048036038101906104c6919061228f565b611238565b6040516104d89190611b77565b60405180910390f35b60085481565b60007f80ac58cd000000000000000000000000000000000000000000000000000000007bffffffffffffffffffffffffffffffffffffffffffffffffffffffff1916827bffffffffffffffffffffffffffffffffffffffffffffffffffffffff191614806105b257507f5b5e139f000000000000000000000000000000000000000000000000000000007bffffffffffffffffffffffffffffffffffffffffffffffffffffffff1916827bffffffffffffffffffffffffffffffffffffffffffffffffffffffff1916145b8061061a57507f01ffc9a7000000000000000000000000000000000000000000000000000000007bffffffffffffffffffffffffffffffffffffffffffffffffffffffff1916827bffffffffffffffffffffffffffffffffffffffffffffffffffffffff1916145b9050919050565b60016020528060005260406000206000915054906101000a900473ffffffffffffffffffffffffffffffffffffffff1681565b60606005805461066390612353565b80601f016020809104026020016040519081016040528092919081815260200182805461068f90612353565b80156106dc5780601f106106b1576101008083540402835291602001916106dc565b820191906000526020600020905b8154815290600101906020018083116106bf57829003601f168201915b5050505050905090565b6000806001600084815260200190815260200160002060009054906101000a900473ffffffffffffffffffffffffffffffffffffffff169050600073ffffffffffffffffffffffffffffffffffffffff168173ffffffffffffffffffffffffffffffffffffffff160361078e576040517f08c379a0000000000000000000000000000000000000000000000000000000008152600401610785906123f6565b60405180910390fd5b6002600084815260200190815260200160002060009054906101000a900473ffffffffffffffffffffffffffffffffffffffff16915050919050565b60006001600083815260200190815260200160002060009054906101000a900473ffffffffffffffffffffffffffffffffffffffff1690508073ffffffffffffffffffffffffffffffffffffffff163373ffffffffffffffffffffffffffffffffffffffff161480610842575061084181336110c7565b5b610881576040517f08c379a000000000000000000000000000000000000000000000000000000000815260040161087890612488565b60405180910390fd5b3373ffffffffffffffffffffffffffffffffffffffff168173ffffffffffffffffffffffffffffffffffffffff16146108ef576040517f08c379a00000000000000000000000000000000000000000000000000000000081526004016108e690612488565b60405180910390fd5b600073ffffffffffffffffffffffffffffffffffffffff168373ffffffffffffffffffffffffffffffffffffffff160361095e576040517f08c379a00000000000000000000000000000000000000000000000000000000081526004016109559061251a565b60405180910390fd5b8273ffffffffffffffffffffffffffffffffffffffff168173ffffffffffffffffffffffffffffffffffffffff16036109cc576040517f08c379a00000000000000000000000000000000000000000000000000000000081526004016109c390612586565b60405180910390fd5b6109d681846110c7565b15610a16576040517f08c379a0000000000000000000000000000000000000000000000000000000008152600401610a0d90612488565b60405180910390fd5b826002600084815260200190815260200160002060006101000a81548173ffffffffffffffffffffffffffffffffffffffff021916908373ffffffffffffffffffffffffffffffffffffffff160217905550818373ffffffffffffffffffffffffffffffffffffffff168273ffffffffffffffffffffffffffffffffffffffff167f8c5be1e5ebec7d5bd14f71427d1e84f3dd0314c0f7b2291e5b200ac8c7c3b92560405160405180910390a4505050565b60036020528160005260406000206020528060005260406000206000915091509054906101000a900460ff1681565b610b028383836112d8565b505050565b60006020528060005260406000206000915090505481565b610b3a83838360405180602001604052806000815250611553565b505050565b610b48816115ae565b73ffffffffffffffffffffffffffffffffffffffff163373ffffffffffffffffffffffffffffffffffffffff1614610bb5576040517f08c379a0000000000000000000000000000000000000000000000000000000008152600401610bac906125f2565b60405180910390fd5b610bbe8161165f565b50565b6000610bcc826115ae565b9050919050565b60008073ffffffffffffffffffffffffffffffffffffffff168273ffffffffffffffffffffffffffffffffffffffff1603610c43576040517f08c379a0000000000000000000000000000000000000000000000000000000008152600401610c3a90612684565b60405180910390fd5b6000808373ffffffffffffffffffffffffffffffffffffffff1673ffffffffffffffffffffffffffffffffffffffff168152602001908152602001600020549050919050565b600460009054906101000a900473ffffffffffffffffffffffffffffffffffffffff1681565b606060068054610cbe90612353565b80601f0160208091040260200160405190810160405280929190818152602001828054610cea90612353565b8015610d375780601f10610d0c57610100808354040283529160200191610d37565b820191906000526020600020905b815481529060010190602001808311610d1a57829003601f168201915b5050505050905090565b600073ffffffffffffffffffffffffffffffffffffffff168273ffffffffffffffffffffffffffffffffffffffff1603610db0576040517f08c379a0000000000000000000000000000000000000000000000000000000008152600401610da79061251a565b60405180910390fd5b3373ffffffffffffffffffffffffffffffffffffffff168273ffffffffffffffffffffffffffffffffffffffff1603610e1e576040517f08c379a0000000000000000000000000000000000000000000000000000000008152600401610e1590612586565b60405180910390fd5b80600360003373ffffffffffffffffffffffffffffffffffffffff1673ffffffffffffffffffffffffffffffffffffffff16815260200190815260200160002060008473ffffffffffffffffffffffffffffffffffffffff1673ffffffffffffffffffffffffffffffffffffffff16815260200190815260200160002060006101000a81548160ff0219169083151502179055508173ffffffffffffffffffffffffffffffffffffffff163373ffffffffffffffffffffffffffffffffffffffff167f17307eab39ab6107e8899845ad3d59bd9653f200f220920489ca2b5937696c3183604051610f0f9190611c46565b60405180910390a35050565b60026020528060005260406000206000915054906101000a900473ffffffffffffffffffffffffffffffffffffffff1681565b610f9e85858585858080601f016020809104026020016040519081016040528093929190818152602001838380828437600081840152601f19601f82011690508083019250505050505050611553565b5050505050565b6060600760008381526020019081526020016000208054610fc590612353565b80601f0160208091040260200160405190810160405280929190818152602001828054610ff190612353565b801561103e5780601f106110135761010080835404028352916020019161103e565b820191906000526020600020905b81548152906001019060200180831161102157829003601f168201915b50505050509050919050565b60006110568383611676565b905092915050565b60006110be8484848080601f016020809104026020016040519081016040528093929190818152602001838380828437600081840152601f19601f8201169050808301925050505050505060405180602001604052806000815250611781565b90509392505050565b60008073ffffffffffffffffffffffffffffffffffffffff168373ffffffffffffffffffffffffffffffffffffffff1603611137576040517f08c379a000000000000000000000000000000000000000000000000000000000815260040161112e90612716565b60405180910390fd5b600073ffffffffffffffffffffffffffffffffffffffff168273ffffffffffffffffffffffffffffffffffffffff16036111a6576040517f08c379a000000000000000000000000000000000000000000000000000000000815260040161119d90612716565b60405180910390fd5b600360008473ffffffffffffffffffffffffffffffffffffffff1673ffffffffffffffffffffffffffffffffffffffff16815260200190815260200160002060008373ffffffffffffffffffffffffffffffffffffffff1673ffffffffffffffffffffffffffffffffffffffff16815260200190815260200160002060009054906101000a900460ff16905092915050565b60006112cd8686868080601f016020809104026020016040519081016040528093929190818152602001838380828437600081840152601f19601f8201169050808301925050505050505085858080601f016020809104026020016040519081016040528093929190818152602001838380828437600081840152601f19601f82011690508083019250505050505050611781565b905095945050505050565b60006001600083815260200190815260200160002060009054906101000a900473ffffffffffffffffffffffffffffffffffffffff1690508373ffffffffffffffffffffffffffffffffffffffff168173ffffffffffffffffffffffffffffffffffffffff161461137e576040517f08c379a0000000000000000000000000000000000000000000000000000000008152600401611375906127a8565b60405180910390fd5b600073ffffffffffffffffffffffffffffffffffffffff168373ffffffffffffffffffffffffffffffffffffffff16036113ed576040517f08c379a00000000000000000000000000000000000000000000000000000000081526004016113e49061283a565b60405180910390fd5b3373ffffffffffffffffffffffffffffffffffffffff168173ffffffffffffffffffffffffffffffffffffffff16148061142d575061142c81336110c7565b5b8061149657503373ffffffffffffffffffffffffffffffffffffffff166002600084815260200190815260200160002060009054906101000a900473ffffffffffffffffffffffffffffffffffffffff1673ffffffffffffffffffffffffffffffffffffffff16145b6114d5576040517f08c379a00000000000000000000000000000000000000000000000000000000081526004016114cc906128cc565b60405180910390fd5b6114de826117e1565b6114e88483611882565b6114f28383611912565b818373ffffffffffffffffffffffffffffffffffffffff168573ffffffffffffffffffffffffffffffffffffffff167fddf252ad1be2c89b69c2b068fc378daa952ba7f163c4a11628f55a4df523b3ef60405160405180910390a450505050565b61155e8484846112d8565b6115698484836119be565b6115a8576040517f08c379a000000000000000000000000000000000000000000000000000000000815260040161159f9061295e565b60405180910390fd5b50505050565b6000806001600084815260200190815260200160002060009054906101000a900473ffffffffffffffffffffffffffffffffffffffff169050600073ffffffffffffffffffffffffffffffffffffffff168173ffffffffffffffffffffffffffffffffffffffff1603611656576040517f08c379a000000000000000000000000000000000000000000000000000000000815260040161164d906129f0565b60405180910390fd5b80915050919050565b61167361166b826115ae565b6000836112d8565b50565b60008073ffffffffffffffffffffffffffffffffffffffff168373ffffffffffffffffffffffffffffffffffffffff16036116e6576040517f08c379a00000000000000000000000000000000000000000000000000000000081526004016116dd90612a5c565b60405180910390fd5b6001600860008282546116f99190612aab565b9250508190555061170c83600854611912565b6008548373ffffffffffffffffffffffffffffffffffffffff16600073ffffffffffffffffffffffffffffffffffffffff167fddf252ad1be2c89b69c2b068fc378daa952ba7f163c4a11628f55a4df523b3ef60405160405180910390a461177660085483611b39565b600854905092915050565b600061178f600085846119be565b6117ce576040517f08c379a00000000000000000000000000000000000000000000000000000000081526004016117c59061295e565b60405180910390fd5b6117d88484611676565b90509392505050565b600073ffffffffffffffffffffffffffffffffffffffff166002600083815260200190815260200160002060009054906101000a900473ffffffffffffffffffffffffffffffffffffffff1673ffffffffffffffffffffffffffffffffffffffff161461187f576002600082815260200190815260200160002060006101000a81549073ffffffffffffffffffffffffffffffffffffffff02191690555b50565b60016000808473ffffffffffffffffffffffffffffffffffffffff1673ffffffffffffffffffffffffffffffffffffffff16815260200190815260200160002060008282546118d19190612adf565b925050819055506001600082815260200190815260200160002060006101000a81549073ffffffffffffffffffffffffffffffffffffffff02191690555050565b60016000808473ffffffffffffffffffffffffffffffffffffffff1673ffffffffffffffffffffffffffffffffffffffff16815260200190815260200160002060008282546119619190612aab565b92505081905550816001600083815260200190815260200160002060006101000a81548173ffffffffffffffffffffffffffffffffffffffff021916908373ffffffffffffffffffffffffffffffffffffffff1602179055505050565b6000808373ffffffffffffffffffffffffffffffffffffffff163b036119e75760019050611b32565b8273ffffffffffffffffffffffffffffffffffffffff1663150b7a023386600854866040518563ffffffff1660e01b8152600401611a289493929190612b68565b6020604051808303816000875af1925050508015611a6457506040513d601f19601f82011682018060405250810190611a619190612bc9565b60015b611ae6573d8060008114611a94576040519150601f19603f3d011682016040523d82523d6000602084013e611a99565b606091505b506000815103611ade576040517f08c379a0000000000000000000000000000000000000000000000000000000008152600401611ad59061295e565b60405180910390fd5b805181602001fd5b63150b7a0260e01b7bffffffffffffffffffffffffffffffffffffffffffffffffffffffff1916817bffffffffffffffffffffffffffffffffffffffffffffffffffffffff1916149150505b9392505050565b80600760008481526020019081526020016000209081611b599190612da2565b505050565b6000819050919050565b611b7181611b5e565b82525050565b6000602082019050611b8c6000830184611b68565b92915050565b6000604051905090565b600080fd5b600080fd5b60007fffffffff0000000000000000000000000000000000000000000000000000000082169050919050565b611bdb81611ba6565b8114611be657600080fd5b50565b600081359050611bf881611bd2565b92915050565b600060208284031215611c1457611c13611b9c565b5b6000611c2284828501611be9565b91505092915050565b60008115159050919050565b611c4081611c2b565b82525050565b6000602082019050611c5b6000830184611c37565b92915050565b611c6a81611b5e565b8114611c7557600080fd5b50565b600081359050611c8781611c61565b92915050565b600060208284031215611ca357611ca2611b9c565b5b6000611cb184828501611c78565b91505092915050565b600073ffffffffffffffffffffffffffffffffffffffff82169050919050565b6000611ce582611cba565b9050919050565b611cf581611cda565b82525050565b6000602082019050611d106000830184611cec565b92915050565b600081519050919050565b600082825260208201905092915050565b60005b83811015611d50578082015181840152602081019050611d35565b60008484015250505050565b6000601f19601f8301169050919050565b6000611d7882611d16565b611d828185611d21565b9350611d92818560208601611d32565b611d9b81611d5c565b840191505092915050565b60006020820190508181036000830152611dc08184611d6d565b905092915050565b611dd181611cda565b8114611ddc57600080fd5b50565b600081359050611dee81611dc8565b92915050565b60008060408385031215611e0b57611e0a611b9c565b5b6000611e1985828601611ddf565b9250506020611e2a85828601611c78565b9150509250929050565b60008060408385031215611e4b57611e4a611b9c565b5b6000611e5985828601611ddf565b9250506020611e6a85828601611ddf565b9150509250929050565b600080600060608486031215611e8d57611e8c611b9c565b5b6000611e9b86828701611ddf565b9350506020611eac86828701611ddf565b9250506040611ebd86828701611c78565b9150509250925092565b600060208284031215611edd57611edc611b9c565b5b6000611eeb84828501611ddf565b91505092915050565b611efd81611c2b565b8114611f0857600080fd5b50565b600081359050611f1a81611ef4565b92915050565b60008060408385031215611f3757611f36611b9c565b5b6000611f4585828601611ddf565b9250506020611f5685828601611f0b565b9150509250929050565b600080fd5b600080fd5b600080fd5b60008083601f840112611f8557611f84611f60565b5b8235905067ffffffffffffffff811115611fa257611fa1611f65565b5b602083019150836001820283011115611fbe57611fbd611f6a565b5b9250929050565b600080600080600060808688031215611fe157611fe0611b9c565b5b6000611fef88828901611ddf565b955050602061200088828901611ddf565b945050604061201188828901611c78565b935050606086013567ffffffffffffffff81111561203257612031611ba1565b5b61203e88828901611f6f565b92509250509295509295909350565b600080fd5b7f4e487b7100000000000000000000000000000000000000000000000000000000600052604160045260246000fd5b61208a82611d5c565b810181811067ffffffffffffffff821117156120a9576120a8612052565b5b80604052505050565b60006120bc611b92565b90506120c88282612081565b919050565b600067ffffffffffffffff8211156120e8576120e7612052565b5b6120f182611d5c565b9050602081019050919050565b82818337600083830152505050565b600061212061211b846120cd565b6120b2565b90508281526020810184848401111561213c5761213b61204d565b5b6121478482856120fe565b509392505050565b600082601f83011261216457612163611f60565b5b813561217484826020860161210d565b91505092915050565b6000806040838503121561219457612193611b9c565b5b60006121a285828601611ddf565b925050602083013567ffffffffffffffff8111156121c3576121c2611ba1565b5b6121cf8582860161214f565b9150509250929050565b60008083601f8401126121ef576121ee611f60565b5b8235905067ffffffffffffffff81111561220c5761220b611f65565b5b60208301915083600182028301111561222857612227611f6a565b5b9250929050565b60008060006040848603121561224857612247611b9c565b5b600061225686828701611ddf565b935050602084013567ffffffffffffffff81111561227757612276611ba1565b5b612283868287016121d9565b92509250509250925092565b6000806000806000606086880312156122ab576122aa611b9c565b5b60006122b988828901611ddf565b955050602086013567ffffffffffffffff8111156122da576122d9611ba1565b5b6122e6888289016121d9565b9450945050604086013567ffffffffffffffff81111561230957612308611ba1565b5b61231588828901611f6f565b92509250509295509295909350565b7f4e487b7100000000000000000000000000000000000000000000000000000000600052602260045260246000fd5b6000600282049050600182168061236b57607f821691505b60208210810361237e5761237d612324565b5b50919050565b7f4552433732313a20617070726f76656420717565727920666f72206e6f6e657860008201527f697374656e7420746f6b656e0000000000000000000000000000000000000000602082015250565b60006123e0602c83611d21565b91506123eb82612384565b604082019050919050565b6000602082019050818103600083015261240f816123d3565b9050919050565b7f4552433732313a20617070726f76652063616c6c6572206973206e6f74206f7760008201527f6e6572206e6f7220617070726f76656420666f7220616c6c0000000000000000602082015250565b6000612472603883611d21565b915061247d82612416565b604082019050919050565b600060208201905081810360008301526124a181612465565b9050919050565b7f4552433732313a20617070726f766520746f20746865207a65726f206164647260008201527f6573730000000000000000000000000000000000000000000000000000000000602082015250565b6000612504602383611d21565b915061250f826124a8565b604082019050919050565b60006020820190508181036000830152612533816124f7565b9050919050565b7f4552433732313a20617070726f766520746f2063616c6c657200000000000000600082015250565b6000612570601983611d21565b915061257b8261253a565b602082019050919050565b6000602082019050818103600083015261259f81612563565b9050919050565b7f4552433732313a2063616c6c6572206973206e6f7420746865206f776e657200600082015250565b60006125dc601f83611d21565b91506125e7826125a6565b602082019050919050565b6000602082019050818103600083015261260b816125cf565b9050919050565b7f4552433732313a2062616c616e636520717565727920666f7220746865207a6560008201527f726f206164647265737300000000000000000000000000000000000000000000602082015250565b600061266e602a83611d21565b915061267982612612565b604082019050919050565b6000602082019050818103600083015261269d81612661565b9050919050565b7f4552433732313a206f70657261746f7220717565727920666f72206e6f6e657860008201527f697374656e7420746f6b656e0000000000000000000000000000000000000000602082015250565b6000612700602c83611d21565b915061270b826126a4565b604082019050919050565b6000602082019050818103600083015261272f816126f3565b9050919050565b7f4552433732313a207472616e73666572206f6620746f6b656e2074686174206960008201527f73206e6f74206f776e0000000000000000000000000000000000000000000000602082015250565b6000612792602983611d21565b915061279d82612736565b604082019050919050565b600060208201905081810360008301526127c181612785565b9050919050565b7f4552433732313a207472616e7366657220746f20746865207a65726f2061646460008201527f7265737300000000000000000000000000000000000000000000000000000000602082015250565b6000612824602483611d21565b915061282f826127c8565b604082019050919050565b6000602082019050818103600083015261285381612817565b9050919050565b7f4552433732313a207472616e736665722063616c6c6572206973206e6f74206f60008201527f776e6572206e6f7220617070726f76656420666f7220616c6c00000000000000602082015250565b60006128b6603983611d21565b91506128c18261285a565b604082019050919050565b600060208201905081810360008301526128e5816128a9565b9050919050565b7f4552433732313a207472616e7366657220746f206e6f6e20455243373231526560008201527f63656976657220696d706c656d656e7465720000000000000000000000000000602082015250565b6000612948603283611d21565b9150612953826128ec565b604082019050919050565b600060208201905081810360008301526129778161293b565b9050919050565b7f4552433732313a206f776e657220717565727920666f72206e6f6e657869737460008201527f656e7420746f6b656e0000000000000000000000000000000000000000000000602082015250565b60006129da602983611d21565b91506129e58261297e565b604082019050919050565b60006020820190508181036000830152612a09816129cd565b9050919050565b7f4552433732313a206d696e7420746f20746865207a65726f2061646472657373600082015250565b6000612a46602083611d21565b9150612a5182612a10565b602082019050919050565b60006020820190508181036000830152612a7581612a39565b9050919050565b7f4e487b7100000000000000000000000000000000000000000000000000000000600052601160045260246000fd5b6000612ab682611b5e565b9150612ac183611b5e565b9250828201905080821115612ad957612ad8612a7c565b5b92915050565b6000612aea82611b5e565b9150612af583611b5e565b9250828203905081811115612b0d57612b0c612a7c565b5b92915050565b600081519050919050565b600082825260208201905092915050565b6000612b3a82612b13565b612b448185612b1e565b9350612b54818560208601611d32565b612b5d81611d5c565b840191505092915050565b6000608082019050612b7d6000830187611cec565b612b8a6020830186611cec565b612b976040830185611b68565b8181036060830152612ba98184612b2f565b905095945050505050565b600081519050612bc381611bd2565b92915050565b600060208284031215612bdf57612bde611b9c565b5b6000612bed84828501612bb4565b91505092915050565b60008190508160005260206000209050919050565b60006020601f8301049050919050565b600082821b905092915050565b600060088302612c587fffffffffffffffffffffffffffffffffffffffffffffffffffffffffffffffff82612c1b565b612c628683612c1b565b95508019841693508086168417925050509392505050565b6000819050919050565b6000612c9f612c9a612c9584611b5e565b612c7a565b611b5e565b9050919050565b6000819050919050565b612cb983612c84565b612ccd612cc582612ca6565b848454612c28565b825550505050565b600090565b612ce2612cd5565b612ced818484612cb0565b505050565b5b81811015612d1157612d06600082612cda565b600181019050612cf3565b5050565b601f821115612d5657612d2781612bf6565b612d3084612c0b565b81016020851015612d3f578190505b612d53612d4b85612c0b565b830182612cf2565b50505b505050565b600082821c905092915050565b6000612d7960001984600802612d5b565b1980831691505092915050565b6000612d928383612d68565b9150826002028217905092915050565b612dab82611d16565b67ffffffffffffffff811115612dc457612dc3612052565b5b612dce8254612353565b612dd9828285612d15565b600060209050601f831160018114612e0c5760008415612dfa578287015190505b612e048582612d86565b865550612e6c565b601f198416612e1a86612bf6565b60005b82811015612e4257848901518255600182019150602085019450602081019050612e1d565b86831015612e5f5784890151612e5b601f891682612d68565b8355505b6001600288020188555050505b50505050505056fea26469706673582212201aef37b289f9407aa3144246c8232ecf94dd6c760585fd96c83c70fcf14ea79164736f6c63430008110033",
  "immutableReferences": {},
  "source": "// SPDX-License-Identifier: MIT\n\npragma solidity ^0.8.0;\n\nimport \"./IERC721.sol\";\nimport \"./IERC165.sol\";\n\ncontract NoahNFT is IERC721, IERC721Metadata, IERC165 {\n    mapping(address => uint256) public balances; //   NFT  =>  NFT \n    mapping(uint256 => address) public owners; //   NFT id =>  NFT \n    mapping(uint256 => address) public tokenApprovals; //  NFT id =>  NFT \n    mapping(address => mapping(address => bool)) public operatorApprovals; //  NFT   NFT  =>  => \n    address public owner; // \n    string private _name; //  NFT \n    string private _symbol; //  NFT \n    mapping(uint256 => string) private _tokenURIs; //  NFT   NFT id => \n    uint256 public currentTokenId = 0; //  NFT id\n\n    // \n    constructor(string memory initName, string memory initSymbol) {\n        owner = msg.sender;\n        _name = initName;\n        _symbol = initSymbol;\n    }\n\n    // \n    function supportsInterface(bytes4 interfaceId)\n        public\n        pure\n        override\n        returns (bool)\n    {\n        return\n            interfaceId == type(IERC721).interfaceId ||\n            interfaceId == type(IERC721Metadata).interfaceId ||\n            interfaceId == type(IERC165).interfaceId;\n    }\n\n    //  NFT \n    function name() public view override returns (string memory) {\n        return _name;\n    }\n\n    //  NFT \n    function symbol() public view override returns (string memory) {\n        return _symbol;\n    }\n\n    //  NFT  MetadataURI\n    function tokenURI(uint256 tokenId)\n        public\n        view\n        override\n        returns (string memory)\n    {\n        return _tokenURIs[tokenId];\n    }\n\n    //  NFT \n    function balanceOf(address _owner) public view override returns (uint256) {\n        //  NFT 0\n        require(\n            _owner != address(0),\n            \"ERC721: balance query for the zero address\"\n        );\n        return balances[_owner];\n    }\n\n    //  NFT \n    function ownerOf(uint256 tokenId) public view override returns (address) {\n        return _ownerOf(tokenId);\n    }\n\n    //  NFT  \n    function _ownerOf(uint256 tokenId) internal view returns (address) {\n        address tokenOwner = owners[tokenId];\n        //  NFT 0\n        require(\n            tokenOwner != address(0),\n            \"ERC721: owner query for nonexistent token\"\n        );\n        return tokenOwner;\n    }\n\n    //  NFT\n    function approve(address to, uint256 tokenId) public override {\n        address tokenOwner = owners[tokenId]; //  NFT \n        //  NFT  NFT  NFT \n        require(\n            msg.sender == tokenOwner ||\n                isApprovedForAll(tokenOwner, msg.sender),\n            \"ERC721: approve caller is not owner nor approved for all\"\n        );\n        // NFT  NFT \n        require(\n            tokenOwner == msg.sender,\n            \"ERC721: approve caller is not owner nor approved for all\"\n        );\n        // 0\n        require(to != address(0), \"ERC721: approve to the zero address\");\n        // \n        require(tokenOwner != to, \"ERC721: approve to caller\");\n        //  NFT \n        require(\n            !isApprovedForAll(tokenOwner, to),\n            \"ERC721: approve caller is not owner nor approved for all\"\n        );\n        //  NFT \n        tokenApprovals[tokenId] = to;\n        // \n        emit Approval(tokenOwner, to, tokenId);\n    }\n\n    //  NFT \n    function getApproved(uint256 tokenId)\n        public\n        view\n        override\n        returns (address)\n    {\n        address tokenOwner = owners[tokenId]; //  NFT \n        //  NFT 0\n        require(\n            tokenOwner != address(0),\n            \"ERC721: approved query for nonexistent token\"\n        );\n        return tokenApprovals[tokenId];\n    }\n\n    //  NFT\n    function setApprovalForAll(address operator, bool approved)\n        public\n        override\n    {\n        // 0\n        require(operator != address(0), \"ERC721: approve to the zero address\");\n        // \n        require(operator != msg.sender, \"ERC721: approve to caller\");\n        //  NFT \n        operatorApprovals[msg.sender][operator] = approved;\n        //  NFT \n        emit ApprovalForAll(msg.sender, operator, approved);\n    }\n\n    //  NFT  NFT \n    function isApprovedForAll(address _owner, address operator)\n        public\n        view\n        override\n        returns (bool)\n    {\n        //  NFT 0\n        require(\n            _owner != address(0),\n            \"ERC721: operator query for nonexistent token\"\n        );\n        // 0\n        require(\n            operator != address(0),\n            \"ERC721: operator query for nonexistent token\"\n        );\n        return operatorApprovals[_owner][operator];\n    }\n\n    //  NFT\n    function transferFrom(\n        address from,\n        address to,\n        uint256 tokenId\n    ) public override {\n        _transfer(from, to, tokenId);\n    }\n\n    //  NFT\n    function _transfer(\n        address from,\n        address to,\n        uint256 tokenId\n    ) internal {\n        address tokenOwner = owners[tokenId]; //  NFT \n        // from  NFT \n        require(\n            tokenOwner == from,\n            \"ERC721: transfer of token that is not own\"\n        );\n        // 0\n        require(to != address(0), \"ERC721: transfer to the zero address\");\n        //  NFT  NFT  NFT  NFT  NFT \n        require(\n            tokenOwner == msg.sender ||\n                isApprovedForAll(tokenOwner, msg.sender) ||\n                tokenApprovals[tokenId] == msg.sender,\n            \"ERC721: transfer caller is not owner nor approved for all\"\n        );\n        //  NFT \n        _clearApproval(tokenId);\n        //  NFT \n        _removeTokenFrom(from, tokenId);\n        //  NFT\n        _addTokenTo(to, tokenId);\n        //  NFT \n        emit Transfer(from, to, tokenId);\n    }\n\n    //  NFT \n    function _clearApproval(uint256 tokenId) internal {\n        //  NFT \n        if (tokenApprovals[tokenId] != address(0)) {\n            delete tokenApprovals[tokenId];\n        }\n    }\n\n    //  NFT \n    function _removeTokenFrom(address from, uint256 tokenId) internal {\n        //  NFT \n        balances[from] -= 1;\n        //  NFT  NFT\n        delete owners[tokenId];\n    }\n\n    //  NFT\n    function _addTokenTo(address to, uint256 tokenId) internal {\n        //  NFT \n        balances[to] += 1;\n        //  NFT  NFT \n        owners[tokenId] = to;\n    }\n\n    //  NFT\n    function _checkOnERC721Received(\n        address from,\n        address to,\n        bytes memory _data\n    ) internal returns (bool) {\n        // \n        if (to.code.length == 0) {\n            return true;\n        }\n        //  onERC721Received \n        try\n            IERC721Receiver(to).onERC721Received(\n                msg.sender,\n                from,\n                currentTokenId,\n                _data\n            )\n        returns (bytes4 retval) {\n            //  ERC721_RECEIVED \n            return retval == IERC721Receiver(to).onERC721Received.selector;\n        } catch (bytes memory reason) {\n            // \n            if (reason.length == 0) {\n                revert(\"ERC721: transfer to non ERC721Receiver implementer\");\n            } else {\n                assembly {\n                    revert(add(32, reason), mload(reason))\n                }\n            }\n        }\n    }\n\n    //  NFT   data \n    function safeTransferFrom(\n        address from,\n        address to,\n        uint256 tokenId\n    ) public override {\n        //  NFT\n        _safeTransfer(from, to, tokenId, \"\");\n    }\n\n    //  NFT   data \n    function safeTransferFrom(\n        address from,\n        address to,\n        uint256 tokenId,\n        bytes calldata data\n    ) public override {\n        _safeTransfer(from, to, tokenId, data);\n    }\n\n    //  NFT  \n    function _safeTransfer(\n        address from,\n        address to,\n        uint256 tokenId,\n        bytes memory data\n    ) internal {\n        //  NFT\n        _transfer(from, to, tokenId);\n        //  NFT\n        require(\n            _checkOnERC721Received(from, to, data),\n            \"ERC721: transfer to non ERC721Receiver implementer\"\n        );\n    }\n\n    //  NFT\n    function mint(address to, string memory _tokenURI)\n        public\n        returns (uint256)\n    {\n        //  NFT\n        return _mint(to, _tokenURI);\n    }\n\n    //  NFT   data \n    function safeMint(address to, string calldata _tokenURI)\n        public\n        returns (uint256)\n    {\n        return _safeMint(to, _tokenURI, \"\");\n    }\n\n    //  NFT   data \n    function safeMint(\n        address to,\n        string calldata _tokenURI,\n        bytes calldata data\n    ) public returns (uint256) {\n        return _safeMint(to, _tokenURI, data);\n    }\n\n    //  NFT  \n    function _mint(address to, string memory _tokenURI)\n        internal\n        returns (uint256)\n    {\n        // 0\n        require(to != address(0), \"ERC721: mint to the zero address\");\n\n        //  NFT ID\n        currentTokenId += 1;\n\n        //  NFT\n        _addTokenTo(to, currentTokenId);\n        //  NFT \n        emit Transfer(address(0), to, currentTokenId);\n\n        //  Token URI\n        _setTokenURI(currentTokenId, _tokenURI);\n\n        //  NFT ID\n        return currentTokenId;\n    }\n\n    //  Token URI \n    function _setTokenURI(uint256 tokenId, string memory _tokenURI) internal {\n        //  Token URI\n        _tokenURIs[tokenId] = _tokenURI;\n    }\n\n    //  NFT  \n    function _safeMint(\n        address to,\n        string memory _tokenURI,\n        bytes memory _data\n    ) internal returns (uint256) {\n        //  NFT\n        require(\n            _checkOnERC721Received(address(0), to, _data),\n            \"ERC721: transfer to non ERC721Receiver implementer\"\n        );\n        //  NFT\n        return _mint(to, _tokenURI);\n    }\n\n    //  NFT\n    function burn(uint256 tokenId) public {\n        //  NFT \n        require(\n            msg.sender == _ownerOf(tokenId),\n            \"ERC721: caller is not the owner\"\n        );\n        //  NFT\n        _burn(tokenId);\n    }\n\n    //  NFT  \n    function _burn(uint256 tokenId) internal {\n        //  NFT\n        _transfer(_ownerOf(tokenId), address(0), tokenId);\n    }\n}\n",
  "sourcePath": "/Users/luzhenqian/Work/web3/web3-examples/contract/noah-nft/contracts/NoahNFT.sol",
  "compiler": {
    "name": "solc",
    "version": "0.8.17+commit.8df45f5f.Emscripten.clang"
  },
  "schemaVersion": "3.4.11",
  "updatedAt": "2023-01-15T11:27:49.645Z",
  "networkType": "ethereum",
  "devdoc": {
    "kind": "dev",
    "methods": {},
    "version": 1
  },
  "userdoc": {
    "kind": "user",
    "methods": {},
    "version": 1
  }
}