{
  "contractName": "NoahNFT",
  "abi": [
    {
      "inputs": [
        {
          "internalType": "string",
          "name": "initName",
          "type": "string"
        },
        {
          "internalType": "string",
          "name": "initSymbol",
          "type": "string"
        }
      ],
      "stateMutability": "nonpayable",
      "type": "constructor"
    },
    {
      "anonymous": false,
      "inputs": [
        {
          "indexed": true,
          "internalType": "address",
          "name": "owner",
          "type": "address"
        },
        {
          "indexed": true,
          "internalType": "address",
          "name": "approved",
          "type": "address"
        },
        {
          "indexed": true,
          "internalType": "uint256",
          "name": "tokenId",
          "type": "uint256"
        }
      ],
      "name": "Approval",
      "type": "event"
    },
    {
      "anonymous": false,
      "inputs": [
        {
          "indexed": true,
          "internalType": "address",
          "name": "owner",
          "type": "address"
        },
        {
          "indexed": true,
          "internalType": "address",
          "name": "operator",
          "type": "address"
        },
        {
          "indexed": false,
          "internalType": "bool",
          "name": "approved",
          "type": "bool"
        }
      ],
      "name": "ApprovalForAll",
      "type": "event"
    },
    {
      "anonymous": false,
      "inputs": [
        {
          "indexed": true,
          "internalType": "address",
          "name": "from",
          "type": "address"
        },
        {
          "indexed": true,
          "internalType": "address",
          "name": "to",
          "type": "address"
        },
        {
          "indexed": true,
          "internalType": "uint256",
          "name": "tokenId",
          "type": "uint256"
        }
      ],
      "name": "Transfer",
      "type": "event"
    },
    {
      "inputs": [
        {
          "internalType": "address",
          "name": "",
          "type": "address"
        }
      ],
      "name": "balances",
      "outputs": [
        {
          "internalType": "uint256",
          "name": "",
          "type": "uint256"
        }
      ],
      "stateMutability": "view",
      "type": "function",
      "constant": true
    },
    {
      "inputs": [],
      "name": "currentTokenId",
      "outputs": [
        {
          "internalType": "uint256",
          "name": "",
          "type": "uint256"
        }
      ],
      "stateMutability": "view",
      "type": "function",
      "constant": true
    },
    {
      "inputs": [
        {
          "internalType": "address",
          "name": "",
          "type": "address"
        }
      ],
      "name": "minters",
      "outputs": [
        {
          "internalType": "bool",
          "name": "",
          "type": "bool"
        }
      ],
      "stateMutability": "view",
      "type": "function",
      "constant": true
    },
    {
      "inputs": [
        {
          "internalType": "address",
          "name": "",
          "type": "address"
        },
        {
          "internalType": "address",
          "name": "",
          "type": "address"
        }
      ],
      "name": "operatorApprovals",
      "outputs": [
        {
          "internalType": "bool",
          "name": "",
          "type": "bool"
        }
      ],
      "stateMutability": "view",
      "type": "function",
      "constant": true
    },
    {
      "inputs": [],
      "name": "owner",
      "outputs": [
        {
          "internalType": "address",
          "name": "",
          "type": "address"
        }
      ],
      "stateMutability": "view",
      "type": "function",
      "constant": true
    },
    {
      "inputs": [
        {
          "internalType": "uint256",
          "name": "",
          "type": "uint256"
        }
      ],
      "name": "owners",
      "outputs": [
        {
          "internalType": "address",
          "name": "",
          "type": "address"
        }
      ],
      "stateMutability": "view",
      "type": "function",
      "constant": true
    },
    {
      "inputs": [
        {
          "internalType": "uint256",
          "name": "",
          "type": "uint256"
        }
      ],
      "name": "tokenApprovals",
      "outputs": [
        {
          "internalType": "address",
          "name": "",
          "type": "address"
        }
      ],
      "stateMutability": "view",
      "type": "function",
      "constant": true
    },
    {
      "inputs": [
        {
          "internalType": "address",
          "name": "minter",
          "type": "address"
        },
        {
          "internalType": "bool",
          "name": "approved",
          "type": "bool"
        }
      ],
      "name": "approveMinter",
      "outputs": [],
      "stateMutability": "nonpayable",
      "type": "function"
    },
    {
      "inputs": [
        {
          "internalType": "address",
          "name": "minter",
          "type": "address"
        }
      ],
      "name": "isMinter",
      "outputs": [
        {
          "internalType": "bool",
          "name": "",
          "type": "bool"
        }
      ],
      "stateMutability": "view",
      "type": "function",
      "constant": true
    },
    {
      "inputs": [
        {
          "internalType": "bytes4",
          "name": "interfaceId",
          "type": "bytes4"
        }
      ],
      "name": "supportsInterface",
      "outputs": [
        {
          "internalType": "bool",
          "name": "",
          "type": "bool"
        }
      ],
      "stateMutability": "pure",
      "type": "function",
      "constant": true
    },
    {
      "inputs": [],
      "name": "name",
      "outputs": [
        {
          "internalType": "string",
          "name": "",
          "type": "string"
        }
      ],
      "stateMutability": "view",
      "type": "function",
      "constant": true
    },
    {
      "inputs": [],
      "name": "symbol",
      "outputs": [
        {
          "internalType": "string",
          "name": "",
          "type": "string"
        }
      ],
      "stateMutability": "view",
      "type": "function",
      "constant": true
    },
    {
      "inputs": [
        {
          "internalType": "uint256",
          "name": "tokenId",
          "type": "uint256"
        }
      ],
      "name": "tokenURI",
      "outputs": [
        {
          "internalType": "string",
          "name": "",
          "type": "string"
        }
      ],
      "stateMutability": "view",
      "type": "function",
      "constant": true
    },
    {
      "inputs": [
        {
          "internalType": "address",
          "name": "_owner",
          "type": "address"
        }
      ],
      "name": "balanceOf",
      "outputs": [
        {
          "internalType": "uint256",
          "name": "",
          "type": "uint256"
        }
      ],
      "stateMutability": "view",
      "type": "function",
      "constant": true
    },
    {
      "inputs": [
        {
          "internalType": "uint256",
          "name": "tokenId",
          "type": "uint256"
        }
      ],
      "name": "ownerOf",
      "outputs": [
        {
          "internalType": "address",
          "name": "",
          "type": "address"
        }
      ],
      "stateMutability": "view",
      "type": "function",
      "constant": true
    },
    {
      "inputs": [
        {
          "internalType": "address",
          "name": "to",
          "type": "address"
        },
        {
          "internalType": "uint256",
          "name": "tokenId",
          "type": "uint256"
        }
      ],
      "name": "approve",
      "outputs": [],
      "stateMutability": "nonpayable",
      "type": "function"
    },
    {
      "inputs": [
        {
          "internalType": "uint256",
          "name": "tokenId",
          "type": "uint256"
        }
      ],
      "name": "getApproved",
      "outputs": [
        {
          "internalType": "address",
          "name": "",
          "type": "address"
        }
      ],
      "stateMutability": "view",
      "type": "function",
      "constant": true
    },
    {
      "inputs": [
        {
          "internalType": "address",
          "name": "operator",
          "type": "address"
        },
        {
          "internalType": "bool",
          "name": "approved",
          "type": "bool"
        }
      ],
      "name": "setApprovalForAll",
      "outputs": [],
      "stateMutability": "nonpayable",
      "type": "function"
    },
    {
      "inputs": [
        {
          "internalType": "address",
          "name": "_owner",
          "type": "address"
        },
        {
          "internalType": "address",
          "name": "operator",
          "type": "address"
        }
      ],
      "name": "isApprovedForAll",
      "outputs": [
        {
          "internalType": "bool",
          "name": "",
          "type": "bool"
        }
      ],
      "stateMutability": "view",
      "type": "function",
      "constant": true
    },
    {
      "inputs": [
        {
          "internalType": "address",
          "name": "from",
          "type": "address"
        },
        {
          "internalType": "address",
          "name": "to",
          "type": "address"
        },
        {
          "internalType": "uint256",
          "name": "tokenId",
          "type": "uint256"
        }
      ],
      "name": "transferFrom",
      "outputs": [],
      "stateMutability": "nonpayable",
      "type": "function"
    },
    {
      "inputs": [
        {
          "internalType": "address",
          "name": "from",
          "type": "address"
        },
        {
          "internalType": "address",
          "name": "to",
          "type": "address"
        },
        {
          "internalType": "uint256",
          "name": "tokenId",
          "type": "uint256"
        }
      ],
      "name": "safeTransferFrom",
      "outputs": [],
      "stateMutability": "nonpayable",
      "type": "function"
    },
    {
      "inputs": [
        {
          "internalType": "address",
          "name": "from",
          "type": "address"
        },
        {
          "internalType": "address",
          "name": "to",
          "type": "address"
        },
        {
          "internalType": "uint256",
          "name": "tokenId",
          "type": "uint256"
        },
        {
          "internalType": "bytes",
          "name": "data",
          "type": "bytes"
        }
      ],
      "name": "safeTransferFrom",
      "outputs": [],
      "stateMutability": "nonpayable",
      "type": "function"
    },
    {
      "inputs": [
        {
          "internalType": "address",
          "name": "to",
          "type": "address"
        },
        {
          "internalType": "string",
          "name": "_tokenURI",
          "type": "string"
        }
      ],
      "name": "mint",
      "outputs": [
        {
          "internalType": "uint256",
          "name": "",
          "type": "uint256"
        }
      ],
      "stateMutability": "nonpayable",
      "type": "function"
    },
    {
      "inputs": [
        {
          "internalType": "address",
          "name": "to",
          "type": "address"
        },
        {
          "internalType": "string",
          "name": "_tokenURI",
          "type": "string"
        }
      ],
      "name": "safeMint",
      "outputs": [
        {
          "internalType": "uint256",
          "name": "",
          "type": "uint256"
        }
      ],
      "stateMutability": "nonpayable",
      "type": "function"
    },
    {
      "inputs": [
        {
          "internalType": "address",
          "name": "to",
          "type": "address"
        },
        {
          "internalType": "string",
          "name": "_tokenURI",
          "type": "string"
        },
        {
          "internalType": "bytes",
          "name": "data",
          "type": "bytes"
        }
      ],
      "name": "safeMint",
      "outputs": [
        {
          "internalType": "uint256",
          "name": "",
          "type": "uint256"
        }
      ],
      "stateMutability": "nonpayable",
      "type": "function"
    },
    {
      "inputs": [
        {
          "internalType": "uint256",
          "name": "tokenId",
          "type": "uint256"
        }
      ],
      "name": "burn",
      "outputs": [],
      "stateMutability": "nonpayable",
      "type": "function"
    }
  ],
  "bytecode": "0x608060405260006009553480156200001657600080fd5b5060405162003b0038038062003b0083398181016040528101906200003c91906200033d565b33600460006101000a81548173ffffffffffffffffffffffffffffffffffffffff021916908373ffffffffffffffffffffffffffffffffffffffff16021790555081600690816200008e91906200060d565b508060079081620000a091906200060d565b50620000b4336001620000bc60201b60201c565b50506200079d565b600460009054906101000a900473ffffffffffffffffffffffffffffffffffffffff1673ffffffffffffffffffffffffffffffffffffffff163373ffffffffffffffffffffffffffffffffffffffff16146200014f576040517f08c379a000000000000000000000000000000000000000000000000000000000815260040162000146906200077b565b60405180910390fd5b80600560008473ffffffffffffffffffffffffffffffffffffffff1673ffffffffffffffffffffffffffffffffffffffff16815260200190815260200160002060006101000a81548160ff0219169083151502179055505050565b6000604051905090565b600080fd5b600080fd5b600080fd5b600080fd5b6000601f19601f8301169050919050565b7f4e487b7100000000000000000000000000000000000000000000000000000000600052604160045260246000fd5b6200021382620001c8565b810181811067ffffffffffffffff82111715620002355762000234620001d9565b5b80604052505050565b60006200024a620001aa565b905062000258828262000208565b919050565b600067ffffffffffffffff8211156200027b576200027a620001d9565b5b6200028682620001c8565b9050602081019050919050565b60005b83811015620002b357808201518184015260208101905062000296565b60008484015250505050565b6000620002d6620002d0846200025d565b6200023e565b905082815260208101848484011115620002f557620002f4620001c3565b5b6200030284828562000293565b509392505050565b600082601f830112620003225762000321620001be565b5b815162000334848260208601620002bf565b91505092915050565b60008060408385031215620003575762000356620001b4565b5b600083015167ffffffffffffffff811115620003785762000377620001b9565b5b62000386858286016200030a565b925050602083015167ffffffffffffffff811115620003aa57620003a9620001b9565b5b620003b8858286016200030a565b9150509250929050565b600081519050919050565b7f4e487b7100000000000000000000000000000000000000000000000000000000600052602260045260246000fd5b600060028204905060018216806200041557607f821691505b6020821081036200042b576200042a620003cd565b5b50919050565b60008190508160005260206000209050919050565b60006020601f8301049050919050565b600082821b905092915050565b600060088302620004957fffffffffffffffffffffffffffffffffffffffffffffffffffffffffffffffff8262000456565b620004a1868362000456565b95508019841693508086168417925050509392505050565b6000819050919050565b6000819050919050565b6000620004ee620004e8620004e284620004b9565b620004c3565b620004b9565b9050919050565b6000819050919050565b6200050a83620004cd565b620005226200051982620004f5565b84845462000463565b825550505050565b600090565b620005396200052a565b62000546818484620004ff565b505050565b5b818110156200056e57620005626000826200052f565b6001810190506200054c565b5050565b601f821115620005bd57620005878162000431565b620005928462000446565b81016020851015620005a2578190505b620005ba620005b18562000446565b8301826200054b565b50505b505050565b600082821c905092915050565b6000620005e260001984600802620005c2565b1980831691505092915050565b6000620005fd8383620005cf565b9150826002028217905092915050565b6200061882620003c2565b67ffffffffffffffff811115620006345762000633620001d9565b5b620006408254620003fc565b6200064d82828562000572565b600060209050601f83116001811462000685576000841562000670578287015190505b6200067c8582620005ef565b865550620006ec565b601f198416620006958662000431565b60005b82811015620006bf5784890151825560018201915060208501945060208101905062000698565b86831015620006df5784890151620006db601f891682620005cf565b8355505b6001600288020188555050505b505050505050565b600082825260208201905092915050565b7f4e6f61684e46543a206f6e6c79206f776e65722063616e20616464206d696e7460008201527f6572000000000000000000000000000000000000000000000000000000000000602082015250565b600062000763602283620006f4565b9150620007708262000705565b604082019050919050565b60006020820190508181036000830152620007968162000754565b9050919050565b61335380620007ad6000396000f3fe608060405234801561001057600080fd5b506004361061018d5760003560e01c806370a08231116100de578063b88d4fde11610097578063d204c45e11610071578063d204c45e146104de578063e985e9c51461050e578063f46eccc41461053e578063f6dda9361461056e5761018d565b8063b88d4fde14610462578063c87b56dd1461047e578063d0def521146104ae5761018d565b806370a082311461037a5780638da5cb5b146103aa57806395d89b41146103c8578063a22cb465146103e6578063aa271e1a14610402578063acdeb5b9146104325761018d565b80630d95e0541161014b57806328f836f21161012557806328f836f2146102f657806342842e0e1461031257806342966c681461032e5780636352211e1461034a5761018d565b80630d95e0541461027a57806323b872dd146102aa57806327e235e3146102c65761018d565b80629a9b7b1461019257806301ffc9a7146101b0578063025e7c27146101e057806306fdde0314610210578063081812fc1461022e578063095ea7b31461025e575b600080fd5b61019a61059e565b6040516101a79190611e90565b60405180910390f35b6101ca60048036038101906101c59190611f17565b6105a4565b6040516101d79190611f5f565b60405180910390f35b6101fa60048036038101906101f59190611fa6565b6106de565b6040516102079190612014565b60405180910390f35b610218610711565b60405161022591906120bf565b60405180910390f35b61024860048036038101906102439190611fa6565b6107a3565b6040516102559190612014565b60405180910390f35b6102786004803603810190610273919061210d565b610887565b005b610294600480360381019061028f919061214d565b610b85565b6040516102a19190611f5f565b60405180910390f35b6102c460048036038101906102bf919061218d565b610bb4565b005b6102e060048036038101906102db91906121e0565b610bc4565b6040516102ed9190611e90565b60405180910390f35b610310600480360381019061030b9190612239565b610bdc565b005b61032c6004803603810190610327919061218d565b610cc7565b005b61034860048036038101906103439190611fa6565b610ce7565b005b610364600480360381019061035f9190611fa6565b610d69565b6040516103719190612014565b60405180910390f35b610394600480360381019061038f91906121e0565b610d7b565b6040516103a19190611e90565b60405180910390f35b6103b2610e31565b6040516103bf9190612014565b60405180910390f35b6103d0610e57565b6040516103dd91906120bf565b60405180910390f35b61040060048036038101906103fb9190612239565b610ee9565b005b61041c600480360381019061041791906121e0565b6110c3565b6040516104299190611f5f565b60405180910390f35b61044c60048036038101906104479190611fa6565b611187565b6040516104599190612014565b60405180910390f35b61047c600480360381019061047791906122de565b6111ba565b005b61049860048036038101906104939190611fa6565b611211565b6040516104a591906120bf565b60405180910390f35b6104c860048036038101906104c39190612496565b6112b6565b6040516104d59190611e90565b60405180910390f35b6104f860048036038101906104f39190612548565b6112ca565b6040516105059190611e90565b60405180910390f35b6105286004803603810190610523919061214d565b611333565b6040516105359190611f5f565b60405180910390f35b610558600480360381019061055391906121e0565b6114a4565b6040516105659190611f5f565b60405180910390f35b610588600480360381019061058391906125a8565b6114c4565b6040516105959190611e90565b60405180910390f35b60095481565b60007f80ac58cd000000000000000000000000000000000000000000000000000000007bffffffffffffffffffffffffffffffffffffffffffffffffffffffff1916827bffffffffffffffffffffffffffffffffffffffffffffffffffffffff1916148061066f57507f5b5e139f000000000000000000000000000000000000000000000000000000007bffffffffffffffffffffffffffffffffffffffffffffffffffffffff1916827bffffffffffffffffffffffffffffffffffffffffffffffffffffffff1916145b806106d757507f01ffc9a7000000000000000000000000000000000000000000000000000000007bffffffffffffffffffffffffffffffffffffffffffffffffffffffff1916827bffffffffffffffffffffffffffffffffffffffffffffffffffffffff1916145b9050919050565b60016020528060005260406000206000915054906101000a900473ffffffffffffffffffffffffffffffffffffffff1681565b6060600680546107209061266c565b80601f016020809104026020016040519081016040528092919081815260200182805461074c9061266c565b80156107995780601f1061076e57610100808354040283529160200191610799565b820191906000526020600020905b81548152906001019060200180831161077c57829003601f168201915b5050505050905090565b6000806001600084815260200190815260200160002060009054906101000a900473ffffffffffffffffffffffffffffffffffffffff169050600073ffffffffffffffffffffffffffffffffffffffff168173ffffffffffffffffffffffffffffffffffffffff160361084b576040517f08c379a00000000000000000000000000000000000000000000000000000000081526004016108429061270f565b60405180910390fd5b6002600084815260200190815260200160002060009054906101000a900473ffffffffffffffffffffffffffffffffffffffff16915050919050565b60006001600083815260200190815260200160002060009054906101000a900473ffffffffffffffffffffffffffffffffffffffff1690508073ffffffffffffffffffffffffffffffffffffffff163373ffffffffffffffffffffffffffffffffffffffff1614806108ff57506108fe8133611333565b5b61093e576040517f08c379a0000000000000000000000000000000000000000000000000000000008152600401610935906127a1565b60405180910390fd5b3373ffffffffffffffffffffffffffffffffffffffff168173ffffffffffffffffffffffffffffffffffffffff16146109ac576040517f08c379a00000000000000000000000000000000000000000000000000000000081526004016109a3906127a1565b60405180910390fd5b600073ffffffffffffffffffffffffffffffffffffffff168373ffffffffffffffffffffffffffffffffffffffff1603610a1b576040517f08c379a0000000000000000000000000000000000000000000000000000000008152600401610a1290612833565b60405180910390fd5b8273ffffffffffffffffffffffffffffffffffffffff168173ffffffffffffffffffffffffffffffffffffffff1603610a89576040517f08c379a0000000000000000000000000000000000000000000000000000000008152600401610a809061289f565b60405180910390fd5b610a938184611333565b15610ad3576040517f08c379a0000000000000000000000000000000000000000000000000000000008152600401610aca906127a1565b60405180910390fd5b826002600084815260200190815260200160002060006101000a81548173ffffffffffffffffffffffffffffffffffffffff021916908373ffffffffffffffffffffffffffffffffffffffff160217905550818373ffffffffffffffffffffffffffffffffffffffff168273ffffffffffffffffffffffffffffffffffffffff167f8c5be1e5ebec7d5bd14f71427d1e84f3dd0314c0f7b2291e5b200ac8c7c3b92560405160405180910390a4505050565b60036020528160005260406000206020528060005260406000206000915091509054906101000a900460ff1681565b610bbf838383611564565b505050565b60006020528060005260406000206000915090505481565b600460009054906101000a900473ffffffffffffffffffffffffffffffffffffffff1673ffffffffffffffffffffffffffffffffffffffff163373ffffffffffffffffffffffffffffffffffffffff1614610c6c576040517f08c379a0000000000000000000000000000000000000000000000000000000008152600401610c6390612931565b60405180910390fd5b80600560008473ffffffffffffffffffffffffffffffffffffffff1673ffffffffffffffffffffffffffffffffffffffff16815260200190815260200160002060006101000a81548160ff0219169083151502179055505050565b610ce2838383604051806020016040528060008152506117df565b505050565b610cf08161183a565b73ffffffffffffffffffffffffffffffffffffffff163373ffffffffffffffffffffffffffffffffffffffff1614610d5d576040517f08c379a0000000000000000000000000000000000000000000000000000000008152600401610d549061299d565b60405180910390fd5b610d66816118eb565b50565b6000610d748261183a565b9050919050565b60008073ffffffffffffffffffffffffffffffffffffffff168273ffffffffffffffffffffffffffffffffffffffff1603610deb576040517f08c379a0000000000000000000000000000000000000000000000000000000008152600401610de290612a2f565b60405180910390fd5b6000808373ffffffffffffffffffffffffffffffffffffffff1673ffffffffffffffffffffffffffffffffffffffff168152602001908152602001600020549050919050565b600460009054906101000a900473ffffffffffffffffffffffffffffffffffffffff1681565b606060078054610e669061266c565b80601f0160208091040260200160405190810160405280929190818152602001828054610e929061266c565b8015610edf5780601f10610eb457610100808354040283529160200191610edf565b820191906000526020600020905b815481529060010190602001808311610ec257829003601f168201915b5050505050905090565b600073ffffffffffffffffffffffffffffffffffffffff168273ffffffffffffffffffffffffffffffffffffffff1603610f58576040517f08c379a0000000000000000000000000000000000000000000000000000000008152600401610f4f90612833565b60405180910390fd5b3373ffffffffffffffffffffffffffffffffffffffff168273ffffffffffffffffffffffffffffffffffffffff1603610fc6576040517f08c379a0000000000000000000000000000000000000000000000000000000008152600401610fbd9061289f565b60405180910390fd5b80600360003373ffffffffffffffffffffffffffffffffffffffff1673ffffffffffffffffffffffffffffffffffffffff16815260200190815260200160002060008473ffffffffffffffffffffffffffffffffffffffff1673ffffffffffffffffffffffffffffffffffffffff16815260200190815260200160002060006101000a81548160ff0219169083151502179055508173ffffffffffffffffffffffffffffffffffffffff163373ffffffffffffffffffffffffffffffffffffffff167f17307eab39ab6107e8899845ad3d59bd9653f200f220920489ca2b5937696c31836040516110b79190611f5f565b60405180910390a35050565b60008073ffffffffffffffffffffffffffffffffffffffff168273ffffffffffffffffffffffffffffffffffffffff1603611133576040517f08c379a000000000000000000000000000000000000000000000000000000000815260040161112a90612ac1565b60405180910390fd5b600560008373ffffffffffffffffffffffffffffffffffffffff1673ffffffffffffffffffffffffffffffffffffffff16815260200190815260200160002060009054906101000a900460ff169050919050565b60026020528060005260406000206000915054906101000a900473ffffffffffffffffffffffffffffffffffffffff1681565b61120a85858585858080601f016020809104026020016040519081016040528093929190818152602001838380828437600081840152601f19601f820116905080830192505050505050506117df565b5050505050565b60606008600083815260200190815260200160002080546112319061266c565b80601f016020809104026020016040519081016040528092919081815260200182805461125d9061266c565b80156112aa5780601f1061127f576101008083540402835291602001916112aa565b820191906000526020600020905b81548152906001019060200180831161128d57829003601f168201915b50505050509050919050565b60006112c28383611902565b905092915050565b600061132a8484848080601f016020809104026020016040519081016040528093929190818152602001838380828437600081840152601f19601f8201169050808301925050505050505060405180602001604052806000815250611a9a565b90509392505050565b60008073ffffffffffffffffffffffffffffffffffffffff168373ffffffffffffffffffffffffffffffffffffffff16036113a3576040517f08c379a000000000000000000000000000000000000000000000000000000000815260040161139a90612b53565b60405180910390fd5b600073ffffffffffffffffffffffffffffffffffffffff168273ffffffffffffffffffffffffffffffffffffffff1603611412576040517f08c379a000000000000000000000000000000000000000000000000000000000815260040161140990612b53565b60405180910390fd5b600360008473ffffffffffffffffffffffffffffffffffffffff1673ffffffffffffffffffffffffffffffffffffffff16815260200190815260200160002060008373ffffffffffffffffffffffffffffffffffffffff1673ffffffffffffffffffffffffffffffffffffffff16815260200190815260200160002060009054906101000a900460ff16905092915050565b60056020528060005260406000206000915054906101000a900460ff1681565b60006115598686868080601f016020809104026020016040519081016040528093929190818152602001838380828437600081840152601f19601f8201169050808301925050505050505085858080601f016020809104026020016040519081016040528093929190818152602001838380828437600081840152601f19601f82011690508083019250505050505050611a9a565b905095945050505050565b60006001600083815260200190815260200160002060009054906101000a900473ffffffffffffffffffffffffffffffffffffffff1690508373ffffffffffffffffffffffffffffffffffffffff168173ffffffffffffffffffffffffffffffffffffffff161461160a576040517f08c379a000000000000000000000000000000000000000000000000000000000815260040161160190612be5565b60405180910390fd5b600073ffffffffffffffffffffffffffffffffffffffff168373ffffffffffffffffffffffffffffffffffffffff1603611679576040517f08c379a000000000000000000000000000000000000000000000000000000000815260040161167090612c77565b60405180910390fd5b3373ffffffffffffffffffffffffffffffffffffffff168173ffffffffffffffffffffffffffffffffffffffff1614806116b957506116b88133611333565b5b8061172257503373ffffffffffffffffffffffffffffffffffffffff166002600084815260200190815260200160002060009054906101000a900473ffffffffffffffffffffffffffffffffffffffff1673ffffffffffffffffffffffffffffffffffffffff16145b611761576040517f08c379a000000000000000000000000000000000000000000000000000000000815260040161175890612d09565b60405180910390fd5b61176a82611afa565b6117748483611b9b565b61177e8383611c2b565b818373ffffffffffffffffffffffffffffffffffffffff168573ffffffffffffffffffffffffffffffffffffffff167fddf252ad1be2c89b69c2b068fc378daa952ba7f163c4a11628f55a4df523b3ef60405160405180910390a450505050565b6117ea848484611564565b6117f5848483611cd7565b611834576040517f08c379a000000000000000000000000000000000000000000000000000000000815260040161182b90612d9b565b60405180910390fd5b50505050565b6000806001600084815260200190815260200160002060009054906101000a900473ffffffffffffffffffffffffffffffffffffffff169050600073ffffffffffffffffffffffffffffffffffffffff168173ffffffffffffffffffffffffffffffffffffffff16036118e2576040517f08c379a00000000000000000000000000000000000000000000000000000000081526004016118d990612e2d565b60405180910390fd5b80915050919050565b6118ff6118f78261183a565b600083611564565b50565b6000600560003373ffffffffffffffffffffffffffffffffffffffff1673ffffffffffffffffffffffffffffffffffffffff16815260200190815260200160002060009054906101000a900460ff16611990576040517f08c379a000000000000000000000000000000000000000000000000000000000815260040161198790612e99565b60405180910390fd5b600073ffffffffffffffffffffffffffffffffffffffff168373ffffffffffffffffffffffffffffffffffffffff16036119ff576040517f08c379a00000000000000000000000000000000000000000000000000000000081526004016119f690612f05565b60405180910390fd5b600160096000828254611a129190612f54565b92505081905550611a2583600954611c2b565b6009548373ffffffffffffffffffffffffffffffffffffffff16600073ffffffffffffffffffffffffffffffffffffffff167fddf252ad1be2c89b69c2b068fc378daa952ba7f163c4a11628f55a4df523b3ef60405160405180910390a4611a8f60095483611e52565b600954905092915050565b6000611aa860008584611cd7565b611ae7576040517f08c379a0000000000000000000000000000000000000000000000000000000008152600401611ade90612d9b565b60405180910390fd5b611af18484611902565b90509392505050565b600073ffffffffffffffffffffffffffffffffffffffff166002600083815260200190815260200160002060009054906101000a900473ffffffffffffffffffffffffffffffffffffffff1673ffffffffffffffffffffffffffffffffffffffff1614611b98576002600082815260200190815260200160002060006101000a81549073ffffffffffffffffffffffffffffffffffffffff02191690555b50565b60016000808473ffffffffffffffffffffffffffffffffffffffff1673ffffffffffffffffffffffffffffffffffffffff1681526020019081526020016000206000828254611bea9190612f88565b925050819055506001600082815260200190815260200160002060006101000a81549073ffffffffffffffffffffffffffffffffffffffff02191690555050565b60016000808473ffffffffffffffffffffffffffffffffffffffff1673ffffffffffffffffffffffffffffffffffffffff1681526020019081526020016000206000828254611c7a9190612f54565b92505081905550816001600083815260200190815260200160002060006101000a81548173ffffffffffffffffffffffffffffffffffffffff021916908373ffffffffffffffffffffffffffffffffffffffff1602179055505050565b6000808373ffffffffffffffffffffffffffffffffffffffff163b03611d005760019050611e4b565b8273ffffffffffffffffffffffffffffffffffffffff1663150b7a023386600954866040518563ffffffff1660e01b8152600401611d419493929190613011565b6020604051808303816000875af1925050508015611d7d57506040513d601f19601f82011682018060405250810190611d7a9190613072565b60015b611dff573d8060008114611dad576040519150601f19603f3d011682016040523d82523d6000602084013e611db2565b606091505b506000815103611df7576040517f08c379a0000000000000000000000000000000000000000000000000000000008152600401611dee90612d9b565b60405180910390fd5b805181602001fd5b63150b7a0260e01b7bffffffffffffffffffffffffffffffffffffffffffffffffffffffff1916817bffffffffffffffffffffffffffffffffffffffffffffffffffffffff1916149150505b9392505050565b80600860008481526020019081526020016000209081611e72919061324b565b505050565b6000819050919050565b611e8a81611e77565b82525050565b6000602082019050611ea56000830184611e81565b92915050565b6000604051905090565b600080fd5b600080fd5b60007fffffffff0000000000000000000000000000000000000000000000000000000082169050919050565b611ef481611ebf565b8114611eff57600080fd5b50565b600081359050611f1181611eeb565b92915050565b600060208284031215611f2d57611f2c611eb5565b5b6000611f3b84828501611f02565b91505092915050565b60008115159050919050565b611f5981611f44565b82525050565b6000602082019050611f746000830184611f50565b92915050565b611f8381611e77565b8114611f8e57600080fd5b50565b600081359050611fa081611f7a565b92915050565b600060208284031215611fbc57611fbb611eb5565b5b6000611fca84828501611f91565b91505092915050565b600073ffffffffffffffffffffffffffffffffffffffff82169050919050565b6000611ffe82611fd3565b9050919050565b61200e81611ff3565b82525050565b60006020820190506120296000830184612005565b92915050565b600081519050919050565b600082825260208201905092915050565b60005b8381101561206957808201518184015260208101905061204e565b60008484015250505050565b6000601f19601f8301169050919050565b60006120918261202f565b61209b818561203a565b93506120ab81856020860161204b565b6120b481612075565b840191505092915050565b600060208201905081810360008301526120d98184612086565b905092915050565b6120ea81611ff3565b81146120f557600080fd5b50565b600081359050612107816120e1565b92915050565b6000806040838503121561212457612123611eb5565b5b6000612132858286016120f8565b925050602061214385828601611f91565b9150509250929050565b6000806040838503121561216457612163611eb5565b5b6000612172858286016120f8565b9250506020612183858286016120f8565b9150509250929050565b6000806000606084860312156121a6576121a5611eb5565b5b60006121b4868287016120f8565b93505060206121c5868287016120f8565b92505060406121d686828701611f91565b9150509250925092565b6000602082840312156121f6576121f5611eb5565b5b6000612204848285016120f8565b91505092915050565b61221681611f44565b811461222157600080fd5b50565b6000813590506122338161220d565b92915050565b600080604083850312156122505761224f611eb5565b5b600061225e858286016120f8565b925050602061226f85828601612224565b9150509250929050565b600080fd5b600080fd5b600080fd5b60008083601f84011261229e5761229d612279565b5b8235905067ffffffffffffffff8111156122bb576122ba61227e565b5b6020830191508360018202830111156122d7576122d6612283565b5b9250929050565b6000806000806000608086880312156122fa576122f9611eb5565b5b6000612308888289016120f8565b9550506020612319888289016120f8565b945050604061232a88828901611f91565b935050606086013567ffffffffffffffff81111561234b5761234a611eba565b5b61235788828901612288565b92509250509295509295909350565b600080fd5b7f4e487b7100000000000000000000000000000000000000000000000000000000600052604160045260246000fd5b6123a382612075565b810181811067ffffffffffffffff821117156123c2576123c161236b565b5b80604052505050565b60006123d5611eab565b90506123e1828261239a565b919050565b600067ffffffffffffffff8211156124015761240061236b565b5b61240a82612075565b9050602081019050919050565b82818337600083830152505050565b6000612439612434846123e6565b6123cb565b90508281526020810184848401111561245557612454612366565b5b612460848285612417565b509392505050565b600082601f83011261247d5761247c612279565b5b813561248d848260208601612426565b91505092915050565b600080604083850312156124ad576124ac611eb5565b5b60006124bb858286016120f8565b925050602083013567ffffffffffffffff8111156124dc576124db611eba565b5b6124e885828601612468565b9150509250929050565b60008083601f84011261250857612507612279565b5b8235905067ffffffffffffffff8111156125255761252461227e565b5b60208301915083600182028301111561254157612540612283565b5b9250929050565b60008060006040848603121561256157612560611eb5565b5b600061256f868287016120f8565b935050602084013567ffffffffffffffff8111156125905761258f611eba565b5b61259c868287016124f2565b92509250509250925092565b6000806000806000606086880312156125c4576125c3611eb5565b5b60006125d2888289016120f8565b955050602086013567ffffffffffffffff8111156125f3576125f2611eba565b5b6125ff888289016124f2565b9450945050604086013567ffffffffffffffff81111561262257612621611eba565b5b61262e88828901612288565b92509250509295509295909350565b7f4e487b7100000000000000000000000000000000000000000000000000000000600052602260045260246000fd5b6000600282049050600182168061268457607f821691505b6020821081036126975761269661263d565b5b50919050565b7f4552433732313a20617070726f76656420717565727920666f72206e6f6e657860008201527f697374656e7420746f6b656e0000000000000000000000000000000000000000602082015250565b60006126f9602c8361203a565b91506127048261269d565b604082019050919050565b60006020820190508181036000830152612728816126ec565b9050919050565b7f4552433732313a20617070726f76652063616c6c6572206973206e6f74206f7760008201527f6e6572206e6f7220617070726f76656420666f7220616c6c0000000000000000602082015250565b600061278b60388361203a565b91506127968261272f565b604082019050919050565b600060208201905081810360008301526127ba8161277e565b9050919050565b7f4552433732313a20617070726f766520746f20746865207a65726f206164647260008201527f6573730000000000000000000000000000000000000000000000000000000000602082015250565b600061281d60238361203a565b9150612828826127c1565b604082019050919050565b6000602082019050818103600083015261284c81612810565b9050919050565b7f4552433732313a20617070726f766520746f2063616c6c657200000000000000600082015250565b600061288960198361203a565b915061289482612853565b602082019050919050565b600060208201905081810360008301526128b88161287c565b9050919050565b7f4e6f61684e46543a206f6e6c79206f776e65722063616e20616464206d696e7460008201527f6572000000000000000000000000000000000000000000000000000000000000602082015250565b600061291b60228361203a565b9150612926826128bf565b604082019050919050565b6000602082019050818103600083015261294a8161290e565b9050919050565b7f4552433732313a2063616c6c6572206973206e6f7420746865206f776e657200600082015250565b6000612987601f8361203a565b915061299282612951565b602082019050919050565b600060208201905081810360008301526129b68161297a565b9050919050565b7f4552433732313a2062616c616e636520717565727920666f7220746865207a6560008201527f726f206164647265737300000000000000000000000000000000000000000000602082015250565b6000612a19602a8361203a565b9150612a24826129bd565b604082019050919050565b60006020820190508181036000830152612a4881612a0c565b9050919050565b7f4e6f61684e46543a206d696e74657220697320746865207a65726f206164647260008201527f6573730000000000000000000000000000000000000000000000000000000000602082015250565b6000612aab60238361203a565b9150612ab682612a4f565b604082019050919050565b60006020820190508181036000830152612ada81612a9e565b9050919050565b7f4552433732313a206f70657261746f7220717565727920666f72206e6f6e657860008201527f697374656e7420746f6b656e0000000000000000000000000000000000000000602082015250565b6000612b3d602c8361203a565b9150612b4882612ae1565b604082019050919050565b60006020820190508181036000830152612b6c81612b30565b9050919050565b7f4552433732313a207472616e73666572206f6620746f6b656e2074686174206960008201527f73206e6f74206f776e0000000000000000000000000000000000000000000000602082015250565b6000612bcf60298361203a565b9150612bda82612b73565b604082019050919050565b60006020820190508181036000830152612bfe81612bc2565b9050919050565b7f4552433732313a207472616e7366657220746f20746865207a65726f2061646460008201527f7265737300000000000000000000000000000000000000000000000000000000602082015250565b6000612c6160248361203a565b9150612c6c82612c05565b604082019050919050565b60006020820190508181036000830152612c9081612c54565b9050919050565b7f4552433732313a207472616e736665722063616c6c6572206973206e6f74206f60008201527f776e6572206e6f7220617070726f76656420666f7220616c6c00000000000000602082015250565b6000612cf360398361203a565b9150612cfe82612c97565b604082019050919050565b60006020820190508181036000830152612d2281612ce6565b9050919050565b7f4552433732313a207472616e7366657220746f206e6f6e20455243373231526560008201527f63656976657220696d706c656d656e7465720000000000000000000000000000602082015250565b6000612d8560328361203a565b9150612d9082612d29565b604082019050919050565b60006020820190508181036000830152612db481612d78565b9050919050565b7f4552433732313a206f776e657220717565727920666f72206e6f6e657869737460008201527f656e7420746f6b656e0000000000000000000000000000000000000000000000602082015250565b6000612e1760298361203a565b9150612e2282612dbb565b604082019050919050565b60006020820190508181036000830152612e4681612e0a565b9050919050565b7f4552433732313a2063616c6c6572206973206e6f7420746865206d696e746572600082015250565b6000612e8360208361203a565b9150612e8e82612e4d565b602082019050919050565b60006020820190508181036000830152612eb281612e76565b9050919050565b7f4552433732313a206d696e7420746f20746865207a65726f2061646472657373600082015250565b6000612eef60208361203a565b9150612efa82612eb9565b602082019050919050565b60006020820190508181036000830152612f1e81612ee2565b9050919050565b7f4e487b7100000000000000000000000000000000000000000000000000000000600052601160045260246000fd5b6000612f5f82611e77565b9150612f6a83611e77565b9250828201905080821115612f8257612f81612f25565b5b92915050565b6000612f9382611e77565b9150612f9e83611e77565b9250828203905081811115612fb657612fb5612f25565b5b92915050565b600081519050919050565b600082825260208201905092915050565b6000612fe382612fbc565b612fed8185612fc7565b9350612ffd81856020860161204b565b61300681612075565b840191505092915050565b60006080820190506130266000830187612005565b6130336020830186612005565b6130406040830185611e81565b81810360608301526130528184612fd8565b905095945050505050565b60008151905061306c81611eeb565b92915050565b60006020828403121561308857613087611eb5565b5b60006130968482850161305d565b91505092915050565b60008190508160005260206000209050919050565b60006020601f8301049050919050565b600082821b905092915050565b6000600883026131017fffffffffffffffffffffffffffffffffffffffffffffffffffffffffffffffff826130c4565b61310b86836130c4565b95508019841693508086168417925050509392505050565b6000819050919050565b600061314861314361313e84611e77565b613123565b611e77565b9050919050565b6000819050919050565b6131628361312d565b61317661316e8261314f565b8484546130d1565b825550505050565b600090565b61318b61317e565b613196818484613159565b505050565b5b818110156131ba576131af600082613183565b60018101905061319c565b5050565b601f8211156131ff576131d08161309f565b6131d9846130b4565b810160208510156131e8578190505b6131fc6131f4856130b4565b83018261319b565b50505b505050565b600082821c905092915050565b600061322260001984600802613204565b1980831691505092915050565b600061323b8383613211565b9150826002028217905092915050565b6132548261202f565b67ffffffffffffffff81111561326d5761326c61236b565b5b613277825461266c565b6132828282856131be565b600060209050601f8311600181146132b557600084156132a3578287015190505b6132ad858261322f565b865550613315565b601f1984166132c38661309f565b60005b828110156132eb578489015182556001820191506020850194506020810190506132c6565b868310156133085784890151613304601f891682613211565b8355505b6001600288020188555050505b50505050505056fea264697066735822122063845fb5b8ce2ed5a02b2e823c16843b61d6b56117b1c35389f1ec7ac4ccb21464736f6c63430008110033",
  "immutableReferences": {},
  "source": "// SPDX-License-Identifier: MIT\n\npragma solidity ^0.8.0;\n\nimport \"./IERC721.sol\";\nimport \"./IERC165.sol\";\n\ncontract NoahNFT is IERC721, IERC721Metadata, IERC165 {\n    mapping(address => uint256) public balances; //   NFT  =>  NFT \n    mapping(uint256 => address) public owners; //   NFT id =>  NFT \n    mapping(uint256 => address) public tokenApprovals; //  NFT id =>  NFT \n    mapping(address => mapping(address => bool)) public operatorApprovals; //  NFT   NFT  =>  => \n    address public owner; // \n    mapping(address => bool) public minters; // NFT  NFT\n    string private _name; //  NFT \n    string private _symbol; //  NFT \n    mapping(uint256 => string) private _tokenURIs; //  NFT   NFT id => \n    uint256 public currentTokenId = 0; //  NFT id\n\n    // \n    constructor(string memory initName, string memory initSymbol) {\n        owner = msg.sender;\n        _name = initName;\n        _symbol = initSymbol;\n        approveMinter(msg.sender, true); //  NFT \n    }\n\n    // \n    function approveMinter(address minter, bool approved) public {\n        require(msg.sender == owner, \"NoahNFT: only owner can add minter\");\n        minters[minter] = approved;\n    }\n\n    //  NFT \n    function isMinter(address minter) public view returns (bool) {\n        require(minter != address(0), \"NoahNFT: minter is the zero address\");\n        return minters[minter];\n    }\n\n    // \n    function supportsInterface(bytes4 interfaceId)\n        public\n        pure\n        override\n        returns (bool)\n    {\n        return\n            interfaceId == type(IERC721).interfaceId ||\n            interfaceId == type(IERC721Metadata).interfaceId ||\n            interfaceId == type(IERC165).interfaceId;\n    }\n\n    //  NFT \n    function name() public view override returns (string memory) {\n        return _name;\n    }\n\n    //  NFT \n    function symbol() public view override returns (string memory) {\n        return _symbol;\n    }\n\n    //  NFT  MetadataURI\n    function tokenURI(uint256 tokenId)\n        public\n        view\n        override\n        returns (string memory)\n    {\n        return _tokenURIs[tokenId];\n    }\n\n    //  NFT \n    function balanceOf(address _owner) public view override returns (uint256) {\n        //  NFT 0\n        require(\n            _owner != address(0),\n            \"ERC721: balance query for the zero address\"\n        );\n        return balances[_owner];\n    }\n\n    //  NFT \n    function ownerOf(uint256 tokenId) public view override returns (address) {\n        return _ownerOf(tokenId);\n    }\n\n    //  NFT  \n    function _ownerOf(uint256 tokenId) internal view returns (address) {\n        address tokenOwner = owners[tokenId];\n        //  NFT 0\n        require(\n            tokenOwner != address(0),\n            \"ERC721: owner query for nonexistent token\"\n        );\n        return tokenOwner;\n    }\n\n    //  NFT\n    function approve(address to, uint256 tokenId) public override {\n        address tokenOwner = owners[tokenId]; //  NFT \n        //  NFT  NFT  NFT \n        require(\n            msg.sender == tokenOwner ||\n                isApprovedForAll(tokenOwner, msg.sender),\n            \"ERC721: approve caller is not owner nor approved for all\"\n        );\n        // NFT  NFT \n        require(\n            tokenOwner == msg.sender,\n            \"ERC721: approve caller is not owner nor approved for all\"\n        );\n        // 0\n        require(to != address(0), \"ERC721: approve to the zero address\");\n        // \n        require(tokenOwner != to, \"ERC721: approve to caller\");\n        //  NFT \n        require(\n            !isApprovedForAll(tokenOwner, to),\n            \"ERC721: approve caller is not owner nor approved for all\"\n        );\n        //  NFT \n        tokenApprovals[tokenId] = to;\n        // \n        emit Approval(tokenOwner, to, tokenId);\n    }\n\n    //  NFT \n    function getApproved(uint256 tokenId)\n        public\n        view\n        override\n        returns (address)\n    {\n        address tokenOwner = owners[tokenId]; //  NFT \n        //  NFT 0\n        require(\n            tokenOwner != address(0),\n            \"ERC721: approved query for nonexistent token\"\n        );\n        return tokenApprovals[tokenId];\n    }\n\n    //  NFT\n    function setApprovalForAll(address operator, bool approved)\n        public\n        override\n    {\n        // 0\n        require(operator != address(0), \"ERC721: approve to the zero address\");\n        // \n        require(operator != msg.sender, \"ERC721: approve to caller\");\n        //  NFT \n        operatorApprovals[msg.sender][operator] = approved;\n        //  NFT \n        emit ApprovalForAll(msg.sender, operator, approved);\n    }\n\n    //  NFT  NFT \n    function isApprovedForAll(address _owner, address operator)\n        public\n        view\n        override\n        returns (bool)\n    {\n        //  NFT 0\n        require(\n            _owner != address(0),\n            \"ERC721: operator query for nonexistent token\"\n        );\n        // 0\n        require(\n            operator != address(0),\n            \"ERC721: operator query for nonexistent token\"\n        );\n        return operatorApprovals[_owner][operator];\n    }\n\n    //  NFT\n    function transferFrom(\n        address from,\n        address to,\n        uint256 tokenId\n    ) public override {\n        _transfer(from, to, tokenId);\n    }\n\n    //  NFT\n    function _transfer(\n        address from,\n        address to,\n        uint256 tokenId\n    ) internal {\n        address tokenOwner = owners[tokenId]; //  NFT \n        // from  NFT \n        require(\n            tokenOwner == from,\n            \"ERC721: transfer of token that is not own\"\n        );\n        // 0\n        require(to != address(0), \"ERC721: transfer to the zero address\");\n        //  NFT  NFT  NFT  NFT  NFT \n        require(\n            tokenOwner == msg.sender ||\n                isApprovedForAll(tokenOwner, msg.sender) ||\n                tokenApprovals[tokenId] == msg.sender,\n            \"ERC721: transfer caller is not owner nor approved for all\"\n        );\n        //  NFT \n        _clearApproval(tokenId);\n        //  NFT \n        _removeTokenFrom(from, tokenId);\n        //  NFT\n        _addTokenTo(to, tokenId);\n        //  NFT \n        emit Transfer(from, to, tokenId);\n    }\n\n    //  NFT \n    function _clearApproval(uint256 tokenId) internal {\n        //  NFT \n        if (tokenApprovals[tokenId] != address(0)) {\n            delete tokenApprovals[tokenId];\n        }\n    }\n\n    //  NFT \n    function _removeTokenFrom(address from, uint256 tokenId) internal {\n        //  NFT \n        balances[from] -= 1;\n        //  NFT  NFT\n        delete owners[tokenId];\n    }\n\n    //  NFT\n    function _addTokenTo(address to, uint256 tokenId) internal {\n        //  NFT \n        balances[to] += 1;\n        //  NFT  NFT \n        owners[tokenId] = to;\n    }\n\n    //  NFT\n    function _checkOnERC721Received(\n        address from,\n        address to,\n        bytes memory _data\n    ) internal returns (bool) {\n        // \n        if (to.code.length == 0) {\n            return true;\n        }\n        //  onERC721Received \n        try\n            IERC721Receiver(to).onERC721Received(\n                msg.sender,\n                from,\n                currentTokenId,\n                _data\n            )\n        returns (bytes4 retval) {\n            //  ERC721_RECEIVED \n            return retval == IERC721Receiver(to).onERC721Received.selector;\n        } catch (bytes memory reason) {\n            // \n            if (reason.length == 0) {\n                revert(\"ERC721: transfer to non ERC721Receiver implementer\");\n            } else {\n                assembly {\n                    revert(add(32, reason), mload(reason))\n                }\n            }\n        }\n    }\n\n    //  NFT   data \n    function safeTransferFrom(\n        address from,\n        address to,\n        uint256 tokenId\n    ) public override {\n        //  NFT\n        _safeTransfer(from, to, tokenId, \"\");\n    }\n\n    //  NFT   data \n    function safeTransferFrom(\n        address from,\n        address to,\n        uint256 tokenId,\n        bytes calldata data\n    ) public override {\n        _safeTransfer(from, to, tokenId, data);\n    }\n\n    //  NFT  \n    function _safeTransfer(\n        address from,\n        address to,\n        uint256 tokenId,\n        bytes memory data\n    ) internal {\n        //  NFT\n        _transfer(from, to, tokenId);\n        //  NFT\n        require(\n            _checkOnERC721Received(from, to, data),\n            \"ERC721: transfer to non ERC721Receiver implementer\"\n        );\n    }\n\n    //  NFT\n    function mint(address to, string memory _tokenURI)\n        public\n        returns (uint256)\n    {\n        //  NFT\n        return _mint(to, _tokenURI);\n    }\n\n    //  NFT   data \n    function safeMint(address to, string calldata _tokenURI)\n        public\n        returns (uint256)\n    {\n        return _safeMint(to, _tokenURI, \"\");\n    }\n\n    //  NFT   data \n    function safeMint(\n        address to,\n        string calldata _tokenURI,\n        bytes calldata data\n    ) public returns (uint256) {\n        return _safeMint(to, _tokenURI, data);\n    }\n\n    //  NFT  \n    function _mint(address to, string memory _tokenURI)\n        internal\n        returns (uint256)\n    {\n        // \n        require(minters[msg.sender], \"ERC721: caller is not the minter\");\n        // 0\n        require(to != address(0), \"ERC721: mint to the zero address\");\n\n        //  NFT ID\n        currentTokenId += 1;\n\n        //  NFT\n        _addTokenTo(to, currentTokenId);\n        //  NFT \n        emit Transfer(address(0), to, currentTokenId);\n\n        //  Token URI\n        _setTokenURI(currentTokenId, _tokenURI);\n\n        //  NFT ID\n        return currentTokenId;\n    }\n\n    //  Token URI \n    function _setTokenURI(uint256 tokenId, string memory _tokenURI) internal {\n        //  Token URI\n        _tokenURIs[tokenId] = _tokenURI;\n    }\n\n    //  NFT  \n    function _safeMint(\n        address to,\n        string memory _tokenURI,\n        bytes memory _data\n    ) internal returns (uint256) {\n        //  NFT\n        require(\n            _checkOnERC721Received(address(0), to, _data),\n            \"ERC721: transfer to non ERC721Receiver implementer\"\n        );\n        //  NFT\n        return _mint(to, _tokenURI);\n    }\n\n    //  NFT\n    function burn(uint256 tokenId) public {\n        //  NFT \n        require(\n            msg.sender == _ownerOf(tokenId),\n            \"ERC721: caller is not the owner\"\n        );\n        //  NFT\n        _burn(tokenId);\n    }\n\n    //  NFT  \n    function _burn(uint256 tokenId) internal {\n        //  NFT\n        _transfer(_ownerOf(tokenId), address(0), tokenId);\n    }\n}\n",
  "sourcePath": "/Users/luzhenqian/Work/web3/web3-examples/contract/noah-nft/contracts/NoahNFT.sol",
  "compiler": {
    "name": "solc",
    "version": "0.8.17+commit.8df45f5f.Emscripten.clang"
  },
  "schemaVersion": "3.4.11",
  "updatedAt": "2023-01-12T12:59:03.120Z",
  "networkType": "ethereum",
  "devdoc": {
    "kind": "dev",
    "methods": {},
    "version": 1
  },
  "userdoc": {
    "kind": "user",
    "methods": {},
    "version": 1
  }
}