{
  "contractName": "Airdrop",
  "abi": [
    {
      "inputs": [
        {
          "internalType": "address",
          "name": "_tokenContractAddress",
          "type": "address"
        }
      ],
      "stateMutability": "nonpayable",
      "type": "constructor"
    },
    {
      "inputs": [],
      "name": "owner",
      "outputs": [
        {
          "internalType": "address",
          "name": "",
          "type": "address"
        }
      ],
      "stateMutability": "view",
      "type": "function",
      "constant": true
    },
    {
      "inputs": [],
      "name": "tokenContract",
      "outputs": [
        {
          "internalType": "contract IERC20",
          "name": "",
          "type": "address"
        }
      ],
      "stateMutability": "view",
      "type": "function",
      "constant": true
    },
    {
      "inputs": [
        {
          "internalType": "address[]",
          "name": "_to",
          "type": "address[]"
        },
        {
          "internalType": "uint256",
          "name": "_amount",
          "type": "uint256"
        }
      ],
      "name": "oneToMany",
      "outputs": [],
      "stateMutability": "nonpayable",
      "type": "function"
    },
    {
      "inputs": [
        {
          "internalType": "address[]",
          "name": "_to",
          "type": "address[]"
        },
        {
          "internalType": "uint256[]",
          "name": "_amount",
          "type": "uint256[]"
        }
      ],
      "name": "oneToOne",
      "outputs": [],
      "stateMutability": "nonpayable",
      "type": "function"
    }
  ],
  "bytecode": "0x608060405234801561001057600080fd5b5060405162000fea38038062000fea8339818101604052810190610034919061011e565b806000806101000a81548173ffffffffffffffffffffffffffffffffffffffff021916908373ffffffffffffffffffffffffffffffffffffffff16021790555033600160006101000a81548173ffffffffffffffffffffffffffffffffffffffff021916908373ffffffffffffffffffffffffffffffffffffffff1602179055505061014b565b600080fd5b600073ffffffffffffffffffffffffffffffffffffffff82169050919050565b60006100eb826100c0565b9050919050565b6100fb816100e0565b811461010657600080fd5b50565b600081519050610118816100f2565b92915050565b600060208284031215610134576101336100bb565b5b600061014284828501610109565b91505092915050565b610e8f806200015b6000396000f3fe608060405234801561001057600080fd5b506004361061004c5760003560e01c806319d8fc851461005157806355a373d61461006d5780638da5cb5b1461008b578063a181627d146100a9575b600080fd5b61006b6004803603810190610066919061085c565b6100c5565b005b610075610320565b6040516100829190610917565b60405180910390f35b610093610344565b6040516100a09190610941565b60405180910390f35b6100c360048036038101906100be9190610a1f565b61036a565b005b600160009054906101000a900473ffffffffffffffffffffffffffffffffffffffff1673ffffffffffffffffffffffffffffffffffffffff163373ffffffffffffffffffffffffffffffffffffffff1614610155576040517f08c379a000000000000000000000000000000000000000000000000000000000815260040161014c90610b1a565b60405180910390fd5b60008251826101649190610b69565b90508060008054906101000a900473ffffffffffffffffffffffffffffffffffffffff1673ffffffffffffffffffffffffffffffffffffffff166370a08231306040518263ffffffff1660e01b81526004016101c09190610941565b602060405180830381865afa1580156101dd573d6000803e3d6000fd5b505050506040513d601f19601f820116820180604052508101906102019190610bc0565b1015610242576040517f08c379a000000000000000000000000000000000000000000000000000000000815260040161023990610c5f565b60405180910390fd5b60005b835181101561031a5760008054906101000a900473ffffffffffffffffffffffffffffffffffffffff1673ffffffffffffffffffffffffffffffffffffffff1663a9059cbb85838151811061029d5761029c610c7f565b5b6020026020010151856040518363ffffffff1660e01b81526004016102c3929190610cbd565b6020604051808303816000875af11580156102e2573d6000803e3d6000fd5b505050506040513d601f19601f820116820180604052508101906103069190610d1e565b50808061031290610d4b565b915050610245565b50505050565b60008054906101000a900473ffffffffffffffffffffffffffffffffffffffff1681565b600160009054906101000a900473ffffffffffffffffffffffffffffffffffffffff1681565b600160009054906101000a900473ffffffffffffffffffffffffffffffffffffffff1673ffffffffffffffffffffffffffffffffffffffff163373ffffffffffffffffffffffffffffffffffffffff16146103fa576040517f08c379a00000000000000000000000000000000000000000000000000000000081526004016103f190610b1a565b60405180910390fd5b805182511461043e576040517f08c379a000000000000000000000000000000000000000000000000000000000815260040161043590610e05565b60405180910390fd5b6000805b82518110156104865782818151811061045e5761045d610c7f565b5b6020026020010151826104719190610e25565b9150808061047e90610d4b565b915050610442565b508060008054906101000a900473ffffffffffffffffffffffffffffffffffffffff1673ffffffffffffffffffffffffffffffffffffffff166370a08231306040518263ffffffff1660e01b81526004016104e19190610941565b602060405180830381865afa1580156104fe573d6000803e3d6000fd5b505050506040513d601f19601f820116820180604052508101906105229190610bc0565b1015610563576040517f08c379a000000000000000000000000000000000000000000000000000000000815260040161055a90610c5f565b60405180910390fd5b60005b83518110156106555760008054906101000a900473ffffffffffffffffffffffffffffffffffffffff1673ffffffffffffffffffffffffffffffffffffffff1663a9059cbb8583815181106105be576105bd610c7f565b5b60200260200101518584815181106105d9576105d8610c7f565b5b60200260200101516040518363ffffffff1660e01b81526004016105fe929190610cbd565b6020604051808303816000875af115801561061d573d6000803e3d6000fd5b505050506040513d601f19601f820116820180604052508101906106419190610d1e565b50808061064d90610d4b565b915050610566565b50505050565b6000604051905090565b600080fd5b600080fd5b600080fd5b6000601f19601f8301169050919050565b7f4e487b7100000000000000000000000000000000000000000000000000000000600052604160045260246000fd5b6106bd82610674565b810181811067ffffffffffffffff821117156106dc576106db610685565b5b80604052505050565b60006106ef61065b565b90506106fb82826106b4565b919050565b600067ffffffffffffffff82111561071b5761071a610685565b5b602082029050602081019050919050565b600080fd5b600073ffffffffffffffffffffffffffffffffffffffff82169050919050565b600061075c82610731565b9050919050565b61076c81610751565b811461077757600080fd5b50565b60008135905061078981610763565b92915050565b60006107a261079d84610700565b6106e5565b905080838252602082019050602084028301858111156107c5576107c461072c565b5b835b818110156107ee57806107da888261077a565b8452602084019350506020810190506107c7565b5050509392505050565b600082601f83011261080d5761080c61066f565b5b813561081d84826020860161078f565b91505092915050565b6000819050919050565b61083981610826565b811461084457600080fd5b50565b60008135905061085681610830565b92915050565b6000806040838503121561087357610872610665565b5b600083013567ffffffffffffffff8111156108915761089061066a565b5b61089d858286016107f8565b92505060206108ae85828601610847565b9150509250929050565b6000819050919050565b60006108dd6108d86108d384610731565b6108b8565b610731565b9050919050565b60006108ef826108c2565b9050919050565b6000610901826108e4565b9050919050565b610911816108f6565b82525050565b600060208201905061092c6000830184610908565b92915050565b61093b81610751565b82525050565b60006020820190506109566000830184610932565b92915050565b600067ffffffffffffffff82111561097757610976610685565b5b602082029050602081019050919050565b600061099b6109968461095c565b6106e5565b905080838252602082019050602084028301858111156109be576109bd61072c565b5b835b818110156109e757806109d38882610847565b8452602084019350506020810190506109c0565b5050509392505050565b600082601f830112610a0657610a0561066f565b5b8135610a16848260208601610988565b91505092915050565b60008060408385031215610a3657610a35610665565b5b600083013567ffffffffffffffff811115610a5457610a5361066a565b5b610a60858286016107f8565b925050602083013567ffffffffffffffff811115610a8157610a8061066a565b5b610a8d858286016109f1565b9150509250929050565b600082825260208201905092915050565b7f4f6e6c7920746865206f776e65722063616e2061697264726f7020746f6b656e60008201527f7300000000000000000000000000000000000000000000000000000000000000602082015250565b6000610b04602183610a97565b9150610b0f82610aa8565b604082019050919050565b60006020820190508181036000830152610b3381610af7565b9050919050565b7f4e487b7100000000000000000000000000000000000000000000000000000000600052601160045260246000fd5b6000610b7482610826565b9150610b7f83610826565b9250828202610b8d81610826565b91508282048414831517610ba457610ba3610b3a565b5b5092915050565b600081519050610bba81610830565b92915050565b600060208284031215610bd657610bd5610665565b5b6000610be484828501610bab565b91505092915050565b7f4e6f7420656e6f75676820746f6b656e7320696e2074686520636f6e7472616360008201527f7400000000000000000000000000000000000000000000000000000000000000602082015250565b6000610c49602183610a97565b9150610c5482610bed565b604082019050919050565b60006020820190508181036000830152610c7881610c3c565b9050919050565b7f4e487b7100000000000000000000000000000000000000000000000000000000600052603260045260246000fd5b610cb781610826565b82525050565b6000604082019050610cd26000830185610932565b610cdf6020830184610cae565b9392505050565b60008115159050919050565b610cfb81610ce6565b8114610d0657600080fd5b50565b600081519050610d1881610cf2565b92915050565b600060208284031215610d3457610d33610665565b5b6000610d4284828501610d09565b91505092915050565b6000610d5682610826565b91507fffffffffffffffffffffffffffffffffffffffffffffffffffffffffffffffff8203610d8857610d87610b3a565b5b600182019050919050565b7f546865206c656e677468206f66207468652074776f20617272617973206d757360008201527f74206265207468652073616d6500000000000000000000000000000000000000602082015250565b6000610def602d83610a97565b9150610dfa82610d93565b604082019050919050565b60006020820190508181036000830152610e1e81610de2565b9050919050565b6000610e3082610826565b9150610e3b83610826565b9250828201905080821115610e5357610e52610b3a565b5b9291505056fea26469706673582212205a8d5ea7d8d096b8fa9fb7fb92df4f3fe365b383ca1a679a49ea82cb45eead0564736f6c63430008110033",
  "immutableReferences": {},
  "source": "// SPDX-License-Identifier: MIT\n\npragma solidity ^0.8.0;\n\nimport \"./IERC20.sol\";\n\ncontract Airdrop {\n    IERC20 public tokenContract; // \n    address public owner; // \n\n    constructor(address _tokenContractAddress) {\n        tokenContract = IERC20(_tokenContractAddress);\n        owner = msg.sender;\n    }\n\n    // \n    function oneToMany(address[] memory _to, uint256 _amount) public {\n        // \n        require(msg.sender == owner, \"Only the owner can airdrop tokens\");\n        // \n        uint256 totalAmount = _amount * _to.length;\n        require(\n            tokenContract.balanceOf(address(this)) >= totalAmount,\n            \"Not enough tokens in the contract\"\n        );\n        // \n        for (uint256 i = 0; i < _to.length; i++) {\n            tokenContract.transfer(_to[i], _amount);\n        }\n    }\n\n    // \n    function oneToOne(address[] memory _to, uint256[] memory _amount) public {\n        // \n        require(msg.sender == owner, \"Only the owner can airdrop tokens\");\n        // \n        require(\n            _to.length == _amount.length,\n            \"The length of the two arrays must be the same\"\n        );\n        // \n        uint256 totalAmount = 0;\n        for (uint256 i = 0; i < _amount.length; i++) {\n            totalAmount += _amount[i];\n        }\n        require(\n            tokenContract.balanceOf(address(this)) >= totalAmount,\n            \"Not enough tokens in the contract\"\n        );\n        // \n        for (uint256 i = 0; i < _to.length; i++) {\n            tokenContract.transfer(_to[i], _amount[i]);\n        }\n    }\n}\n",
  "sourcePath": "/Users/luzhenqian/Work/web3/web3-examples/contract/noah-token/contracts/Airdrop.sol",
  "compiler": {
    "name": "solc",
    "version": "0.8.17+commit.8df45f5f.Emscripten.clang"
  },
  "schemaVersion": "3.4.11",
  "updatedAt": "2023-01-09T07:29:28.168Z",
  "networkType": "ethereum",
  "devdoc": {
    "kind": "dev",
    "methods": {},
    "version": 1
  },
  "userdoc": {
    "kind": "user",
    "methods": {},
    "version": 1
  }
}