{
  "contractName": "Faucet",
  "abi": [
    {
      "inputs": [
        {
          "internalType": "address",
          "name": "_tokenContractAddress",
          "type": "address"
        },
        {
          "internalType": "uint256",
          "name": "_amountEachTime",
          "type": "uint256"
        }
      ],
      "stateMutability": "nonpayable",
      "type": "constructor"
    },
    {
      "inputs": [],
      "name": "amountEachTime",
      "outputs": [
        {
          "internalType": "uint256",
          "name": "",
          "type": "uint256"
        }
      ],
      "stateMutability": "view",
      "type": "function",
      "constant": true
    },
    {
      "inputs": [],
      "name": "owner",
      "outputs": [
        {
          "internalType": "address",
          "name": "",
          "type": "address"
        }
      ],
      "stateMutability": "view",
      "type": "function",
      "constant": true
    },
    {
      "inputs": [
        {
          "internalType": "address",
          "name": "",
          "type": "address"
        }
      ],
      "name": "recivedRecord",
      "outputs": [
        {
          "internalType": "uint256",
          "name": "",
          "type": "uint256"
        }
      ],
      "stateMutability": "view",
      "type": "function",
      "constant": true
    },
    {
      "inputs": [],
      "name": "tokenContract",
      "outputs": [
        {
          "internalType": "contract IERC20",
          "name": "",
          "type": "address"
        }
      ],
      "stateMutability": "view",
      "type": "function",
      "constant": true
    },
    {
      "inputs": [],
      "name": "withdraw",
      "outputs": [],
      "stateMutability": "nonpayable",
      "type": "function"
    },
    {
      "inputs": [
        {
          "internalType": "uint256",
          "name": "_amountEachTime",
          "type": "uint256"
        }
      ],
      "name": "setAmountEachTime",
      "outputs": [],
      "stateMutability": "nonpayable",
      "type": "function"
    }
  ],
  "bytecode": "0x608060405234801561001057600080fd5b50604051610b51380380610b518339818101604052810190610032919061015a565b816000806101000a81548173ffffffffffffffffffffffffffffffffffffffff021916908373ffffffffffffffffffffffffffffffffffffffff1602179055508060028190555033600360006101000a81548173ffffffffffffffffffffffffffffffffffffffff021916908373ffffffffffffffffffffffffffffffffffffffff160217905550505061019a565b600080fd5b600073ffffffffffffffffffffffffffffffffffffffff82169050919050565b60006100f1826100c6565b9050919050565b610101816100e6565b811461010c57600080fd5b50565b60008151905061011e816100f8565b92915050565b6000819050919050565b61013781610124565b811461014257600080fd5b50565b6000815190506101548161012e565b92915050565b60008060408385031215610171576101706100c1565b5b600061017f8582860161010f565b925050602061019085828601610145565b9150509250929050565b6109a8806101a96000396000f3fe608060405234801561001057600080fd5b50600436106100625760003560e01c806318ed695b146100675780633ccfd60b1461009757806355a373d6146100a15780635e9e23b4146100bf5780638da5cb5b146100db578063d56272bd146100f9575b600080fd5b610081600480360381019061007c919061051a565b610117565b60405161008e9190610560565b60405180910390f35b61009f61012f565b005b6100a96103cd565b6040516100b691906105da565b60405180910390f35b6100d960048036038101906100d49190610621565b6103f1565b005b6100e361048b565b6040516100f0919061065d565b60405180910390f35b6101016104b1565b60405161010e9190610560565b60405180910390f35b60016020528060005260406000206000915090505481565b6000600160003373ffffffffffffffffffffffffffffffffffffffff1673ffffffffffffffffffffffffffffffffffffffff168152602001908152602001600020541115610208576201518042600160003373ffffffffffffffffffffffffffffffffffffffff1673ffffffffffffffffffffffffffffffffffffffff168152602001908152602001600020546101c691906106a7565b1015610207576040517f08c379a00000000000000000000000000000000000000000000000000000000081526004016101fe9061075e565b60405180910390fd5b5b60025460008054906101000a900473ffffffffffffffffffffffffffffffffffffffff1673ffffffffffffffffffffffffffffffffffffffff166370a08231306040518263ffffffff1660e01b8152600401610264919061065d565b602060405180830381865afa158015610281573d6000803e3d6000fd5b505050506040513d601f19601f820116820180604052508101906102a59190610793565b10156102e6576040517f08c379a00000000000000000000000000000000000000000000000000000000081526004016102dd90610832565b60405180910390fd5b42600160003373ffffffffffffffffffffffffffffffffffffffff1673ffffffffffffffffffffffffffffffffffffffff1681526020019081526020016000208190555060008054906101000a900473ffffffffffffffffffffffffffffffffffffffff1673ffffffffffffffffffffffffffffffffffffffff1663a9059cbb336002546040518363ffffffff1660e01b8152600401610387929190610852565b6020604051808303816000875af11580156103a6573d6000803e3d6000fd5b505050506040513d601f19601f820116820180604052508101906103ca91906108b3565b50565b60008054906101000a900473ffffffffffffffffffffffffffffffffffffffff1681565b600360009054906101000a900473ffffffffffffffffffffffffffffffffffffffff1673ffffffffffffffffffffffffffffffffffffffff163373ffffffffffffffffffffffffffffffffffffffff1614610481576040517f08c379a000000000000000000000000000000000000000000000000000000000815260040161047890610952565b60405180910390fd5b8060028190555050565b600360009054906101000a900473ffffffffffffffffffffffffffffffffffffffff1681565b60025481565b600080fd5b600073ffffffffffffffffffffffffffffffffffffffff82169050919050565b60006104e7826104bc565b9050919050565b6104f7816104dc565b811461050257600080fd5b50565b600081359050610514816104ee565b92915050565b6000602082840312156105305761052f6104b7565b5b600061053e84828501610505565b91505092915050565b6000819050919050565b61055a81610547565b82525050565b60006020820190506105756000830184610551565b92915050565b6000819050919050565b60006105a061059b610596846104bc565b61057b565b6104bc565b9050919050565b60006105b282610585565b9050919050565b60006105c4826105a7565b9050919050565b6105d4816105b9565b82525050565b60006020820190506105ef60008301846105cb565b92915050565b6105fe81610547565b811461060957600080fd5b50565b60008135905061061b816105f5565b92915050565b600060208284031215610637576106366104b7565b5b60006106458482850161060c565b91505092915050565b610657816104dc565b82525050565b6000602082019050610672600083018461064e565b92915050565b7f4e487b7100000000000000000000000000000000000000000000000000000000600052601160045260246000fd5b60006106b282610547565b91506106bd83610547565b92508282039050818111156106d5576106d4610678565b5b92915050565b600082825260208201905092915050565b7f596f752063616e206f6e6c79207265717565737420746f6b656e73206f6e636560008201527f20657665727920323420686f7572730000000000000000000000000000000000602082015250565b6000610748602f836106db565b9150610753826106ec565b604082019050919050565b600060208201905081810360008301526107778161073b565b9050919050565b60008151905061078d816105f5565b92915050565b6000602082840312156107a9576107a86104b7565b5b60006107b78482850161077e565b91505092915050565b7f4e6f7420656e6f75676820746f6b656e7320696e2074686520636f6e7472616360008201527f7400000000000000000000000000000000000000000000000000000000000000602082015250565b600061081c6021836106db565b9150610827826107c0565b604082019050919050565b6000602082019050818103600083015261084b8161080f565b9050919050565b6000604082019050610867600083018561064e565b6108746020830184610551565b9392505050565b60008115159050919050565b6108908161087b565b811461089b57600080fd5b50565b6000815190506108ad81610887565b92915050565b6000602082840312156108c9576108c86104b7565b5b60006108d78482850161089e565b91505092915050565b7f4f6e6c7920746865206f776e65722063616e207365742074686520616d6f756e60008201527f7400000000000000000000000000000000000000000000000000000000000000602082015250565b600061093c6021836106db565b9150610947826108e0565b604082019050919050565b6000602082019050818103600083015261096b8161092f565b905091905056fea26469706673582212209123cf600578f90746445429fc9e9c6b8c6049adc369b9a629aa96a71a984e0c64736f6c63430008110033",
  "immutableReferences": {},
  "source": "// SPDX-License-Identifier: MIT\n\npragma solidity ^0.8.0;\n\nimport \"./IERC20.sol\";\n\ncontract Faucet {\n    IERC20 public tokenContract; // \n    mapping(address => uint256) public recivedRecord; // \n    uint256 public amountEachTime; // \n    address public owner; // \n\n    constructor(address _tokenContractAddress, uint256 _amountEachTime) {\n        tokenContract = IERC20(_tokenContractAddress);\n        amountEachTime = _amountEachTime;\n        owner = msg.sender;\n    }\n\n    // 24\n    function withdraw() external {\n        if (recivedRecord[msg.sender] > 0) {\n            require(\n                recivedRecord[msg.sender] - block.timestamp >= 1 days,\n                \"You can only request tokens once every 24 hours\"\n            );\n        }\n        require(\n            tokenContract.balanceOf(address(this)) >= amountEachTime,\n            \"Not enough tokens in the contract\"\n        );\n        recivedRecord[msg.sender] = block.timestamp; // \n        tokenContract.transfer(msg.sender, amountEachTime); // \n    }\n\n    // \n    function setAmountEachTime(uint256 _amountEachTime) public {\n        require(msg.sender == owner, \"Only the owner can set the amount\");\n        amountEachTime = _amountEachTime; // \n    }\n}\n",
  "sourcePath": "/Users/luzhenqian/Work/web3/web3-examples/contract/noah-token/contracts/Faucet.sol",
  "compiler": {
    "name": "solc",
    "version": "0.8.17+commit.8df45f5f.Emscripten.clang"
  },
  "schemaVersion": "3.4.11",
  "updatedAt": "2023-01-09T07:29:28.163Z",
  "networkType": "ethereum",
  "devdoc": {
    "kind": "dev",
    "methods": {},
    "version": 1
  },
  "userdoc": {
    "kind": "user",
    "methods": {},
    "version": 1
  }
}