{
  "contractName": "Faucet",
  "abi": [
    {
      "inputs": [
        {
          "internalType": "address",
          "name": "_tokenContractAddress",
          "type": "address"
        },
        {
          "internalType": "uint256",
          "name": "_amountEachTime",
          "type": "uint256"
        }
      ],
      "stateMutability": "nonpayable",
      "type": "constructor"
    },
    {
      "inputs": [],
      "name": "amountEachTime",
      "outputs": [
        {
          "internalType": "uint256",
          "name": "",
          "type": "uint256"
        }
      ],
      "stateMutability": "view",
      "type": "function",
      "constant": true
    },
    {
      "inputs": [],
      "name": "owner",
      "outputs": [
        {
          "internalType": "address",
          "name": "",
          "type": "address"
        }
      ],
      "stateMutability": "view",
      "type": "function",
      "constant": true
    },
    {
      "inputs": [],
      "name": "t",
      "outputs": [
        {
          "internalType": "uint256",
          "name": "",
          "type": "uint256"
        }
      ],
      "stateMutability": "view",
      "type": "function",
      "constant": true
    },
    {
      "inputs": [],
      "name": "tokenContract",
      "outputs": [
        {
          "internalType": "contract IERC20",
          "name": "",
          "type": "address"
        }
      ],
      "stateMutability": "view",
      "type": "function",
      "constant": true
    },
    {
      "inputs": [],
      "name": "withdraw",
      "outputs": [],
      "stateMutability": "nonpayable",
      "type": "function"
    },
    {
      "inputs": [
        {
          "internalType": "uint256",
          "name": "_amountEachTime",
          "type": "uint256"
        }
      ],
      "name": "setAmountEachTime",
      "outputs": [],
      "stateMutability": "nonpayable",
      "type": "function"
    },
    {
      "inputs": [],
      "name": "a",
      "outputs": [
        {
          "internalType": "uint8",
          "name": "",
          "type": "uint8"
        }
      ],
      "stateMutability": "pure",
      "type": "function",
      "constant": true
    }
  ],
  "bytecode": "0x608060405234801561001057600080fd5b50604051610b4d380380610b4d8339818101604052810190610032919061015a565b816000806101000a81548173ffffffffffffffffffffffffffffffffffffffff021916908373ffffffffffffffffffffffffffffffffffffffff1602179055508060028190555033600360006101000a81548173ffffffffffffffffffffffffffffffffffffffff021916908373ffffffffffffffffffffffffffffffffffffffff160217905550505061019a565b600080fd5b600073ffffffffffffffffffffffffffffffffffffffff82169050919050565b60006100f1826100c6565b9050919050565b610101816100e6565b811461010c57600080fd5b50565b60008151905061011e816100f8565b92915050565b6000819050919050565b61013781610124565b811461014257600080fd5b50565b6000815190506101548161012e565b92915050565b60008060408385031215610171576101706100c1565b5b600061017f8582860161010f565b925050602061019085828601610145565b9150509250929050565b6109a4806101a96000396000f3fe608060405234801561001057600080fd5b506004361061007d5760003560e01c80635e9e23b41161005b5780635e9e23b4146100c85780638da5cb5b146100e457806392d0d15314610102578063d56272bd146101205761007d565b80630dbe671f146100825780633ccfd60b146100a057806355a373d6146100aa575b600080fd5b61008a61013e565b60405161009791906104f1565b60405180910390f35b6100a8610147565b005b6100b26103e5565b6040516100bf919061058b565b60405180910390f35b6100e260048036038101906100dd91906105e1565b610409565b005b6100ec6104a3565b6040516100f9919061062f565b60405180910390f35b61010a6104c9565b6040516101179190610659565b60405180910390f35b6101286104cf565b6040516101359190610659565b60405180910390f35b60006004905090565b6000600160003373ffffffffffffffffffffffffffffffffffffffff1673ffffffffffffffffffffffffffffffffffffffff168152602001908152602001600020541115610220576201518042600160003373ffffffffffffffffffffffffffffffffffffffff1673ffffffffffffffffffffffffffffffffffffffff168152602001908152602001600020546101de91906106a3565b101561021f576040517f08c379a00000000000000000000000000000000000000000000000000000000081526004016102169061075a565b60405180910390fd5b5b60025460008054906101000a900473ffffffffffffffffffffffffffffffffffffffff1673ffffffffffffffffffffffffffffffffffffffff166370a08231306040518263ffffffff1660e01b815260040161027c919061062f565b602060405180830381865afa158015610299573d6000803e3d6000fd5b505050506040513d601f19601f820116820180604052508101906102bd919061078f565b10156102fe576040517f08c379a00000000000000000000000000000000000000000000000000000000081526004016102f59061082e565b60405180910390fd5b42600160003373ffffffffffffffffffffffffffffffffffffffff1673ffffffffffffffffffffffffffffffffffffffff1681526020019081526020016000208190555060008054906101000a900473ffffffffffffffffffffffffffffffffffffffff1673ffffffffffffffffffffffffffffffffffffffff1663a9059cbb336002546040518363ffffffff1660e01b815260040161039f92919061084e565b6020604051808303816000875af11580156103be573d6000803e3d6000fd5b505050506040513d601f19601f820116820180604052508101906103e291906108af565b50565b60008054906101000a900473ffffffffffffffffffffffffffffffffffffffff1681565b600360009054906101000a900473ffffffffffffffffffffffffffffffffffffffff1673ffffffffffffffffffffffffffffffffffffffff163373ffffffffffffffffffffffffffffffffffffffff1614610499576040517f08c379a00000000000000000000000000000000000000000000000000000000081526004016104909061094e565b60405180910390fd5b8060028190555050565b600360009054906101000a900473ffffffffffffffffffffffffffffffffffffffff1681565b60045481565b60025481565b600060ff82169050919050565b6104eb816104d5565b82525050565b600060208201905061050660008301846104e2565b92915050565b600073ffffffffffffffffffffffffffffffffffffffff82169050919050565b6000819050919050565b600061055161054c6105478461050c565b61052c565b61050c565b9050919050565b600061056382610536565b9050919050565b600061057582610558565b9050919050565b6105858161056a565b82525050565b60006020820190506105a0600083018461057c565b92915050565b600080fd5b6000819050919050565b6105be816105ab565b81146105c957600080fd5b50565b6000813590506105db816105b5565b92915050565b6000602082840312156105f7576105f66105a6565b5b6000610605848285016105cc565b91505092915050565b60006106198261050c565b9050919050565b6106298161060e565b82525050565b60006020820190506106446000830184610620565b92915050565b610653816105ab565b82525050565b600060208201905061066e600083018461064a565b92915050565b7f4e487b7100000000000000000000000000000000000000000000000000000000600052601160045260246000fd5b60006106ae826105ab565b91506106b9836105ab565b92508282039050818111156106d1576106d0610674565b5b92915050565b600082825260208201905092915050565b7f596f752063616e206f6e6c79207265717565737420746f6b656e73206f6e636560008201527f20657665727920323420686f7572730000000000000000000000000000000000602082015250565b6000610744602f836106d7565b915061074f826106e8565b604082019050919050565b6000602082019050818103600083015261077381610737565b9050919050565b600081519050610789816105b5565b92915050565b6000602082840312156107a5576107a46105a6565b5b60006107b38482850161077a565b91505092915050565b7f4e6f7420656e6f75676820746f6b656e7320696e2074686520636f6e7472616360008201527f7400000000000000000000000000000000000000000000000000000000000000602082015250565b60006108186021836106d7565b9150610823826107bc565b604082019050919050565b600060208201905081810360008301526108478161080b565b9050919050565b60006040820190506108636000830185610620565b610870602083018461064a565b9392505050565b60008115159050919050565b61088c81610877565b811461089757600080fd5b50565b6000815190506108a981610883565b92915050565b6000602082840312156108c5576108c46105a6565b5b60006108d38482850161089a565b91505092915050565b7f4f6e6c7920746865206f776e65722063616e207365742074686520616d6f756e60008201527f7400000000000000000000000000000000000000000000000000000000000000602082015250565b60006109386021836106d7565b9150610943826108dc565b604082019050919050565b600060208201905081810360008301526109678161092b565b905091905056fea26469706673582212207a321aeb9a0db5790412c1ccff47b1218e305b755c6a57ee821d2e87c2b0b01664736f6c63430008110033",
  "immutableReferences": {},
  "source": "// SPDX-License-Identifier: MIT\n\npragma solidity ^0.8.0;\n\nimport \"./IERC20.sol\";\n\ncontract Faucet {\n    IERC20 public tokenContract; // \n    mapping(address => uint256) recivedRecord; // \n    uint256 public amountEachTime; // \n    address public owner; // \n    uint256 public t; //\n\n    constructor(address _tokenContractAddress, uint256 _amountEachTime) {\n        tokenContract = IERC20(_tokenContractAddress);\n        amountEachTime = _amountEachTime;\n        owner = msg.sender;\n    }\n\n    // 24\n    function withdraw() external {\n        if (recivedRecord[msg.sender] > 0) {\n            require(\n                recivedRecord[msg.sender] - block.timestamp >= 1 days,\n                \"You can only request tokens once every 24 hours\"\n            );\n        }\n        require(\n            tokenContract.balanceOf(address(this)) >= amountEachTime,\n            \"Not enough tokens in the contract\"\n        );\n        recivedRecord[msg.sender] = block.timestamp; // \n        tokenContract.transfer(msg.sender, amountEachTime); // \n    }\n\n    // \n    function setAmountEachTime(uint256 _amountEachTime) public {\n        require(msg.sender == owner, \"Only the owner can set the amount\");\n        amountEachTime = _amountEachTime; // \n    }\n\n    function a() public pure returns (uint8) {\n        return 4;\n    }\n}\n",
  "sourcePath": "/Users/luzhenqian/Work/web3/web3-examples/contract/noah-token/contracts/Faucet.sol",
  "compiler": {
    "name": "solc",
    "version": "0.8.17+commit.8df45f5f.Emscripten.clang"
  },
  "schemaVersion": "3.4.11",
  "updatedAt": "2023-01-06T07:42:56.981Z",
  "networkType": "ethereum",
  "devdoc": {
    "kind": "dev",
    "methods": {},
    "version": 1
  },
  "userdoc": {
    "kind": "user",
    "methods": {},
    "version": 1
  }
}