{
  "contractName": "NoahNFT",
  "abi": [
    {
      "inputs": [
        {
          "internalType": "string",
          "name": "initName",
          "type": "string"
        },
        {
          "internalType": "string",
          "name": "initSymbol",
          "type": "string"
        }
      ],
      "stateMutability": "nonpayable",
      "type": "constructor"
    },
    {
      "anonymous": false,
      "inputs": [
        {
          "indexed": true,
          "internalType": "address",
          "name": "owner",
          "type": "address"
        },
        {
          "indexed": true,
          "internalType": "address",
          "name": "approved",
          "type": "address"
        },
        {
          "indexed": true,
          "internalType": "uint256",
          "name": "tokenId",
          "type": "uint256"
        }
      ],
      "name": "Approval",
      "type": "event"
    },
    {
      "anonymous": false,
      "inputs": [
        {
          "indexed": true,
          "internalType": "address",
          "name": "owner",
          "type": "address"
        },
        {
          "indexed": true,
          "internalType": "address",
          "name": "operator",
          "type": "address"
        },
        {
          "indexed": false,
          "internalType": "bool",
          "name": "approved",
          "type": "bool"
        }
      ],
      "name": "ApprovalForAll",
      "type": "event"
    },
    {
      "anonymous": false,
      "inputs": [
        {
          "indexed": true,
          "internalType": "address",
          "name": "from",
          "type": "address"
        },
        {
          "indexed": true,
          "internalType": "address",
          "name": "to",
          "type": "address"
        },
        {
          "indexed": true,
          "internalType": "uint256",
          "name": "tokenId",
          "type": "uint256"
        }
      ],
      "name": "Transfer",
      "type": "event"
    },
    {
      "inputs": [
        {
          "internalType": "address",
          "name": "",
          "type": "address"
        }
      ],
      "name": "balances",
      "outputs": [
        {
          "internalType": "uint256",
          "name": "",
          "type": "uint256"
        }
      ],
      "stateMutability": "view",
      "type": "function",
      "constant": true
    },
    {
      "inputs": [
        {
          "internalType": "address",
          "name": "",
          "type": "address"
        }
      ],
      "name": "minters",
      "outputs": [
        {
          "internalType": "bool",
          "name": "",
          "type": "bool"
        }
      ],
      "stateMutability": "view",
      "type": "function",
      "constant": true
    },
    {
      "inputs": [
        {
          "internalType": "address",
          "name": "",
          "type": "address"
        },
        {
          "internalType": "address",
          "name": "",
          "type": "address"
        }
      ],
      "name": "operatorApprovals",
      "outputs": [
        {
          "internalType": "bool",
          "name": "",
          "type": "bool"
        }
      ],
      "stateMutability": "view",
      "type": "function",
      "constant": true
    },
    {
      "inputs": [],
      "name": "owner",
      "outputs": [
        {
          "internalType": "address",
          "name": "",
          "type": "address"
        }
      ],
      "stateMutability": "view",
      "type": "function",
      "constant": true
    },
    {
      "inputs": [
        {
          "internalType": "uint256",
          "name": "",
          "type": "uint256"
        }
      ],
      "name": "owners",
      "outputs": [
        {
          "internalType": "address",
          "name": "",
          "type": "address"
        }
      ],
      "stateMutability": "view",
      "type": "function",
      "constant": true
    },
    {
      "inputs": [
        {
          "internalType": "uint256",
          "name": "",
          "type": "uint256"
        }
      ],
      "name": "tokenApprovals",
      "outputs": [
        {
          "internalType": "address",
          "name": "",
          "type": "address"
        }
      ],
      "stateMutability": "view",
      "type": "function",
      "constant": true
    },
    {
      "inputs": [
        {
          "internalType": "address",
          "name": "minter",
          "type": "address"
        },
        {
          "internalType": "bool",
          "name": "approved",
          "type": "bool"
        }
      ],
      "name": "approveMinter",
      "outputs": [],
      "stateMutability": "nonpayable",
      "type": "function"
    },
    {
      "inputs": [
        {
          "internalType": "address",
          "name": "minter",
          "type": "address"
        }
      ],
      "name": "isMinter",
      "outputs": [
        {
          "internalType": "bool",
          "name": "",
          "type": "bool"
        }
      ],
      "stateMutability": "view",
      "type": "function",
      "constant": true
    },
    {
      "inputs": [
        {
          "internalType": "bytes4",
          "name": "interfaceId",
          "type": "bytes4"
        }
      ],
      "name": "supportsInterface",
      "outputs": [
        {
          "internalType": "bool",
          "name": "",
          "type": "bool"
        }
      ],
      "stateMutability": "pure",
      "type": "function",
      "constant": true
    },
    {
      "inputs": [],
      "name": "name",
      "outputs": [
        {
          "internalType": "string",
          "name": "",
          "type": "string"
        }
      ],
      "stateMutability": "view",
      "type": "function",
      "constant": true
    },
    {
      "inputs": [],
      "name": "symbol",
      "outputs": [
        {
          "internalType": "string",
          "name": "",
          "type": "string"
        }
      ],
      "stateMutability": "view",
      "type": "function",
      "constant": true
    },
    {
      "inputs": [
        {
          "internalType": "uint256",
          "name": "tokenId",
          "type": "uint256"
        }
      ],
      "name": "tokenURI",
      "outputs": [
        {
          "internalType": "string",
          "name": "",
          "type": "string"
        }
      ],
      "stateMutability": "view",
      "type": "function",
      "constant": true
    },
    {
      "inputs": [
        {
          "internalType": "address",
          "name": "_owner",
          "type": "address"
        }
      ],
      "name": "balanceOf",
      "outputs": [
        {
          "internalType": "uint256",
          "name": "",
          "type": "uint256"
        }
      ],
      "stateMutability": "view",
      "type": "function",
      "constant": true
    },
    {
      "inputs": [
        {
          "internalType": "uint256",
          "name": "tokenId",
          "type": "uint256"
        }
      ],
      "name": "ownerOf",
      "outputs": [
        {
          "internalType": "address",
          "name": "",
          "type": "address"
        }
      ],
      "stateMutability": "view",
      "type": "function",
      "constant": true
    },
    {
      "inputs": [
        {
          "internalType": "address",
          "name": "to",
          "type": "address"
        },
        {
          "internalType": "uint256",
          "name": "tokenId",
          "type": "uint256"
        }
      ],
      "name": "approve",
      "outputs": [],
      "stateMutability": "nonpayable",
      "type": "function"
    },
    {
      "inputs": [
        {
          "internalType": "uint256",
          "name": "tokenId",
          "type": "uint256"
        }
      ],
      "name": "getApproved",
      "outputs": [
        {
          "internalType": "address",
          "name": "",
          "type": "address"
        }
      ],
      "stateMutability": "view",
      "type": "function",
      "constant": true
    },
    {
      "inputs": [
        {
          "internalType": "address",
          "name": "operator",
          "type": "address"
        },
        {
          "internalType": "bool",
          "name": "approved",
          "type": "bool"
        }
      ],
      "name": "setApprovalForAll",
      "outputs": [],
      "stateMutability": "nonpayable",
      "type": "function"
    },
    {
      "inputs": [
        {
          "internalType": "address",
          "name": "_owner",
          "type": "address"
        },
        {
          "internalType": "address",
          "name": "operator",
          "type": "address"
        }
      ],
      "name": "isApprovedForAll",
      "outputs": [
        {
          "internalType": "bool",
          "name": "",
          "type": "bool"
        }
      ],
      "stateMutability": "view",
      "type": "function",
      "constant": true
    },
    {
      "inputs": [
        {
          "internalType": "address",
          "name": "from",
          "type": "address"
        },
        {
          "internalType": "address",
          "name": "to",
          "type": "address"
        },
        {
          "internalType": "uint256",
          "name": "tokenId",
          "type": "uint256"
        }
      ],
      "name": "transferFrom",
      "outputs": [],
      "stateMutability": "nonpayable",
      "type": "function"
    },
    {
      "inputs": [
        {
          "internalType": "address",
          "name": "from",
          "type": "address"
        },
        {
          "internalType": "address",
          "name": "to",
          "type": "address"
        },
        {
          "internalType": "uint256",
          "name": "tokenId",
          "type": "uint256"
        }
      ],
      "name": "safeTransferFrom",
      "outputs": [],
      "stateMutability": "nonpayable",
      "type": "function"
    },
    {
      "inputs": [
        {
          "internalType": "address",
          "name": "from",
          "type": "address"
        },
        {
          "internalType": "address",
          "name": "to",
          "type": "address"
        },
        {
          "internalType": "uint256",
          "name": "tokenId",
          "type": "uint256"
        },
        {
          "internalType": "bytes",
          "name": "data",
          "type": "bytes"
        }
      ],
      "name": "safeTransferFrom",
      "outputs": [],
      "stateMutability": "nonpayable",
      "type": "function"
    },
    {
      "inputs": [
        {
          "internalType": "address",
          "name": "to",
          "type": "address"
        },
        {
          "internalType": "uint256",
          "name": "tokenId",
          "type": "uint256"
        },
        {
          "internalType": "string",
          "name": "_tokenURI",
          "type": "string"
        }
      ],
      "name": "mint",
      "outputs": [],
      "stateMutability": "nonpayable",
      "type": "function"
    },
    {
      "inputs": [
        {
          "internalType": "address",
          "name": "to",
          "type": "address"
        },
        {
          "internalType": "uint256",
          "name": "tokenId",
          "type": "uint256"
        },
        {
          "internalType": "string",
          "name": "_tokenURI",
          "type": "string"
        },
        {
          "internalType": "bytes",
          "name": "data",
          "type": "bytes"
        }
      ],
      "name": "safeMint",
      "outputs": [],
      "stateMutability": "nonpayable",
      "type": "function"
    },
    {
      "inputs": [
        {
          "internalType": "address",
          "name": "to",
          "type": "address"
        },
        {
          "internalType": "uint256",
          "name": "tokenId",
          "type": "uint256"
        },
        {
          "internalType": "string",
          "name": "_tokenURI",
          "type": "string"
        }
      ],
      "name": "safeMint",
      "outputs": [],
      "stateMutability": "nonpayable",
      "type": "function"
    },
    {
      "inputs": [
        {
          "internalType": "uint256",
          "name": "tokenId",
          "type": "uint256"
        }
      ],
      "name": "burn",
      "outputs": [],
      "stateMutability": "nonpayable",
      "type": "function"
    }
  ],
  "bytecode": "0x60806040523480156200001157600080fd5b5060405162003a8338038062003a83833981810160405281019062000037919062000338565b33600460006101000a81548173ffffffffffffffffffffffffffffffffffffffff021916908373ffffffffffffffffffffffffffffffffffffffff160217905550816006908162000089919062000608565b5080600790816200009b919062000608565b50620000af336001620000b760201b60201c565b505062000798565b600460009054906101000a900473ffffffffffffffffffffffffffffffffffffffff1673ffffffffffffffffffffffffffffffffffffffff163373ffffffffffffffffffffffffffffffffffffffff16146200014a576040517f08c379a0000000000000000000000000000000000000000000000000000000008152600401620001419062000776565b60405180910390fd5b80600560008473ffffffffffffffffffffffffffffffffffffffff1673ffffffffffffffffffffffffffffffffffffffff16815260200190815260200160002060006101000a81548160ff0219169083151502179055505050565b6000604051905090565b600080fd5b600080fd5b600080fd5b600080fd5b6000601f19601f8301169050919050565b7f4e487b7100000000000000000000000000000000000000000000000000000000600052604160045260246000fd5b6200020e82620001c3565b810181811067ffffffffffffffff8211171562000230576200022f620001d4565b5b80604052505050565b600062000245620001a5565b905062000253828262000203565b919050565b600067ffffffffffffffff821115620002765762000275620001d4565b5b6200028182620001c3565b9050602081019050919050565b60005b83811015620002ae57808201518184015260208101905062000291565b60008484015250505050565b6000620002d1620002cb8462000258565b62000239565b905082815260208101848484011115620002f057620002ef620001be565b5b620002fd8482856200028e565b509392505050565b600082601f8301126200031d576200031c620001b9565b5b81516200032f848260208601620002ba565b91505092915050565b60008060408385031215620003525762000351620001af565b5b600083015167ffffffffffffffff811115620003735762000372620001b4565b5b620003818582860162000305565b925050602083015167ffffffffffffffff811115620003a557620003a4620001b4565b5b620003b38582860162000305565b9150509250929050565b600081519050919050565b7f4e487b7100000000000000000000000000000000000000000000000000000000600052602260045260246000fd5b600060028204905060018216806200041057607f821691505b602082108103620004265762000425620003c8565b5b50919050565b60008190508160005260206000209050919050565b60006020601f8301049050919050565b600082821b905092915050565b600060088302620004907fffffffffffffffffffffffffffffffffffffffffffffffffffffffffffffffff8262000451565b6200049c868362000451565b95508019841693508086168417925050509392505050565b6000819050919050565b6000819050919050565b6000620004e9620004e3620004dd84620004b4565b620004be565b620004b4565b9050919050565b6000819050919050565b6200050583620004c8565b6200051d6200051482620004f0565b8484546200045e565b825550505050565b600090565b6200053462000525565b62000541818484620004fa565b505050565b5b8181101562000569576200055d6000826200052a565b60018101905062000547565b5050565b601f821115620005b85762000582816200042c565b6200058d8462000441565b810160208510156200059d578190505b620005b5620005ac8562000441565b83018262000546565b50505b505050565b600082821c905092915050565b6000620005dd60001984600802620005bd565b1980831691505092915050565b6000620005f88383620005ca565b9150826002028217905092915050565b6200061382620003bd565b67ffffffffffffffff8111156200062f576200062e620001d4565b5b6200063b8254620003f7565b620006488282856200056d565b600060209050601f8311600181146200068057600084156200066b578287015190505b620006778582620005ea565b865550620006e7565b601f19841662000690866200042c565b60005b82811015620006ba5784890151825560018201915060208501945060208101905062000693565b86831015620006da5784890151620006d6601f891682620005ca565b8355505b6001600288020188555050505b505050505050565b600082825260208201905092915050565b7f4e6f61684e46543a206f6e6c79206f776e65722063616e20616464206d696e7460008201527f6572000000000000000000000000000000000000000000000000000000000000602082015250565b60006200075e602283620006ef565b91506200076b8262000700565b604082019050919050565b6000602082019050818103600083015262000791816200074f565b9050919050565b6132db80620007a86000396000f3fe608060405234801561001057600080fd5b50600436106101735760003560e01c806370a08231116100de578063b55bc61711610097578063cd279c7c11610071578063cd279c7c14610492578063d3fc9864146104ae578063e985e9c5146104ca578063f46eccc4146104fa57610173565b8063b55bc6171461042a578063b88d4fde14610446578063c87b56dd1461046257610173565b806370a08231146103425780638da5cb5b1461037257806395d89b4114610390578063a22cb465146103ae578063aa271e1a146103ca578063acdeb5b9146103fa57610173565b806323b872dd1161013057806323b872dd1461027257806327e235e31461028e57806328f836f2146102be57806342842e0e146102da57806342966c68146102f65780636352211e1461031257610173565b806301ffc9a714610178578063025e7c27146101a857806306fdde03146101d8578063081812fc146101f6578063095ea7b3146102265780630d95e05414610242575b600080fd5b610192600480360381019061018d9190611e32565b61052a565b60405161019f9190611e7a565b60405180910390f35b6101c260048036038101906101bd9190611ecb565b610664565b6040516101cf9190611f39565b60405180910390f35b6101e0610697565b6040516101ed9190611fe4565b60405180910390f35b610210600480360381019061020b9190611ecb565b610729565b60405161021d9190611f39565b60405180910390f35b610240600480360381019061023b9190612032565b61080d565b005b61025c60048036038101906102579190612072565b610b0b565b6040516102699190611e7a565b60405180910390f35b61028c600480360381019061028791906120b2565b610b3a565b005b6102a860048036038101906102a39190612105565b610b4a565b6040516102b59190612141565b60405180910390f35b6102d860048036038101906102d39190612188565b610b62565b005b6102f460048036038101906102ef91906120b2565b610c4d565b005b610310600480360381019061030b9190611ecb565b610c6d565b005b61032c60048036038101906103279190611ecb565b610cef565b6040516103399190611f39565b60405180910390f35b61035c60048036038101906103579190612105565b610d01565b6040516103699190612141565b60405180910390f35b61037a610db7565b6040516103879190611f39565b60405180910390f35b610398610ddd565b6040516103a59190611fe4565b60405180910390f35b6103c860048036038101906103c39190612188565b610e6f565b005b6103e460048036038101906103df9190612105565b611049565b6040516103f19190611e7a565b60405180910390f35b610414600480360381019061040f9190611ecb565b61110d565b6040516104219190611f39565b60405180910390f35b610444600480360381019061043f9190612283565b611140565b005b610460600480360381019061045b919061232a565b6111dc565b005b61047c60048036038101906104779190611ecb565b611233565b6040516104899190611fe4565b60405180910390f35b6104ac60048036038101906104a791906123b2565b6112d8565b005b6104c860048036038101906104c39190612556565b61133d565b005b6104e460048036038101906104df9190612072565b61134d565b6040516104f19190611e7a565b60405180910390f35b610514600480360381019061050f9190612105565b6114be565b6040516105219190611e7a565b60405180910390f35b60007f80ac58cd000000000000000000000000000000000000000000000000000000007bffffffffffffffffffffffffffffffffffffffffffffffffffffffff1916827bffffffffffffffffffffffffffffffffffffffffffffffffffffffff191614806105f557507f5b5e139f000000000000000000000000000000000000000000000000000000007bffffffffffffffffffffffffffffffffffffffffffffffffffffffff1916827bffffffffffffffffffffffffffffffffffffffffffffffffffffffff1916145b8061065d57507f01ffc9a7000000000000000000000000000000000000000000000000000000007bffffffffffffffffffffffffffffffffffffffffffffffffffffffff1916827bffffffffffffffffffffffffffffffffffffffffffffffffffffffff1916145b9050919050565b60016020528060005260406000206000915054906101000a900473ffffffffffffffffffffffffffffffffffffffff1681565b6060600680546106a6906125f4565b80601f01602080910402602001604051908101604052809291908181526020018280546106d2906125f4565b801561071f5780601f106106f45761010080835404028352916020019161071f565b820191906000526020600020905b81548152906001019060200180831161070257829003601f168201915b5050505050905090565b6000806001600084815260200190815260200160002060009054906101000a900473ffffffffffffffffffffffffffffffffffffffff169050600073ffffffffffffffffffffffffffffffffffffffff168173ffffffffffffffffffffffffffffffffffffffff16036107d1576040517f08c379a00000000000000000000000000000000000000000000000000000000081526004016107c890612697565b60405180910390fd5b6002600084815260200190815260200160002060009054906101000a900473ffffffffffffffffffffffffffffffffffffffff16915050919050565b60006001600083815260200190815260200160002060009054906101000a900473ffffffffffffffffffffffffffffffffffffffff1690508073ffffffffffffffffffffffffffffffffffffffff163373ffffffffffffffffffffffffffffffffffffffff1614806108855750610884813361134d565b5b6108c4576040517f08c379a00000000000000000000000000000000000000000000000000000000081526004016108bb90612729565b60405180910390fd5b3373ffffffffffffffffffffffffffffffffffffffff168173ffffffffffffffffffffffffffffffffffffffff1614610932576040517f08c379a000000000000000000000000000000000000000000000000000000000815260040161092990612729565b60405180910390fd5b600073ffffffffffffffffffffffffffffffffffffffff168373ffffffffffffffffffffffffffffffffffffffff16036109a1576040517f08c379a0000000000000000000000000000000000000000000000000000000008152600401610998906127bb565b60405180910390fd5b8273ffffffffffffffffffffffffffffffffffffffff168173ffffffffffffffffffffffffffffffffffffffff1603610a0f576040517f08c379a0000000000000000000000000000000000000000000000000000000008152600401610a0690612827565b60405180910390fd5b610a19818461134d565b15610a59576040517f08c379a0000000000000000000000000000000000000000000000000000000008152600401610a5090612729565b60405180910390fd5b826002600084815260200190815260200160002060006101000a81548173ffffffffffffffffffffffffffffffffffffffff021916908373ffffffffffffffffffffffffffffffffffffffff160217905550818373ffffffffffffffffffffffffffffffffffffffff168273ffffffffffffffffffffffffffffffffffffffff167f8c5be1e5ebec7d5bd14f71427d1e84f3dd0314c0f7b2291e5b200ac8c7c3b92560405160405180910390a4505050565b60036020528160005260406000206020528060005260406000206000915091509054906101000a900460ff1681565b610b458383836114de565b505050565b60006020528060005260406000206000915090505481565b600460009054906101000a900473ffffffffffffffffffffffffffffffffffffffff1673ffffffffffffffffffffffffffffffffffffffff163373ffffffffffffffffffffffffffffffffffffffff1614610bf2576040517f08c379a0000000000000000000000000000000000000000000000000000000008152600401610be9906128b9565b60405180910390fd5b80600560008473ffffffffffffffffffffffffffffffffffffffff1673ffffffffffffffffffffffffffffffffffffffff16815260200190815260200160002060006101000a81548160ff0219169083151502179055505050565b610c6883838360405180602001604052806000815250611759565b505050565b610c76816117b5565b73ffffffffffffffffffffffffffffffffffffffff163373ffffffffffffffffffffffffffffffffffffffff1614610ce3576040517f08c379a0000000000000000000000000000000000000000000000000000000008152600401610cda90612925565b60405180910390fd5b610cec81611866565b50565b6000610cfa826117b5565b9050919050565b60008073ffffffffffffffffffffffffffffffffffffffff168273ffffffffffffffffffffffffffffffffffffffff1603610d71576040517f08c379a0000000000000000000000000000000000000000000000000000000008152600401610d68906129b7565b60405180910390fd5b6000808373ffffffffffffffffffffffffffffffffffffffff1673ffffffffffffffffffffffffffffffffffffffff168152602001908152602001600020549050919050565b600460009054906101000a900473ffffffffffffffffffffffffffffffffffffffff1681565b606060078054610dec906125f4565b80601f0160208091040260200160405190810160405280929190818152602001828054610e18906125f4565b8015610e655780601f10610e3a57610100808354040283529160200191610e65565b820191906000526020600020905b815481529060010190602001808311610e4857829003601f168201915b5050505050905090565b600073ffffffffffffffffffffffffffffffffffffffff168273ffffffffffffffffffffffffffffffffffffffff1603610ede576040517f08c379a0000000000000000000000000000000000000000000000000000000008152600401610ed5906127bb565b60405180910390fd5b3373ffffffffffffffffffffffffffffffffffffffff168273ffffffffffffffffffffffffffffffffffffffff1603610f4c576040517f08c379a0000000000000000000000000000000000000000000000000000000008152600401610f4390612827565b60405180910390fd5b80600360003373ffffffffffffffffffffffffffffffffffffffff1673ffffffffffffffffffffffffffffffffffffffff16815260200190815260200160002060008473ffffffffffffffffffffffffffffffffffffffff1673ffffffffffffffffffffffffffffffffffffffff16815260200190815260200160002060006101000a81548160ff0219169083151502179055508173ffffffffffffffffffffffffffffffffffffffff163373ffffffffffffffffffffffffffffffffffffffff167f17307eab39ab6107e8899845ad3d59bd9653f200f220920489ca2b5937696c318360405161103d9190611e7a565b60405180910390a35050565b60008073ffffffffffffffffffffffffffffffffffffffff168273ffffffffffffffffffffffffffffffffffffffff16036110b9576040517f08c379a00000000000000000000000000000000000000000000000000000000081526004016110b090612a49565b60405180910390fd5b600560008373ffffffffffffffffffffffffffffffffffffffff1673ffffffffffffffffffffffffffffffffffffffff16815260200190815260200160002060009054906101000a900460ff169050919050565b60026020528060005260406000206000915054906101000a900473ffffffffffffffffffffffffffffffffffffffff1681565b6111d4868686868080601f016020809104026020016040519081016040528093929190818152602001838380828437600081840152601f19601f8201169050808301925050505050505085858080601f016020809104026020016040519081016040528093929190818152602001838380828437600081840152601f19601f8201169050808301925050505050505061187d565b505050505050565b61122c85858585858080601f016020809104026020016040519081016040528093929190818152602001838380828437600081840152601f19601f82011690508083019250505050505050611759565b5050505050565b6060600860008381526020019081526020016000208054611253906125f4565b80601f016020809104026020016040519081016040528092919081815260200182805461127f906125f4565b80156112cc5780601f106112a1576101008083540402835291602001916112cc565b820191906000526020600020905b8154815290600101906020018083116112af57829003601f168201915b50505050509050919050565b611337848484848080601f016020809104026020016040519081016040528093929190818152602001838380828437600081840152601f19601f820116905080830192505050505050506040518060200160405280600081525061187d565b50505050565b6113488383836118da565b505050565b60008073ffffffffffffffffffffffffffffffffffffffff168373ffffffffffffffffffffffffffffffffffffffff16036113bd576040517f08c379a00000000000000000000000000000000000000000000000000000000081526004016113b490612adb565b60405180910390fd5b600073ffffffffffffffffffffffffffffffffffffffff168273ffffffffffffffffffffffffffffffffffffffff160361142c576040517f08c379a000000000000000000000000000000000000000000000000000000000815260040161142390612adb565b60405180910390fd5b600360008473ffffffffffffffffffffffffffffffffffffffff1673ffffffffffffffffffffffffffffffffffffffff16815260200190815260200160002060008373ffffffffffffffffffffffffffffffffffffffff1673ffffffffffffffffffffffffffffffffffffffff16815260200190815260200160002060009054906101000a900460ff16905092915050565b60056020528060005260406000206000915054906101000a900460ff1681565b60006001600083815260200190815260200160002060009054906101000a900473ffffffffffffffffffffffffffffffffffffffff1690508373ffffffffffffffffffffffffffffffffffffffff168173ffffffffffffffffffffffffffffffffffffffff1614611584576040517f08c379a000000000000000000000000000000000000000000000000000000000815260040161157b90612b6d565b60405180910390fd5b600073ffffffffffffffffffffffffffffffffffffffff168373ffffffffffffffffffffffffffffffffffffffff16036115f3576040517f08c379a00000000000000000000000000000000000000000000000000000000081526004016115ea90612bff565b60405180910390fd5b3373ffffffffffffffffffffffffffffffffffffffff168173ffffffffffffffffffffffffffffffffffffffff1614806116335750611632813361134d565b5b8061169c57503373ffffffffffffffffffffffffffffffffffffffff166002600084815260200190815260200160002060009054906101000a900473ffffffffffffffffffffffffffffffffffffffff1673ffffffffffffffffffffffffffffffffffffffff16145b6116db576040517f08c379a00000000000000000000000000000000000000000000000000000000081526004016116d290612c91565b60405180910390fd5b6116e482611a4a565b6116ee8483611aeb565b6116f88383611b7b565b818373ffffffffffffffffffffffffffffffffffffffff168573ffffffffffffffffffffffffffffffffffffffff167fddf252ad1be2c89b69c2b068fc378daa952ba7f163c4a11628f55a4df523b3ef60405160405180910390a450505050565b6117648484846114de565b61177084848484611c27565b6117af576040517f08c379a00000000000000000000000000000000000000000000000000000000081526004016117a690612d23565b60405180910390fd5b50505050565b6000806001600084815260200190815260200160002060009054906101000a900473ffffffffffffffffffffffffffffffffffffffff169050600073ffffffffffffffffffffffffffffffffffffffff168173ffffffffffffffffffffffffffffffffffffffff160361185d576040517f08c379a000000000000000000000000000000000000000000000000000000000815260040161185490612db5565b60405180910390fd5b80915050919050565b61187a611872826117b5565b6000836114de565b50565b6118888484846118da565b6118956000858584611c27565b6118d4576040517f08c379a00000000000000000000000000000000000000000000000000000000081526004016118cb90612d23565b60405180910390fd5b50505050565b600560003373ffffffffffffffffffffffffffffffffffffffff1673ffffffffffffffffffffffffffffffffffffffff16815260200190815260200160002060009054906101000a900460ff16611966576040517f08c379a000000000000000000000000000000000000000000000000000000000815260040161195d90612e21565b60405180910390fd5b600073ffffffffffffffffffffffffffffffffffffffff168373ffffffffffffffffffffffffffffffffffffffff16036119d5576040517f08c379a00000000000000000000000000000000000000000000000000000000081526004016119cc90612e8d565b60405180910390fd5b6119df8383611b7b565b818373ffffffffffffffffffffffffffffffffffffffff16600073ffffffffffffffffffffffffffffffffffffffff167fddf252ad1be2c89b69c2b068fc378daa952ba7f163c4a11628f55a4df523b3ef60405160405180910390a4611a458282611da1565b505050565b600073ffffffffffffffffffffffffffffffffffffffff166002600083815260200190815260200160002060009054906101000a900473ffffffffffffffffffffffffffffffffffffffff1673ffffffffffffffffffffffffffffffffffffffff1614611ae8576002600082815260200190815260200160002060006101000a81549073ffffffffffffffffffffffffffffffffffffffff02191690555b50565b60016000808473ffffffffffffffffffffffffffffffffffffffff1673ffffffffffffffffffffffffffffffffffffffff1681526020019081526020016000206000828254611b3a9190612edc565b925050819055506001600082815260200190815260200160002060006101000a81549073ffffffffffffffffffffffffffffffffffffffff02191690555050565b60016000808473ffffffffffffffffffffffffffffffffffffffff1673ffffffffffffffffffffffffffffffffffffffff1681526020019081526020016000206000828254611bca9190612f10565b92505081905550816001600083815260200190815260200160002060006101000a81548173ffffffffffffffffffffffffffffffffffffffff021916908373ffffffffffffffffffffffffffffffffffffffff1602179055505050565b6000808473ffffffffffffffffffffffffffffffffffffffff163b03611c505760019050611d99565b8373ffffffffffffffffffffffffffffffffffffffff1663150b7a02338786866040518563ffffffff1660e01b8152600401611c8f9493929190612f99565b6020604051808303816000875af1925050508015611ccb57506040513d601f19601f82011682018060405250810190611cc89190612ffa565b60015b611d4d573d8060008114611cfb576040519150601f19603f3d011682016040523d82523d6000602084013e611d00565b606091505b506000815103611d45576040517f08c379a0000000000000000000000000000000000000000000000000000000008152600401611d3c90612d23565b60405180910390fd5b805181602001fd5b63150b7a0260e01b7bffffffffffffffffffffffffffffffffffffffffffffffffffffffff1916817bffffffffffffffffffffffffffffffffffffffffffffffffffffffff1916149150505b949350505050565b80600860008481526020019081526020016000209081611dc191906131d3565b505050565b6000604051905090565b600080fd5b600080fd5b60007fffffffff0000000000000000000000000000000000000000000000000000000082169050919050565b611e0f81611dda565b8114611e1a57600080fd5b50565b600081359050611e2c81611e06565b92915050565b600060208284031215611e4857611e47611dd0565b5b6000611e5684828501611e1d565b91505092915050565b60008115159050919050565b611e7481611e5f565b82525050565b6000602082019050611e8f6000830184611e6b565b92915050565b6000819050919050565b611ea881611e95565b8114611eb357600080fd5b50565b600081359050611ec581611e9f565b92915050565b600060208284031215611ee157611ee0611dd0565b5b6000611eef84828501611eb6565b91505092915050565b600073ffffffffffffffffffffffffffffffffffffffff82169050919050565b6000611f2382611ef8565b9050919050565b611f3381611f18565b82525050565b6000602082019050611f4e6000830184611f2a565b92915050565b600081519050919050565b600082825260208201905092915050565b60005b83811015611f8e578082015181840152602081019050611f73565b60008484015250505050565b6000601f19601f8301169050919050565b6000611fb682611f54565b611fc08185611f5f565b9350611fd0818560208601611f70565b611fd981611f9a565b840191505092915050565b60006020820190508181036000830152611ffe8184611fab565b905092915050565b61200f81611f18565b811461201a57600080fd5b50565b60008135905061202c81612006565b92915050565b6000806040838503121561204957612048611dd0565b5b60006120578582860161201d565b925050602061206885828601611eb6565b9150509250929050565b6000806040838503121561208957612088611dd0565b5b60006120978582860161201d565b92505060206120a88582860161201d565b9150509250929050565b6000806000606084860312156120cb576120ca611dd0565b5b60006120d98682870161201d565b93505060206120ea8682870161201d565b92505060406120fb86828701611eb6565b9150509250925092565b60006020828403121561211b5761211a611dd0565b5b60006121298482850161201d565b91505092915050565b61213b81611e95565b82525050565b60006020820190506121566000830184612132565b92915050565b61216581611e5f565b811461217057600080fd5b50565b6000813590506121828161215c565b92915050565b6000806040838503121561219f5761219e611dd0565b5b60006121ad8582860161201d565b92505060206121be85828601612173565b9150509250929050565b600080fd5b600080fd5b600080fd5b60008083601f8401126121ed576121ec6121c8565b5b8235905067ffffffffffffffff81111561220a576122096121cd565b5b602083019150836001820283011115612226576122256121d2565b5b9250929050565b60008083601f840112612243576122426121c8565b5b8235905067ffffffffffffffff8111156122605761225f6121cd565b5b60208301915083600182028301111561227c5761227b6121d2565b5b9250929050565b600080600080600080608087890312156122a05761229f611dd0565b5b60006122ae89828a0161201d565b96505060206122bf89828a01611eb6565b955050604087013567ffffffffffffffff8111156122e0576122df611dd5565b5b6122ec89828a016121d7565b9450945050606087013567ffffffffffffffff81111561230f5761230e611dd5565b5b61231b89828a0161222d565b92509250509295509295509295565b60008060008060006080868803121561234657612345611dd0565b5b60006123548882890161201d565b95505060206123658882890161201d565b945050604061237688828901611eb6565b935050606086013567ffffffffffffffff81111561239757612396611dd5565b5b6123a38882890161222d565b92509250509295509295909350565b600080600080606085870312156123cc576123cb611dd0565b5b60006123da8782880161201d565b94505060206123eb87828801611eb6565b935050604085013567ffffffffffffffff81111561240c5761240b611dd5565b5b612418878288016121d7565b925092505092959194509250565b600080fd5b7f4e487b7100000000000000000000000000000000000000000000000000000000600052604160045260246000fd5b61246382611f9a565b810181811067ffffffffffffffff821117156124825761248161242b565b5b80604052505050565b6000612495611dc6565b90506124a1828261245a565b919050565b600067ffffffffffffffff8211156124c1576124c061242b565b5b6124ca82611f9a565b9050602081019050919050565b82818337600083830152505050565b60006124f96124f4846124a6565b61248b565b90508281526020810184848401111561251557612514612426565b5b6125208482856124d7565b509392505050565b600082601f83011261253d5761253c6121c8565b5b813561254d8482602086016124e6565b91505092915050565b60008060006060848603121561256f5761256e611dd0565b5b600061257d8682870161201d565b935050602061258e86828701611eb6565b925050604084013567ffffffffffffffff8111156125af576125ae611dd5565b5b6125bb86828701612528565b9150509250925092565b7f4e487b7100000000000000000000000000000000000000000000000000000000600052602260045260246000fd5b6000600282049050600182168061260c57607f821691505b60208210810361261f5761261e6125c5565b5b50919050565b7f4552433732313a20617070726f76656420717565727920666f72206e6f6e657860008201527f697374656e7420746f6b656e0000000000000000000000000000000000000000602082015250565b6000612681602c83611f5f565b915061268c82612625565b604082019050919050565b600060208201905081810360008301526126b081612674565b9050919050565b7f4552433732313a20617070726f76652063616c6c6572206973206e6f74206f7760008201527f6e6572206e6f7220617070726f76656420666f7220616c6c0000000000000000602082015250565b6000612713603883611f5f565b915061271e826126b7565b604082019050919050565b6000602082019050818103600083015261274281612706565b9050919050565b7f4552433732313a20617070726f766520746f20746865207a65726f206164647260008201527f6573730000000000000000000000000000000000000000000000000000000000602082015250565b60006127a5602383611f5f565b91506127b082612749565b604082019050919050565b600060208201905081810360008301526127d481612798565b9050919050565b7f4552433732313a20617070726f766520746f2063616c6c657200000000000000600082015250565b6000612811601983611f5f565b915061281c826127db565b602082019050919050565b6000602082019050818103600083015261284081612804565b9050919050565b7f4e6f61684e46543a206f6e6c79206f776e65722063616e20616464206d696e7460008201527f6572000000000000000000000000000000000000000000000000000000000000602082015250565b60006128a3602283611f5f565b91506128ae82612847565b604082019050919050565b600060208201905081810360008301526128d281612896565b9050919050565b7f4552433732313a2063616c6c6572206973206e6f7420746865206f776e657200600082015250565b600061290f601f83611f5f565b915061291a826128d9565b602082019050919050565b6000602082019050818103600083015261293e81612902565b9050919050565b7f4552433732313a2062616c616e636520717565727920666f7220746865207a6560008201527f726f206164647265737300000000000000000000000000000000000000000000602082015250565b60006129a1602a83611f5f565b91506129ac82612945565b604082019050919050565b600060208201905081810360008301526129d081612994565b9050919050565b7f4e6f61684e46543a206d696e74657220697320746865207a65726f206164647260008201527f6573730000000000000000000000000000000000000000000000000000000000602082015250565b6000612a33602383611f5f565b9150612a3e826129d7565b604082019050919050565b60006020820190508181036000830152612a6281612a26565b9050919050565b7f4552433732313a206f70657261746f7220717565727920666f72206e6f6e657860008201527f697374656e7420746f6b656e0000000000000000000000000000000000000000602082015250565b6000612ac5602c83611f5f565b9150612ad082612a69565b604082019050919050565b60006020820190508181036000830152612af481612ab8565b9050919050565b7f4552433732313a207472616e73666572206f6620746f6b656e2074686174206960008201527f73206e6f74206f776e0000000000000000000000000000000000000000000000602082015250565b6000612b57602983611f5f565b9150612b6282612afb565b604082019050919050565b60006020820190508181036000830152612b8681612b4a565b9050919050565b7f4552433732313a207472616e7366657220746f20746865207a65726f2061646460008201527f7265737300000000000000000000000000000000000000000000000000000000602082015250565b6000612be9602483611f5f565b9150612bf482612b8d565b604082019050919050565b60006020820190508181036000830152612c1881612bdc565b9050919050565b7f4552433732313a207472616e736665722063616c6c6572206973206e6f74206f60008201527f776e6572206e6f7220617070726f76656420666f7220616c6c00000000000000602082015250565b6000612c7b603983611f5f565b9150612c8682612c1f565b604082019050919050565b60006020820190508181036000830152612caa81612c6e565b9050919050565b7f4552433732313a207472616e7366657220746f206e6f6e20455243373231526560008201527f63656976657220696d706c656d656e7465720000000000000000000000000000602082015250565b6000612d0d603283611f5f565b9150612d1882612cb1565b604082019050919050565b60006020820190508181036000830152612d3c81612d00565b9050919050565b7f4552433732313a206f776e657220717565727920666f72206e6f6e657869737460008201527f656e7420746f6b656e0000000000000000000000000000000000000000000000602082015250565b6000612d9f602983611f5f565b9150612daa82612d43565b604082019050919050565b60006020820190508181036000830152612dce81612d92565b9050919050565b7f4552433732313a2063616c6c6572206973206e6f7420746865206d696e746572600082015250565b6000612e0b602083611f5f565b9150612e1682612dd5565b602082019050919050565b60006020820190508181036000830152612e3a81612dfe565b9050919050565b7f4552433732313a206d696e7420746f20746865207a65726f2061646472657373600082015250565b6000612e77602083611f5f565b9150612e8282612e41565b602082019050919050565b60006020820190508181036000830152612ea681612e6a565b9050919050565b7f4e487b7100000000000000000000000000000000000000000000000000000000600052601160045260246000fd5b6000612ee782611e95565b9150612ef283611e95565b9250828203905081811115612f0a57612f09612ead565b5b92915050565b6000612f1b82611e95565b9150612f2683611e95565b9250828201905080821115612f3e57612f3d612ead565b5b92915050565b600081519050919050565b600082825260208201905092915050565b6000612f6b82612f44565b612f758185612f4f565b9350612f85818560208601611f70565b612f8e81611f9a565b840191505092915050565b6000608082019050612fae6000830187611f2a565b612fbb6020830186611f2a565b612fc86040830185612132565b8181036060830152612fda8184612f60565b905095945050505050565b600081519050612ff481611e06565b92915050565b6000602082840312156130105761300f611dd0565b5b600061301e84828501612fe5565b91505092915050565b60008190508160005260206000209050919050565b60006020601f8301049050919050565b600082821b905092915050565b6000600883026130897fffffffffffffffffffffffffffffffffffffffffffffffffffffffffffffffff8261304c565b613093868361304c565b95508019841693508086168417925050509392505050565b6000819050919050565b60006130d06130cb6130c684611e95565b6130ab565b611e95565b9050919050565b6000819050919050565b6130ea836130b5565b6130fe6130f6826130d7565b848454613059565b825550505050565b600090565b613113613106565b61311e8184846130e1565b505050565b5b818110156131425761313760008261310b565b600181019050613124565b5050565b601f8211156131875761315881613027565b6131618461303c565b81016020851015613170578190505b61318461317c8561303c565b830182613123565b50505b505050565b600082821c905092915050565b60006131aa6000198460080261318c565b1980831691505092915050565b60006131c38383613199565b9150826002028217905092915050565b6131dc82611f54565b67ffffffffffffffff8111156131f5576131f461242b565b5b6131ff82546125f4565b61320a828285613146565b600060209050601f83116001811461323d576000841561322b578287015190505b61323585826131b7565b86555061329d565b601f19841661324b86613027565b60005b828110156132735784890151825560018201915060208501945060208101905061324e565b86831015613290578489015161328c601f891682613199565b8355505b6001600288020188555050505b50505050505056fea2646970667358221220f2cb4c881f9b1f75182c3de61797b8d0b213a516b84fe40e331227ec0efb608464736f6c63430008110033",
  "immutableReferences": {},
  "source": "// SPDX-License-Identifier: MIT\n\npragma solidity ^0.8.0;\n\nimport \"./IERC721.sol\";\nimport \"./IERC165.sol\";\n\ncontract NoahNFT is IERC721, IERC721Metadata, IERC165 {\n    mapping(address => uint256) public balances; //   NFT  =>  NFT \n    mapping(uint256 => address) public owners; //   NFT id =>  NFT \n    mapping(uint256 => address) public tokenApprovals; //  NFT id =>  NFT \n    mapping(address => mapping(address => bool)) public operatorApprovals; //  NFT   NFT  =>  => \n    address public owner; // \n    mapping(address => bool) public minters; // NFT  NFT\n    string private _name; //  NFT \n    string private _symbol; //  NFT \n    mapping(uint256 => string) private _tokenURIs; //  NFT   NFT id => \n\n    // \n    constructor(string memory initName, string memory initSymbol) {\n        owner = msg.sender;\n        _name = initName;\n        _symbol = initSymbol;\n        approveMinter(msg.sender, true); //  NFT \n    }\n\n    // \n    function approveMinter(address minter, bool approved) public {\n        require(msg.sender == owner, \"NoahNFT: only owner can add minter\");\n        minters[minter] = approved;\n    }\n\n    //  NFT \n    function isMinter(address minter) public view returns (bool) {\n        require(minter != address(0), \"NoahNFT: minter is the zero address\");\n        return minters[minter];\n    }\n\n    // \n    function supportsInterface(bytes4 interfaceId)\n        public\n        pure\n        override\n        returns (bool)\n    {\n        return\n            interfaceId == type(IERC721).interfaceId ||\n            interfaceId == type(IERC721Metadata).interfaceId ||\n            interfaceId == type(IERC165).interfaceId;\n    }\n\n    //  NFT \n    function name() public view override returns (string memory) {\n        return _name;\n    }\n\n    //  NFT \n    function symbol() public view override returns (string memory) {\n        return _symbol;\n    }\n\n    //  NFT  MetadataURI\n    function tokenURI(uint256 tokenId)\n        public\n        view\n        override\n        returns (string memory)\n    {\n        return _tokenURIs[tokenId];\n    }\n\n    //  NFT \n    function balanceOf(address _owner) public view override returns (uint256) {\n        //  NFT 0\n        require(\n            _owner != address(0),\n            \"ERC721: balance query for the zero address\"\n        );\n        return balances[_owner];\n    }\n\n    //  NFT \n    function ownerOf(uint256 tokenId) public view override returns (address) {\n        return _ownerOf(tokenId);\n    }\n\n    //  NFT  \n    function _ownerOf(uint256 tokenId) internal view returns (address) {\n        address tokenOwner = owners[tokenId];\n        //  NFT 0\n        require(\n            tokenOwner != address(0),\n            \"ERC721: owner query for nonexistent token\"\n        );\n        return tokenOwner;\n    }\n\n    //  NFT\n    function approve(address to, uint256 tokenId) public override {\n        address tokenOwner = owners[tokenId]; //  NFT \n        //  NFT  NFT  NFT \n        require(\n            msg.sender == tokenOwner ||\n                isApprovedForAll(tokenOwner, msg.sender),\n            \"ERC721: approve caller is not owner nor approved for all\"\n        );\n        // NFT  NFT \n        require(\n            tokenOwner == msg.sender,\n            \"ERC721: approve caller is not owner nor approved for all\"\n        );\n        // 0\n        require(to != address(0), \"ERC721: approve to the zero address\");\n        // \n        require(tokenOwner != to, \"ERC721: approve to caller\");\n        //  NFT \n        require(\n            !isApprovedForAll(tokenOwner, to),\n            \"ERC721: approve caller is not owner nor approved for all\"\n        );\n        //  NFT \n        tokenApprovals[tokenId] = to;\n        // \n        emit Approval(tokenOwner, to, tokenId);\n    }\n\n    //  NFT \n    function getApproved(uint256 tokenId)\n        public\n        view\n        override\n        returns (address)\n    {\n        address tokenOwner = owners[tokenId]; //  NFT \n        //  NFT 0\n        require(\n            tokenOwner != address(0),\n            \"ERC721: approved query for nonexistent token\"\n        );\n        return tokenApprovals[tokenId];\n    }\n\n    //  NFT\n    function setApprovalForAll(address operator, bool approved)\n        public\n        override\n    {\n        // 0\n        require(operator != address(0), \"ERC721: approve to the zero address\");\n        // \n        require(operator != msg.sender, \"ERC721: approve to caller\");\n        //  NFT \n        operatorApprovals[msg.sender][operator] = approved;\n        //  NFT \n        emit ApprovalForAll(msg.sender, operator, approved);\n    }\n\n    //  NFT  NFT \n    function isApprovedForAll(address _owner, address operator)\n        public\n        view\n        override\n        returns (bool)\n    {\n        //  NFT 0\n        require(\n            _owner != address(0),\n            \"ERC721: operator query for nonexistent token\"\n        );\n        // 0\n        require(\n            operator != address(0),\n            \"ERC721: operator query for nonexistent token\"\n        );\n        return operatorApprovals[_owner][operator];\n    }\n\n    //  NFT\n    function transferFrom(\n        address from,\n        address to,\n        uint256 tokenId\n    ) public override {\n        _transfer(from, to, tokenId);\n    }\n\n    //  NFT\n    function _transfer(\n        address from,\n        address to,\n        uint256 tokenId\n    ) internal {\n        address tokenOwner = owners[tokenId]; //  NFT \n        // from  NFT \n        require(\n            tokenOwner == from,\n            \"ERC721: transfer of token that is not own\"\n        );\n        // 0\n        require(to != address(0), \"ERC721: transfer to the zero address\");\n        //  NFT  NFT  NFT  NFT  NFT \n        require(\n            tokenOwner == msg.sender ||\n                isApprovedForAll(tokenOwner, msg.sender) ||\n                tokenApprovals[tokenId] == msg.sender,\n            \"ERC721: transfer caller is not owner nor approved for all\"\n        );\n        //  NFT \n        _clearApproval(tokenId);\n        //  NFT \n        _removeTokenFrom(from, tokenId);\n        //  NFT\n        _addTokenTo(to, tokenId);\n        //  NFT \n        emit Transfer(from, to, tokenId);\n    }\n\n    //  NFT \n    function _clearApproval(uint256 tokenId) internal {\n        //  NFT \n        if (tokenApprovals[tokenId] != address(0)) {\n            delete tokenApprovals[tokenId];\n        }\n    }\n\n    //  NFT \n    function _removeTokenFrom(address from, uint256 tokenId) internal {\n        //  NFT \n        balances[from] -= 1;\n        //  NFT  NFT\n        delete owners[tokenId];\n    }\n\n    //  NFT\n    function _addTokenTo(address to, uint256 tokenId) internal {\n        //  NFT \n        balances[to] += 1;\n        //  NFT  NFT \n        owners[tokenId] = to;\n    }\n\n    //  NFT\n    function _checkOnERC721Received(\n        address from,\n        address to,\n        uint256 tokenId,\n        bytes memory _data\n    ) internal returns (bool) {\n        // \n        if (to.code.length == 0) {\n            return true;\n        }\n        //  onERC721Received \n        try\n            IERC721Receiver(to).onERC721Received(\n                msg.sender,\n                from,\n                tokenId,\n                _data\n            )\n        returns (bytes4 retval) {\n            //  ERC721_RECEIVED \n            return retval == IERC721Receiver(to).onERC721Received.selector;\n        } catch (bytes memory reason) {\n            // \n            if (reason.length == 0) {\n                revert(\"ERC721: transfer to non ERC721Receiver implementer\");\n            } else {\n                assembly {\n                    revert(add(32, reason), mload(reason))\n                }\n            }\n        }\n    }\n\n    //  NFT   data \n    function safeTransferFrom(\n        address from,\n        address to,\n        uint256 tokenId\n    ) public override {\n        //  NFT\n        _safeTransfer(from, to, tokenId, \"\");\n    }\n\n    //  NFT   data \n    function safeTransferFrom(\n        address from,\n        address to,\n        uint256 tokenId,\n        bytes calldata data\n    ) public override {\n        _safeTransfer(from, to, tokenId, data);\n    }\n\n    //  NFT  \n    function _safeTransfer(\n        address from,\n        address to,\n        uint256 tokenId,\n        bytes memory data\n    ) internal {\n        //  NFT\n        _transfer(from, to, tokenId);\n        //  NFT\n        require(\n            _checkOnERC721Received(from, to, tokenId, data),\n            \"ERC721: transfer to non ERC721Receiver implementer\"\n        );\n    }\n\n    //  NFT\n    function mint(\n        address to,\n        uint256 tokenId,\n        string memory _tokenURI\n    ) public {\n        //  NFT\n        _mint(to, tokenId, _tokenURI);\n    }\n\n    //  NFT   data \n    function safeMint(\n        address to,\n        uint256 tokenId,\n        string calldata _tokenURI\n    ) public {\n        _safeMint(to, tokenId, _tokenURI, \"\");\n    }\n\n    //  NFT   data \n    function safeMint(\n        address to,\n        uint256 tokenId,\n        string calldata _tokenURI,\n        bytes calldata data\n    ) public {\n        _safeMint(to, tokenId, _tokenURI, data);\n    }\n\n    //  NFT  \n    function _mint(\n        address to,\n        uint256 tokenId,\n        string memory _tokenURI\n    ) internal {\n        // \n        require(minters[msg.sender], \"ERC721: caller is not the minter\");\n        // 0\n        require(to != address(0), \"ERC721: mint to the zero address\");\n\n        //  NFT\n        _addTokenTo(to, tokenId);\n        //  NFT \n        emit Transfer(address(0), to, tokenId);\n\n        //  Token URI\n        _setTokenURI(tokenId, _tokenURI);\n    }\n\n    //  Token URI \n    function _setTokenURI(uint256 tokenId, string memory _tokenURI) internal {\n        //  Token URI\n        _tokenURIs[tokenId] = _tokenURI;\n    }\n\n    //  NFT  \n    function _safeMint(\n        address to,\n        uint256 tokenId,\n        string memory _tokenURI,\n        bytes memory _data\n    ) internal {\n        //  NFT\n        _mint(to, tokenId, _tokenURI);\n        //  NFT\n        require(\n            _checkOnERC721Received(address(0), to, tokenId, _data),\n            \"ERC721: transfer to non ERC721Receiver implementer\"\n        );\n    }\n\n    //  NFT\n    function burn(uint256 tokenId) public {\n        //  NFT \n        require(\n            msg.sender == _ownerOf(tokenId),\n            \"ERC721: caller is not the owner\"\n        );\n        //  NFT\n        _burn(tokenId);\n    }\n\n    //  NFT  \n    function _burn(uint256 tokenId) internal {\n        //  NFT\n        _transfer(_ownerOf(tokenId), address(0), tokenId);\n    }\n}\n",
  "sourcePath": "/Users/luzhenqian/Work/web3/web3-examples/contract/noah-nft/contracts/NoahNFT.sol",
  "compiler": {
    "name": "solc",
    "version": "0.8.17+commit.8df45f5f.Emscripten.clang"
  },
  "schemaVersion": "3.4.11",
  "updatedAt": "2023-01-10T18:52:25.909Z",
  "networkType": "ethereum",
  "devdoc": {
    "kind": "dev",
    "methods": {},
    "version": 1
  },
  "userdoc": {
    "kind": "user",
    "methods": {},
    "version": 1
  }
}