{
  "contractName": "NoahNFT",
  "abi": [
    {
      "inputs": [
        {
          "internalType": "string",
          "name": "initName",
          "type": "string"
        },
        {
          "internalType": "string",
          "name": "initSymbol",
          "type": "string"
        },
        {
          "internalType": "string",
          "name": "baseURI",
          "type": "string"
        }
      ],
      "stateMutability": "nonpayable",
      "type": "constructor"
    },
    {
      "anonymous": false,
      "inputs": [
        {
          "indexed": true,
          "internalType": "address",
          "name": "owner",
          "type": "address"
        },
        {
          "indexed": true,
          "internalType": "address",
          "name": "approved",
          "type": "address"
        },
        {
          "indexed": true,
          "internalType": "uint256",
          "name": "tokenId",
          "type": "uint256"
        }
      ],
      "name": "Approval",
      "type": "event"
    },
    {
      "anonymous": false,
      "inputs": [
        {
          "indexed": true,
          "internalType": "address",
          "name": "owner",
          "type": "address"
        },
        {
          "indexed": true,
          "internalType": "address",
          "name": "operator",
          "type": "address"
        },
        {
          "indexed": false,
          "internalType": "bool",
          "name": "approved",
          "type": "bool"
        }
      ],
      "name": "ApprovalForAll",
      "type": "event"
    },
    {
      "anonymous": false,
      "inputs": [
        {
          "indexed": true,
          "internalType": "address",
          "name": "from",
          "type": "address"
        },
        {
          "indexed": true,
          "internalType": "address",
          "name": "to",
          "type": "address"
        },
        {
          "indexed": true,
          "internalType": "uint256",
          "name": "tokenId",
          "type": "uint256"
        }
      ],
      "name": "Transfer",
      "type": "event"
    },
    {
      "inputs": [
        {
          "internalType": "address",
          "name": "",
          "type": "address"
        }
      ],
      "name": "balances",
      "outputs": [
        {
          "internalType": "uint256",
          "name": "",
          "type": "uint256"
        }
      ],
      "stateMutability": "view",
      "type": "function",
      "constant": true
    },
    {
      "inputs": [
        {
          "internalType": "address",
          "name": "",
          "type": "address"
        },
        {
          "internalType": "address",
          "name": "",
          "type": "address"
        }
      ],
      "name": "operatorApprovals",
      "outputs": [
        {
          "internalType": "bool",
          "name": "",
          "type": "bool"
        }
      ],
      "stateMutability": "view",
      "type": "function",
      "constant": true
    },
    {
      "inputs": [],
      "name": "owner",
      "outputs": [
        {
          "internalType": "address",
          "name": "",
          "type": "address"
        }
      ],
      "stateMutability": "view",
      "type": "function",
      "constant": true
    },
    {
      "inputs": [
        {
          "internalType": "uint256",
          "name": "",
          "type": "uint256"
        }
      ],
      "name": "owners",
      "outputs": [
        {
          "internalType": "address",
          "name": "",
          "type": "address"
        }
      ],
      "stateMutability": "view",
      "type": "function",
      "constant": true
    },
    {
      "inputs": [
        {
          "internalType": "uint256",
          "name": "",
          "type": "uint256"
        }
      ],
      "name": "tokenApprovals",
      "outputs": [
        {
          "internalType": "address",
          "name": "",
          "type": "address"
        }
      ],
      "stateMutability": "view",
      "type": "function",
      "constant": true
    },
    {
      "inputs": [],
      "name": "totalSupply",
      "outputs": [
        {
          "internalType": "uint256",
          "name": "",
          "type": "uint256"
        }
      ],
      "stateMutability": "view",
      "type": "function",
      "constant": true
    },
    {
      "inputs": [
        {
          "internalType": "bytes4",
          "name": "interfaceId",
          "type": "bytes4"
        }
      ],
      "name": "supportsInterface",
      "outputs": [
        {
          "internalType": "bool",
          "name": "",
          "type": "bool"
        }
      ],
      "stateMutability": "pure",
      "type": "function",
      "constant": true
    },
    {
      "inputs": [],
      "name": "name",
      "outputs": [
        {
          "internalType": "string",
          "name": "",
          "type": "string"
        }
      ],
      "stateMutability": "view",
      "type": "function",
      "constant": true
    },
    {
      "inputs": [],
      "name": "symbol",
      "outputs": [
        {
          "internalType": "string",
          "name": "",
          "type": "string"
        }
      ],
      "stateMutability": "view",
      "type": "function",
      "constant": true
    },
    {
      "inputs": [
        {
          "internalType": "string",
          "name": "baseURI",
          "type": "string"
        }
      ],
      "name": "setBaseURI",
      "outputs": [],
      "stateMutability": "nonpayable",
      "type": "function"
    },
    {
      "inputs": [
        {
          "internalType": "uint256",
          "name": "tokenId",
          "type": "uint256"
        }
      ],
      "name": "tokenURI",
      "outputs": [
        {
          "internalType": "string",
          "name": "",
          "type": "string"
        }
      ],
      "stateMutability": "view",
      "type": "function",
      "constant": true
    },
    {
      "inputs": [
        {
          "internalType": "address",
          "name": "_owner",
          "type": "address"
        }
      ],
      "name": "balanceOf",
      "outputs": [
        {
          "internalType": "uint256",
          "name": "",
          "type": "uint256"
        }
      ],
      "stateMutability": "view",
      "type": "function",
      "constant": true
    },
    {
      "inputs": [
        {
          "internalType": "uint256",
          "name": "tokenId",
          "type": "uint256"
        }
      ],
      "name": "ownerOf",
      "outputs": [
        {
          "internalType": "address",
          "name": "",
          "type": "address"
        }
      ],
      "stateMutability": "view",
      "type": "function",
      "constant": true
    },
    {
      "inputs": [
        {
          "internalType": "address",
          "name": "to",
          "type": "address"
        },
        {
          "internalType": "uint256",
          "name": "tokenId",
          "type": "uint256"
        }
      ],
      "name": "approve",
      "outputs": [],
      "stateMutability": "nonpayable",
      "type": "function"
    },
    {
      "inputs": [
        {
          "internalType": "uint256",
          "name": "tokenId",
          "type": "uint256"
        }
      ],
      "name": "getApproved",
      "outputs": [
        {
          "internalType": "address",
          "name": "",
          "type": "address"
        }
      ],
      "stateMutability": "view",
      "type": "function",
      "constant": true
    },
    {
      "inputs": [
        {
          "internalType": "address",
          "name": "operator",
          "type": "address"
        },
        {
          "internalType": "bool",
          "name": "approved",
          "type": "bool"
        }
      ],
      "name": "setApprovalForAll",
      "outputs": [],
      "stateMutability": "nonpayable",
      "type": "function"
    },
    {
      "inputs": [
        {
          "internalType": "address",
          "name": "_owner",
          "type": "address"
        },
        {
          "internalType": "address",
          "name": "operator",
          "type": "address"
        }
      ],
      "name": "isApprovedForAll",
      "outputs": [
        {
          "internalType": "bool",
          "name": "",
          "type": "bool"
        }
      ],
      "stateMutability": "view",
      "type": "function",
      "constant": true
    },
    {
      "inputs": [
        {
          "internalType": "address",
          "name": "from",
          "type": "address"
        },
        {
          "internalType": "address",
          "name": "to",
          "type": "address"
        },
        {
          "internalType": "uint256",
          "name": "tokenId",
          "type": "uint256"
        }
      ],
      "name": "transferFrom",
      "outputs": [],
      "stateMutability": "nonpayable",
      "type": "function"
    },
    {
      "inputs": [
        {
          "internalType": "address",
          "name": "from",
          "type": "address"
        },
        {
          "internalType": "address",
          "name": "to",
          "type": "address"
        },
        {
          "internalType": "uint256",
          "name": "tokenId",
          "type": "uint256"
        }
      ],
      "name": "safeTransferFrom",
      "outputs": [],
      "stateMutability": "nonpayable",
      "type": "function"
    },
    {
      "inputs": [
        {
          "internalType": "address",
          "name": "from",
          "type": "address"
        },
        {
          "internalType": "address",
          "name": "to",
          "type": "address"
        },
        {
          "internalType": "uint256",
          "name": "tokenId",
          "type": "uint256"
        },
        {
          "internalType": "bytes",
          "name": "data",
          "type": "bytes"
        }
      ],
      "name": "safeTransferFrom",
      "outputs": [],
      "stateMutability": "nonpayable",
      "type": "function"
    },
    {
      "inputs": [
        {
          "internalType": "address",
          "name": "to",
          "type": "address"
        },
        {
          "internalType": "string",
          "name": "_tokenURI",
          "type": "string"
        }
      ],
      "name": "mint",
      "outputs": [
        {
          "internalType": "uint256",
          "name": "",
          "type": "uint256"
        }
      ],
      "stateMutability": "nonpayable",
      "type": "function"
    },
    {
      "inputs": [
        {
          "internalType": "address",
          "name": "to",
          "type": "address"
        },
        {
          "internalType": "string",
          "name": "_tokenURI",
          "type": "string"
        }
      ],
      "name": "safeMint",
      "outputs": [
        {
          "internalType": "uint256",
          "name": "",
          "type": "uint256"
        }
      ],
      "stateMutability": "nonpayable",
      "type": "function"
    },
    {
      "inputs": [
        {
          "internalType": "address",
          "name": "to",
          "type": "address"
        },
        {
          "internalType": "string",
          "name": "_tokenURI",
          "type": "string"
        },
        {
          "internalType": "bytes",
          "name": "data",
          "type": "bytes"
        }
      ],
      "name": "safeMint",
      "outputs": [
        {
          "internalType": "uint256",
          "name": "",
          "type": "uint256"
        }
      ],
      "stateMutability": "nonpayable",
      "type": "function"
    },
    {
      "inputs": [
        {
          "internalType": "uint256",
          "name": "tokenId",
          "type": "uint256"
        }
      ],
      "name": "burn",
      "outputs": [],
      "stateMutability": "nonpayable",
      "type": "function"
    }
  ],
  "bytecode": "0x608060405260006009553480156200001657600080fd5b50604051620038313803806200383183398181016040528101906200003c91906200024f565b33600460006101000a81548173ffffffffffffffffffffffffffffffffffffffff021916908373ffffffffffffffffffffffffffffffffffffffff16021790555082600590816200008e919062000553565b508160069081620000a0919062000553565b508060079081620000b2919062000553565b505050506200063a565b6000604051905090565b600080fd5b600080fd5b600080fd5b600080fd5b6000601f19601f8301169050919050565b7f4e487b7100000000000000000000000000000000000000000000000000000000600052604160045260246000fd5b6200012582620000da565b810181811067ffffffffffffffff82111715620001475762000146620000eb565b5b80604052505050565b60006200015c620000bc565b90506200016a82826200011a565b919050565b600067ffffffffffffffff8211156200018d576200018c620000eb565b5b6200019882620000da565b9050602081019050919050565b60005b83811015620001c5578082015181840152602081019050620001a8565b60008484015250505050565b6000620001e8620001e2846200016f565b62000150565b905082815260208101848484011115620002075762000206620000d5565b5b62000214848285620001a5565b509392505050565b600082601f830112620002345762000233620000d0565b5b815162000246848260208601620001d1565b91505092915050565b6000806000606084860312156200026b576200026a620000c6565b5b600084015167ffffffffffffffff8111156200028c576200028b620000cb565b5b6200029a868287016200021c565b935050602084015167ffffffffffffffff811115620002be57620002bd620000cb565b5b620002cc868287016200021c565b925050604084015167ffffffffffffffff811115620002f057620002ef620000cb565b5b620002fe868287016200021c565b9150509250925092565b600081519050919050565b7f4e487b7100000000000000000000000000000000000000000000000000000000600052602260045260246000fd5b600060028204905060018216806200035b57607f821691505b60208210810362000371576200037062000313565b5b50919050565b60008190508160005260206000209050919050565b60006020601f8301049050919050565b600082821b905092915050565b600060088302620003db7fffffffffffffffffffffffffffffffffffffffffffffffffffffffffffffffff826200039c565b620003e786836200039c565b95508019841693508086168417925050509392505050565b6000819050919050565b6000819050919050565b6000620004346200042e6200042884620003ff565b62000409565b620003ff565b9050919050565b6000819050919050565b620004508362000413565b620004686200045f826200043b565b848454620003a9565b825550505050565b600090565b6200047f62000470565b6200048c81848462000445565b505050565b5b81811015620004b457620004a860008262000475565b60018101905062000492565b5050565b601f8211156200050357620004cd8162000377565b620004d8846200038c565b81016020851015620004e8578190505b62000500620004f7856200038c565b83018262000491565b50505b505050565b600082821c905092915050565b6000620005286000198460080262000508565b1980831691505092915050565b600062000543838362000515565b9150826002028217905092915050565b6200055e8262000308565b67ffffffffffffffff8111156200057a5762000579620000eb565b5b62000586825462000342565b62000593828285620004b8565b600060209050601f831160018114620005cb5760008415620005b6578287015190505b620005c2858262000535565b86555062000632565b601f198416620005db8662000377565b60005b828110156200060557848901518255600182019150602085019450602081019050620005de565b8683101562000625578489015162000621601f89168262000515565b8355505b6001600288020188555050505b505050505050565b6131e7806200064a6000396000f3fe608060405234801561001057600080fd5b50600436106101585760003560e01c80636352211e116100c3578063b88d4fde1161007c578063b88d4fde146103fd578063c87b56dd14610419578063d0def52114610449578063d204c45e14610479578063e985e9c5146104a9578063f6dda936146104d957610158565b80636352211e1461031557806370a08231146103455780638da5cb5b1461037557806395d89b4114610393578063a22cb465146103b1578063acdeb5b9146103cd57610158565b806318160ddd1161011557806318160ddd1461025757806323b872dd1461027557806327e235e31461029157806342842e0e146102c157806342966c68146102dd57806355f804b3146102f957610158565b806301ffc9a71461015d578063025e7c271461018d57806306fdde03146101bd578063081812fc146101db578063095ea7b31461020b5780630d95e05414610227575b600080fd5b61017760048036038101906101729190611d0e565b610509565b6040516101849190611d56565b60405180910390f35b6101a760048036038101906101a29190611da7565b610643565b6040516101b49190611e15565b60405180910390f35b6101c5610676565b6040516101d29190611ec0565b60405180910390f35b6101f560048036038101906101f09190611da7565b610708565b6040516102029190611e15565b60405180910390f35b61022560048036038101906102209190611f0e565b6107ec565b005b610241600480360381019061023c9190611f4e565b610aea565b60405161024e9190611d56565b60405180910390f35b61025f610b19565b60405161026c9190611f9d565b60405180910390f35b61028f600480360381019061028a9190611fb8565b610b1f565b005b6102ab60048036038101906102a6919061200b565b610b2f565b6040516102b89190611f9d565b60405180910390f35b6102db60048036038101906102d69190611fb8565b610b47565b005b6102f760048036038101906102f29190611da7565b610b67565b005b610313600480360381019061030e919061216d565b610be9565b005b61032f600480360381019061032a9190611da7565b610c8c565b60405161033c9190611e15565b60405180910390f35b61035f600480360381019061035a919061200b565b610c9e565b60405161036c9190611f9d565b60405180910390f35b61037d610d54565b60405161038a9190611e15565b60405180910390f35b61039b610d7a565b6040516103a89190611ec0565b60405180910390f35b6103cb60048036038101906103c691906121e2565b610e0c565b005b6103e760048036038101906103e29190611da7565b610fe6565b6040516103f49190611e15565b60405180910390f35b61041760048036038101906104129190612282565b611019565b005b610433600480360381019061042e9190611da7565b611070565b6040516104409190611ec0565b60405180910390f35b610463600480360381019061045e919061230a565b611122565b6040516104709190611f9d565b60405180910390f35b610493600480360381019061048e91906123bc565b611136565b6040516104a09190611f9d565b60405180910390f35b6104c360048036038101906104be9190611f4e565b61119f565b6040516104d09190611d56565b60405180910390f35b6104f360048036038101906104ee919061241c565b611310565b6040516105009190611f9d565b60405180910390f35b60007f80ac58cd000000000000000000000000000000000000000000000000000000007bffffffffffffffffffffffffffffffffffffffffffffffffffffffff1916827bffffffffffffffffffffffffffffffffffffffffffffffffffffffff191614806105d457507f5b5e139f000000000000000000000000000000000000000000000000000000007bffffffffffffffffffffffffffffffffffffffffffffffffffffffff1916827bffffffffffffffffffffffffffffffffffffffffffffffffffffffff1916145b8061063c57507f01ffc9a7000000000000000000000000000000000000000000000000000000007bffffffffffffffffffffffffffffffffffffffffffffffffffffffff1916827bffffffffffffffffffffffffffffffffffffffffffffffffffffffff1916145b9050919050565b60016020528060005260406000206000915054906101000a900473ffffffffffffffffffffffffffffffffffffffff1681565b606060058054610685906124e0565b80601f01602080910402602001604051908101604052809291908181526020018280546106b1906124e0565b80156106fe5780601f106106d3576101008083540402835291602001916106fe565b820191906000526020600020905b8154815290600101906020018083116106e157829003601f168201915b5050505050905090565b6000806001600084815260200190815260200160002060009054906101000a900473ffffffffffffffffffffffffffffffffffffffff169050600073ffffffffffffffffffffffffffffffffffffffff168173ffffffffffffffffffffffffffffffffffffffff16036107b0576040517f08c379a00000000000000000000000000000000000000000000000000000000081526004016107a790612583565b60405180910390fd5b6002600084815260200190815260200160002060009054906101000a900473ffffffffffffffffffffffffffffffffffffffff16915050919050565b60006001600083815260200190815260200160002060009054906101000a900473ffffffffffffffffffffffffffffffffffffffff1690508073ffffffffffffffffffffffffffffffffffffffff163373ffffffffffffffffffffffffffffffffffffffff1614806108645750610863813361119f565b5b6108a3576040517f08c379a000000000000000000000000000000000000000000000000000000000815260040161089a90612615565b60405180910390fd5b3373ffffffffffffffffffffffffffffffffffffffff168173ffffffffffffffffffffffffffffffffffffffff1614610911576040517f08c379a000000000000000000000000000000000000000000000000000000000815260040161090890612615565b60405180910390fd5b600073ffffffffffffffffffffffffffffffffffffffff168373ffffffffffffffffffffffffffffffffffffffff1603610980576040517f08c379a0000000000000000000000000000000000000000000000000000000008152600401610977906126a7565b60405180910390fd5b8273ffffffffffffffffffffffffffffffffffffffff168173ffffffffffffffffffffffffffffffffffffffff16036109ee576040517f08c379a00000000000000000000000000000000000000000000000000000000081526004016109e590612713565b60405180910390fd5b6109f8818461119f565b15610a38576040517f08c379a0000000000000000000000000000000000000000000000000000000008152600401610a2f90612615565b60405180910390fd5b826002600084815260200190815260200160002060006101000a81548173ffffffffffffffffffffffffffffffffffffffff021916908373ffffffffffffffffffffffffffffffffffffffff160217905550818373ffffffffffffffffffffffffffffffffffffffff168273ffffffffffffffffffffffffffffffffffffffff167f8c5be1e5ebec7d5bd14f71427d1e84f3dd0314c0f7b2291e5b200ac8c7c3b92560405160405180910390a4505050565b60036020528160005260406000206020528060005260406000206000915091509054906101000a900460ff1681565b60095481565b610b2a8383836113b0565b505050565b60006020528060005260406000206000915090505481565b610b628383836040518060200160405280600081525061162b565b505050565b610b7081611686565b73ffffffffffffffffffffffffffffffffffffffff163373ffffffffffffffffffffffffffffffffffffffff1614610bdd576040517f08c379a0000000000000000000000000000000000000000000000000000000008152600401610bd49061277f565b60405180910390fd5b610be681611737565b50565b600460009054906101000a900473ffffffffffffffffffffffffffffffffffffffff1673ffffffffffffffffffffffffffffffffffffffff163373ffffffffffffffffffffffffffffffffffffffff1614610c79576040517f08c379a0000000000000000000000000000000000000000000000000000000008152600401610c70906127eb565b60405180910390fd5b8060079081610c8891906129b7565b5050565b6000610c9782611686565b9050919050565b60008073ffffffffffffffffffffffffffffffffffffffff168273ffffffffffffffffffffffffffffffffffffffff1603610d0e576040517f08c379a0000000000000000000000000000000000000000000000000000000008152600401610d0590612afb565b60405180910390fd5b6000808373ffffffffffffffffffffffffffffffffffffffff1673ffffffffffffffffffffffffffffffffffffffff168152602001908152602001600020549050919050565b600460009054906101000a900473ffffffffffffffffffffffffffffffffffffffff1681565b606060068054610d89906124e0565b80601f0160208091040260200160405190810160405280929190818152602001828054610db5906124e0565b8015610e025780601f10610dd757610100808354040283529160200191610e02565b820191906000526020600020905b815481529060010190602001808311610de557829003601f168201915b5050505050905090565b600073ffffffffffffffffffffffffffffffffffffffff168273ffffffffffffffffffffffffffffffffffffffff1603610e7b576040517f08c379a0000000000000000000000000000000000000000000000000000000008152600401610e72906126a7565b60405180910390fd5b3373ffffffffffffffffffffffffffffffffffffffff168273ffffffffffffffffffffffffffffffffffffffff1603610ee9576040517f08c379a0000000000000000000000000000000000000000000000000000000008152600401610ee090612713565b60405180910390fd5b80600360003373ffffffffffffffffffffffffffffffffffffffff1673ffffffffffffffffffffffffffffffffffffffff16815260200190815260200160002060008473ffffffffffffffffffffffffffffffffffffffff1673ffffffffffffffffffffffffffffffffffffffff16815260200190815260200160002060006101000a81548160ff0219169083151502179055508173ffffffffffffffffffffffffffffffffffffffff163373ffffffffffffffffffffffffffffffffffffffff167f17307eab39ab6107e8899845ad3d59bd9653f200f220920489ca2b5937696c3183604051610fda9190611d56565b60405180910390a35050565b60026020528060005260406000206000915054906101000a900473ffffffffffffffffffffffffffffffffffffffff1681565b61106985858585858080601f016020809104026020016040519081016040528093929190818152602001838380828437600081840152601f19601f8201169050808301925050505050505061162b565b5050505050565b606061107b8261174e565b6110ba576040517f08c379a00000000000000000000000000000000000000000000000000000000081526004016110b190612b8d565b60405180910390fd5b6000600780546110c9906124e0565b9050116110e5576040518060200160405280600081525061111b565b60076008600084815260200190815260200160002060405160200161110b929190612c3b565b6040516020818303038152906040525b9050919050565b600061112e83836117ba565b905092915050565b60006111968484848080601f016020809104026020016040519081016040528093929190818152602001838380828437600081840152601f19601f82011690508083019250505050505050604051806020016040528060008152506118c5565b90509392505050565b60008073ffffffffffffffffffffffffffffffffffffffff168373ffffffffffffffffffffffffffffffffffffffff160361120f576040517f08c379a000000000000000000000000000000000000000000000000000000000815260040161120690612cd1565b60405180910390fd5b600073ffffffffffffffffffffffffffffffffffffffff168273ffffffffffffffffffffffffffffffffffffffff160361127e576040517f08c379a000000000000000000000000000000000000000000000000000000000815260040161127590612cd1565b60405180910390fd5b600360008473ffffffffffffffffffffffffffffffffffffffff1673ffffffffffffffffffffffffffffffffffffffff16815260200190815260200160002060008373ffffffffffffffffffffffffffffffffffffffff1673ffffffffffffffffffffffffffffffffffffffff16815260200190815260200160002060009054906101000a900460ff16905092915050565b60006113a58686868080601f016020809104026020016040519081016040528093929190818152602001838380828437600081840152601f19601f8201169050808301925050505050505085858080601f016020809104026020016040519081016040528093929190818152602001838380828437600081840152601f19601f820116905080830192505050505050506118c5565b905095945050505050565b60006001600083815260200190815260200160002060009054906101000a900473ffffffffffffffffffffffffffffffffffffffff1690508373ffffffffffffffffffffffffffffffffffffffff168173ffffffffffffffffffffffffffffffffffffffff1614611456576040517f08c379a000000000000000000000000000000000000000000000000000000000815260040161144d90612d63565b60405180910390fd5b600073ffffffffffffffffffffffffffffffffffffffff168373ffffffffffffffffffffffffffffffffffffffff16036114c5576040517f08c379a00000000000000000000000000000000000000000000000000000000081526004016114bc90612df5565b60405180910390fd5b3373ffffffffffffffffffffffffffffffffffffffff168173ffffffffffffffffffffffffffffffffffffffff1614806115055750611504813361119f565b5b8061156e57503373ffffffffffffffffffffffffffffffffffffffff166002600084815260200190815260200160002060009054906101000a900473ffffffffffffffffffffffffffffffffffffffff1673ffffffffffffffffffffffffffffffffffffffff16145b6115ad576040517f08c379a00000000000000000000000000000000000000000000000000000000081526004016115a490612e87565b60405180910390fd5b6115b682611925565b6115c084836119c6565b6115ca8383611a56565b818373ffffffffffffffffffffffffffffffffffffffff168573ffffffffffffffffffffffffffffffffffffffff167fddf252ad1be2c89b69c2b068fc378daa952ba7f163c4a11628f55a4df523b3ef60405160405180910390a450505050565b6116368484846113b0565b611641848483611b02565b611680576040517f08c379a000000000000000000000000000000000000000000000000000000000815260040161167790612f19565b60405180910390fd5b50505050565b6000806001600084815260200190815260200160002060009054906101000a900473ffffffffffffffffffffffffffffffffffffffff169050600073ffffffffffffffffffffffffffffffffffffffff168173ffffffffffffffffffffffffffffffffffffffff160361172e576040517f08c379a000000000000000000000000000000000000000000000000000000000815260040161172590612fab565b60405180910390fd5b80915050919050565b61174b61174382611686565b6000836113b0565b50565b60008073ffffffffffffffffffffffffffffffffffffffff166001600084815260200190815260200160002060009054906101000a900473ffffffffffffffffffffffffffffffffffffffff1673ffffffffffffffffffffffffffffffffffffffff1614159050919050565b60008073ffffffffffffffffffffffffffffffffffffffff168373ffffffffffffffffffffffffffffffffffffffff160361182a576040517f08c379a000000000000000000000000000000000000000000000000000000000815260040161182190613017565b60405180910390fd5b60016009600082825461183d9190613066565b9250508190555061185083600954611a56565b6009548373ffffffffffffffffffffffffffffffffffffffff16600073ffffffffffffffffffffffffffffffffffffffff167fddf252ad1be2c89b69c2b068fc378daa952ba7f163c4a11628f55a4df523b3ef60405160405180910390a46118ba60095483611c7d565b600954905092915050565b60006118d360008584611b02565b611912576040517f08c379a000000000000000000000000000000000000000000000000000000000815260040161190990612f19565b60405180910390fd5b61191c84846117ba565b90509392505050565b600073ffffffffffffffffffffffffffffffffffffffff166002600083815260200190815260200160002060009054906101000a900473ffffffffffffffffffffffffffffffffffffffff1673ffffffffffffffffffffffffffffffffffffffff16146119c3576002600082815260200190815260200160002060006101000a81549073ffffffffffffffffffffffffffffffffffffffff02191690555b50565b60016000808473ffffffffffffffffffffffffffffffffffffffff1673ffffffffffffffffffffffffffffffffffffffff1681526020019081526020016000206000828254611a15919061309a565b925050819055506001600082815260200190815260200160002060006101000a81549073ffffffffffffffffffffffffffffffffffffffff02191690555050565b60016000808473ffffffffffffffffffffffffffffffffffffffff1673ffffffffffffffffffffffffffffffffffffffff1681526020019081526020016000206000828254611aa59190613066565b92505081905550816001600083815260200190815260200160002060006101000a81548173ffffffffffffffffffffffffffffffffffffffff021916908373ffffffffffffffffffffffffffffffffffffffff1602179055505050565b6000808373ffffffffffffffffffffffffffffffffffffffff163b03611b2b5760019050611c76565b8273ffffffffffffffffffffffffffffffffffffffff1663150b7a023386600954866040518563ffffffff1660e01b8152600401611b6c9493929190613123565b6020604051808303816000875af1925050508015611ba857506040513d601f19601f82011682018060405250810190611ba59190613184565b60015b611c2a573d8060008114611bd8576040519150601f19603f3d011682016040523d82523d6000602084013e611bdd565b606091505b506000815103611c22576040517f08c379a0000000000000000000000000000000000000000000000000000000008152600401611c1990612f19565b60405180910390fd5b805181602001fd5b63150b7a0260e01b7bffffffffffffffffffffffffffffffffffffffffffffffffffffffff1916817bffffffffffffffffffffffffffffffffffffffffffffffffffffffff1916149150505b9392505050565b80600860008481526020019081526020016000209081611c9d91906129b7565b505050565b6000604051905090565b600080fd5b600080fd5b60007fffffffff0000000000000000000000000000000000000000000000000000000082169050919050565b611ceb81611cb6565b8114611cf657600080fd5b50565b600081359050611d0881611ce2565b92915050565b600060208284031215611d2457611d23611cac565b5b6000611d3284828501611cf9565b91505092915050565b60008115159050919050565b611d5081611d3b565b82525050565b6000602082019050611d6b6000830184611d47565b92915050565b6000819050919050565b611d8481611d71565b8114611d8f57600080fd5b50565b600081359050611da181611d7b565b92915050565b600060208284031215611dbd57611dbc611cac565b5b6000611dcb84828501611d92565b91505092915050565b600073ffffffffffffffffffffffffffffffffffffffff82169050919050565b6000611dff82611dd4565b9050919050565b611e0f81611df4565b82525050565b6000602082019050611e2a6000830184611e06565b92915050565b600081519050919050565b600082825260208201905092915050565b60005b83811015611e6a578082015181840152602081019050611e4f565b60008484015250505050565b6000601f19601f8301169050919050565b6000611e9282611e30565b611e9c8185611e3b565b9350611eac818560208601611e4c565b611eb581611e76565b840191505092915050565b60006020820190508181036000830152611eda8184611e87565b905092915050565b611eeb81611df4565b8114611ef657600080fd5b50565b600081359050611f0881611ee2565b92915050565b60008060408385031215611f2557611f24611cac565b5b6000611f3385828601611ef9565b9250506020611f4485828601611d92565b9150509250929050565b60008060408385031215611f6557611f64611cac565b5b6000611f7385828601611ef9565b9250506020611f8485828601611ef9565b9150509250929050565b611f9781611d71565b82525050565b6000602082019050611fb26000830184611f8e565b92915050565b600080600060608486031215611fd157611fd0611cac565b5b6000611fdf86828701611ef9565b9350506020611ff086828701611ef9565b925050604061200186828701611d92565b9150509250925092565b60006020828403121561202157612020611cac565b5b600061202f84828501611ef9565b91505092915050565b600080fd5b600080fd5b7f4e487b7100000000000000000000000000000000000000000000000000000000600052604160045260246000fd5b61207a82611e76565b810181811067ffffffffffffffff8211171561209957612098612042565b5b80604052505050565b60006120ac611ca2565b90506120b88282612071565b919050565b600067ffffffffffffffff8211156120d8576120d7612042565b5b6120e182611e76565b9050602081019050919050565b82818337600083830152505050565b600061211061210b846120bd565b6120a2565b90508281526020810184848401111561212c5761212b61203d565b5b6121378482856120ee565b509392505050565b600082601f83011261215457612153612038565b5b81356121648482602086016120fd565b91505092915050565b60006020828403121561218357612182611cac565b5b600082013567ffffffffffffffff8111156121a1576121a0611cb1565b5b6121ad8482850161213f565b91505092915050565b6121bf81611d3b565b81146121ca57600080fd5b50565b6000813590506121dc816121b6565b92915050565b600080604083850312156121f9576121f8611cac565b5b600061220785828601611ef9565b9250506020612218858286016121cd565b9150509250929050565b600080fd5b600080fd5b60008083601f84011261224257612241612038565b5b8235905067ffffffffffffffff81111561225f5761225e612222565b5b60208301915083600182028301111561227b5761227a612227565b5b9250929050565b60008060008060006080868803121561229e5761229d611cac565b5b60006122ac88828901611ef9565b95505060206122bd88828901611ef9565b94505060406122ce88828901611d92565b935050606086013567ffffffffffffffff8111156122ef576122ee611cb1565b5b6122fb8882890161222c565b92509250509295509295909350565b6000806040838503121561232157612320611cac565b5b600061232f85828601611ef9565b925050602083013567ffffffffffffffff8111156123505761234f611cb1565b5b61235c8582860161213f565b9150509250929050565b60008083601f84011261237c5761237b612038565b5b8235905067ffffffffffffffff81111561239957612398612222565b5b6020830191508360018202830111156123b5576123b4612227565b5b9250929050565b6000806000604084860312156123d5576123d4611cac565b5b60006123e386828701611ef9565b935050602084013567ffffffffffffffff81111561240457612403611cb1565b5b61241086828701612366565b92509250509250925092565b60008060008060006060868803121561243857612437611cac565b5b600061244688828901611ef9565b955050602086013567ffffffffffffffff81111561246757612466611cb1565b5b61247388828901612366565b9450945050604086013567ffffffffffffffff81111561249657612495611cb1565b5b6124a28882890161222c565b92509250509295509295909350565b7f4e487b7100000000000000000000000000000000000000000000000000000000600052602260045260246000fd5b600060028204905060018216806124f857607f821691505b60208210810361250b5761250a6124b1565b5b50919050565b7f4552433732313a20617070726f76656420717565727920666f72206e6f6e657860008201527f697374656e7420746f6b656e0000000000000000000000000000000000000000602082015250565b600061256d602c83611e3b565b915061257882612511565b604082019050919050565b6000602082019050818103600083015261259c81612560565b9050919050565b7f4552433732313a20617070726f76652063616c6c6572206973206e6f74206f7760008201527f6e6572206e6f7220617070726f76656420666f7220616c6c0000000000000000602082015250565b60006125ff603883611e3b565b915061260a826125a3565b604082019050919050565b6000602082019050818103600083015261262e816125f2565b9050919050565b7f4552433732313a20617070726f766520746f20746865207a65726f206164647260008201527f6573730000000000000000000000000000000000000000000000000000000000602082015250565b6000612691602383611e3b565b915061269c82612635565b604082019050919050565b600060208201905081810360008301526126c081612684565b9050919050565b7f4552433732313a20617070726f766520746f2063616c6c657200000000000000600082015250565b60006126fd601983611e3b565b9150612708826126c7565b602082019050919050565b6000602082019050818103600083015261272c816126f0565b9050919050565b7f4552433732313a2063616c6c6572206973206e6f7420746865206f776e657200600082015250565b6000612769601f83611e3b565b915061277482612733565b602082019050919050565b600060208201905081810360008301526127988161275c565b9050919050565b7f6f6e6c79206f776e65722063616e207365742062617365555249000000000000600082015250565b60006127d5601a83611e3b565b91506127e08261279f565b602082019050919050565b60006020820190508181036000830152612804816127c8565b9050919050565b60008190508160005260206000209050919050565b60006020601f8301049050919050565b600082821b905092915050565b60006008830261286d7fffffffffffffffffffffffffffffffffffffffffffffffffffffffffffffffff82612830565b6128778683612830565b95508019841693508086168417925050509392505050565b6000819050919050565b60006128b46128af6128aa84611d71565b61288f565b611d71565b9050919050565b6000819050919050565b6128ce83612899565b6128e26128da826128bb565b84845461283d565b825550505050565b600090565b6128f76128ea565b6129028184846128c5565b505050565b5b818110156129265761291b6000826128ef565b600181019050612908565b5050565b601f82111561296b5761293c8161280b565b61294584612820565b81016020851015612954578190505b61296861296085612820565b830182612907565b50505b505050565b600082821c905092915050565b600061298e60001984600802612970565b1980831691505092915050565b60006129a7838361297d565b9150826002028217905092915050565b6129c082611e30565b67ffffffffffffffff8111156129d9576129d8612042565b5b6129e382546124e0565b6129ee82828561292a565b600060209050601f831160018114612a215760008415612a0f578287015190505b612a19858261299b565b865550612a81565b601f198416612a2f8661280b565b60005b82811015612a5757848901518255600182019150602085019450602081019050612a32565b86831015612a745784890151612a70601f89168261297d565b8355505b6001600288020188555050505b505050505050565b7f4552433732313a2062616c616e636520717565727920666f7220746865207a6560008201527f726f206164647265737300000000000000000000000000000000000000000000602082015250565b6000612ae5602a83611e3b565b9150612af082612a89565b604082019050919050565b60006020820190508181036000830152612b1481612ad8565b9050919050565b7f4552433732314d657461646174613a2055524920717565727920666f72206e6f60008201527f6e6578697374656e7420746f6b656e0000000000000000000000000000000000602082015250565b6000612b77602f83611e3b565b9150612b8282612b1b565b604082019050919050565b60006020820190508181036000830152612ba681612b6a565b9050919050565b600081905092915050565b60008154612bc5816124e0565b612bcf8186612bad565b94506001821660008114612bea5760018114612bff57612c32565b60ff1983168652811515820286019350612c32565b612c088561280b565b60005b83811015612c2a57815481890152600182019150602081019050612c0b565b838801955050505b50505092915050565b6000612c478285612bb8565b9150612c538284612bb8565b91508190509392505050565b7f4552433732313a206f70657261746f7220717565727920666f72206e6f6e657860008201527f697374656e7420746f6b656e0000000000000000000000000000000000000000602082015250565b6000612cbb602c83611e3b565b9150612cc682612c5f565b604082019050919050565b60006020820190508181036000830152612cea81612cae565b9050919050565b7f4552433732313a207472616e73666572206f6620746f6b656e2074686174206960008201527f73206e6f74206f776e0000000000000000000000000000000000000000000000602082015250565b6000612d4d602983611e3b565b9150612d5882612cf1565b604082019050919050565b60006020820190508181036000830152612d7c81612d40565b9050919050565b7f4552433732313a207472616e7366657220746f20746865207a65726f2061646460008201527f7265737300000000000000000000000000000000000000000000000000000000602082015250565b6000612ddf602483611e3b565b9150612dea82612d83565b604082019050919050565b60006020820190508181036000830152612e0e81612dd2565b9050919050565b7f4552433732313a207472616e736665722063616c6c6572206973206e6f74206f60008201527f776e6572206e6f7220617070726f76656420666f7220616c6c00000000000000602082015250565b6000612e71603983611e3b565b9150612e7c82612e15565b604082019050919050565b60006020820190508181036000830152612ea081612e64565b9050919050565b7f4552433732313a207472616e7366657220746f206e6f6e20455243373231526560008201527f63656976657220696d706c656d656e7465720000000000000000000000000000602082015250565b6000612f03603283611e3b565b9150612f0e82612ea7565b604082019050919050565b60006020820190508181036000830152612f3281612ef6565b9050919050565b7f4552433732313a206f776e657220717565727920666f72206e6f6e657869737460008201527f656e7420746f6b656e0000000000000000000000000000000000000000000000602082015250565b6000612f95602983611e3b565b9150612fa082612f39565b604082019050919050565b60006020820190508181036000830152612fc481612f88565b9050919050565b7f4552433732313a206d696e7420746f20746865207a65726f2061646472657373600082015250565b6000613001602083611e3b565b915061300c82612fcb565b602082019050919050565b6000602082019050818103600083015261303081612ff4565b9050919050565b7f4e487b7100000000000000000000000000000000000000000000000000000000600052601160045260246000fd5b600061307182611d71565b915061307c83611d71565b925082820190508082111561309457613093613037565b5b92915050565b60006130a582611d71565b91506130b083611d71565b92508282039050818111156130c8576130c7613037565b5b92915050565b600081519050919050565b600082825260208201905092915050565b60006130f5826130ce565b6130ff81856130d9565b935061310f818560208601611e4c565b61311881611e76565b840191505092915050565b60006080820190506131386000830187611e06565b6131456020830186611e06565b6131526040830185611f8e565b818103606083015261316481846130ea565b905095945050505050565b60008151905061317e81611ce2565b92915050565b60006020828403121561319a57613199611cac565b5b60006131a88482850161316f565b9150509291505056fea2646970667358221220a597855be76c43e7c4622235cf3ed60e40d3c8203c6064d0c229e0d2ec7af22064736f6c63430008110033",
  "immutableReferences": {},
  "source": "// SPDX-License-Identifier: MIT\n\npragma solidity ^0.8.0;\n\nimport \"./IERC721.sol\";\nimport \"./IERC165.sol\";\n\ncontract NoahNFT is IERC721, IERC721Metadata, IERC165 {\n    mapping(address => uint256) public balances; //   NFT  =>  NFT \n    mapping(uint256 => address) public owners; //   NFT id =>  NFT \n    mapping(uint256 => address) public tokenApprovals; //  NFT id =>  NFT \n    mapping(address => mapping(address => bool)) public operatorApprovals; //  NFT   NFT  =>  => \n    address public owner; // \n    string private _name; //  NFT \n    string private _symbol; //  NFT \n    string private _baseURI; //  NFT  MetadataURI\n    mapping(uint256 => string) private _tokenURIs; //  NFT   NFT id => \n    uint256 public totalSupply = 0; //  NFT id NFT \n\n    // \n    constructor(\n        string memory initName,\n        string memory initSymbol,\n        string memory baseURI\n    ) {\n        owner = msg.sender;\n        _name = initName;\n        _symbol = initSymbol;\n        _baseURI = baseURI;\n    }\n\n    // \n    function supportsInterface(bytes4 interfaceId)\n        public\n        pure\n        override\n        returns (bool)\n    {\n        return\n            interfaceId == type(IERC721).interfaceId ||\n            interfaceId == type(IERC721Metadata).interfaceId ||\n            interfaceId == type(IERC165).interfaceId;\n    }\n\n    //  NFT \n    function name() public view override returns (string memory) {\n        return _name;\n    }\n\n    //  NFT \n    function symbol() public view override returns (string memory) {\n        return _symbol;\n    }\n\n    //  NFT  MetadataURI\n    function setBaseURI(string memory baseURI) public {\n        require(msg.sender == owner, \"only owner can set baseURI\");\n        _baseURI = baseURI;\n    }\n\n    //  NFT  MetadataURI\n    function tokenURI(uint256 tokenId)\n        public\n        view\n        virtual\n        override\n        returns (string memory)\n    {\n        require(\n            _exists(tokenId),\n            \"ERC721Metadata: URI query for nonexistent token\"\n        );\n\n        return\n            bytes(_baseURI).length > 0\n                ? string(abi.encodePacked(_baseURI, _tokenURIs[tokenId]))\n                : \"\";\n    }\n\n    //  NFT \n    function _exists(uint256 tokenId) internal view virtual returns (bool) {\n        return owners[tokenId] != address(0);\n    }\n\n    //  NFT \n    function balanceOf(address _owner) public view override returns (uint256) {\n        //  NFT 0\n        require(\n            _owner != address(0),\n            \"ERC721: balance query for the zero address\"\n        );\n        return balances[_owner];\n    }\n\n    //  NFT \n    function ownerOf(uint256 tokenId) public view override returns (address) {\n        return _ownerOf(tokenId);\n    }\n\n    //  NFT  \n    function _ownerOf(uint256 tokenId) internal view returns (address) {\n        address tokenOwner = owners[tokenId];\n        //  NFT 0\n        require(\n            tokenOwner != address(0),\n            \"ERC721: owner query for nonexistent token\"\n        );\n        return tokenOwner;\n    }\n\n    //  NFT\n    function approve(address to, uint256 tokenId) public override {\n        address tokenOwner = owners[tokenId]; //  NFT \n        //  NFT  NFT  NFT \n        require(\n            msg.sender == tokenOwner ||\n                isApprovedForAll(tokenOwner, msg.sender),\n            \"ERC721: approve caller is not owner nor approved for all\"\n        );\n        // NFT  NFT \n        require(\n            tokenOwner == msg.sender,\n            \"ERC721: approve caller is not owner nor approved for all\"\n        );\n        // 0\n        require(to != address(0), \"ERC721: approve to the zero address\");\n        // \n        require(tokenOwner != to, \"ERC721: approve to caller\");\n        //  NFT \n        require(\n            !isApprovedForAll(tokenOwner, to),\n            \"ERC721: approve caller is not owner nor approved for all\"\n        );\n        //  NFT \n        tokenApprovals[tokenId] = to;\n        // \n        emit Approval(tokenOwner, to, tokenId);\n    }\n\n    //  NFT \n    function getApproved(uint256 tokenId)\n        public\n        view\n        override\n        returns (address)\n    {\n        address tokenOwner = owners[tokenId]; //  NFT \n        //  NFT 0\n        require(\n            tokenOwner != address(0),\n            \"ERC721: approved query for nonexistent token\"\n        );\n        return tokenApprovals[tokenId];\n    }\n\n    //  NFT\n    function setApprovalForAll(address operator, bool approved)\n        public\n        override\n    {\n        // 0\n        require(operator != address(0), \"ERC721: approve to the zero address\");\n        // \n        require(operator != msg.sender, \"ERC721: approve to caller\");\n        //  NFT \n        operatorApprovals[msg.sender][operator] = approved;\n        //  NFT \n        emit ApprovalForAll(msg.sender, operator, approved);\n    }\n\n    //  NFT  NFT \n    function isApprovedForAll(address _owner, address operator)\n        public\n        view\n        override\n        returns (bool)\n    {\n        //  NFT 0\n        require(\n            _owner != address(0),\n            \"ERC721: operator query for nonexistent token\"\n        );\n        // 0\n        require(\n            operator != address(0),\n            \"ERC721: operator query for nonexistent token\"\n        );\n        return operatorApprovals[_owner][operator];\n    }\n\n    //  NFT\n    function transferFrom(\n        address from,\n        address to,\n        uint256 tokenId\n    ) public override {\n        _transfer(from, to, tokenId);\n    }\n\n    //  NFT\n    function _transfer(\n        address from,\n        address to,\n        uint256 tokenId\n    ) internal {\n        address tokenOwner = owners[tokenId]; //  NFT \n        // from  NFT \n        require(\n            tokenOwner == from,\n            \"ERC721: transfer of token that is not own\"\n        );\n        // 0\n        require(to != address(0), \"ERC721: transfer to the zero address\");\n        //  NFT  NFT  NFT  NFT  NFT \n        require(\n            tokenOwner == msg.sender ||\n                isApprovedForAll(tokenOwner, msg.sender) ||\n                tokenApprovals[tokenId] == msg.sender,\n            \"ERC721: transfer caller is not owner nor approved for all\"\n        );\n        //  NFT \n        _clearApproval(tokenId);\n        //  NFT \n        _removeTokenFrom(from, tokenId);\n        //  NFT\n        _addTokenTo(to, tokenId);\n        //  NFT \n        emit Transfer(from, to, tokenId);\n    }\n\n    //  NFT \n    function _clearApproval(uint256 tokenId) internal {\n        //  NFT \n        if (tokenApprovals[tokenId] != address(0)) {\n            delete tokenApprovals[tokenId];\n        }\n    }\n\n    //  NFT \n    function _removeTokenFrom(address from, uint256 tokenId) internal {\n        //  NFT \n        balances[from] -= 1;\n        //  NFT  NFT\n        delete owners[tokenId];\n    }\n\n    //  NFT\n    function _addTokenTo(address to, uint256 tokenId) internal {\n        //  NFT \n        balances[to] += 1;\n        //  NFT  NFT \n        owners[tokenId] = to;\n    }\n\n    //  NFT\n    function _checkOnERC721Received(\n        address from,\n        address to,\n        bytes memory _data\n    ) internal returns (bool) {\n        // \n        if (to.code.length == 0) {\n            return true;\n        }\n        //  onERC721Received \n        try\n            IERC721Receiver(to).onERC721Received(\n                msg.sender,\n                from,\n                totalSupply,\n                _data\n            )\n        returns (bytes4 retval) {\n            //  ERC721_RECEIVED \n            return retval == IERC721Receiver(to).onERC721Received.selector;\n        } catch (bytes memory reason) {\n            // \n            if (reason.length == 0) {\n                revert(\"ERC721: transfer to non ERC721Receiver implementer\");\n            } else {\n                assembly {\n                    revert(add(32, reason), mload(reason))\n                }\n            }\n        }\n    }\n\n    //  NFT   data \n    function safeTransferFrom(\n        address from,\n        address to,\n        uint256 tokenId\n    ) public override {\n        //  NFT\n        _safeTransfer(from, to, tokenId, \"\");\n    }\n\n    //  NFT   data \n    function safeTransferFrom(\n        address from,\n        address to,\n        uint256 tokenId,\n        bytes calldata data\n    ) public override {\n        _safeTransfer(from, to, tokenId, data);\n    }\n\n    //  NFT  \n    function _safeTransfer(\n        address from,\n        address to,\n        uint256 tokenId,\n        bytes memory data\n    ) internal {\n        //  NFT\n        _transfer(from, to, tokenId);\n        //  NFT\n        require(\n            _checkOnERC721Received(from, to, data),\n            \"ERC721: transfer to non ERC721Receiver implementer\"\n        );\n    }\n\n    //  NFT\n    function mint(address to, string memory _tokenURI)\n        public\n        returns (uint256)\n    {\n        //  NFT\n        return _mint(to, _tokenURI);\n    }\n\n    //  NFT   data \n    function safeMint(address to, string calldata _tokenURI)\n        public\n        returns (uint256)\n    {\n        return _safeMint(to, _tokenURI, \"\");\n    }\n\n    //  NFT   data \n    function safeMint(\n        address to,\n        string calldata _tokenURI,\n        bytes calldata data\n    ) public returns (uint256) {\n        return _safeMint(to, _tokenURI, data);\n    }\n\n    //  NFT  \n    function _mint(address to, string memory _tokenURI)\n        internal\n        returns (uint256)\n    {\n        // 0\n        require(to != address(0), \"ERC721: mint to the zero address\");\n\n        //  NFT ID\n        totalSupply += 1;\n\n        //  NFT\n        _addTokenTo(to, totalSupply);\n        //  NFT \n        emit Transfer(address(0), to, totalSupply);\n\n        //  Token URI\n        _setTokenURI(totalSupply, _tokenURI);\n\n        //  NFT ID\n        return totalSupply;\n    }\n\n    //  Token URI \n    function _setTokenURI(uint256 tokenId, string memory _tokenURI) internal {\n        //  Token URI\n        _tokenURIs[tokenId] = _tokenURI;\n    }\n\n    //  NFT  \n    function _safeMint(\n        address to,\n        string memory _tokenURI,\n        bytes memory _data\n    ) internal returns (uint256) {\n        //  NFT\n        require(\n            _checkOnERC721Received(address(0), to, _data),\n            \"ERC721: transfer to non ERC721Receiver implementer\"\n        );\n        //  NFT\n        return _mint(to, _tokenURI);\n    }\n\n    //  NFT\n    function burn(uint256 tokenId) public {\n        //  NFT \n        require(\n            msg.sender == _ownerOf(tokenId),\n            \"ERC721: caller is not the owner\"\n        );\n        //  NFT\n        _burn(tokenId);\n    }\n\n    //  NFT  \n    function _burn(uint256 tokenId) internal {\n        //  NFT\n        _transfer(_ownerOf(tokenId), address(0), tokenId);\n    }\n}\n",
  "sourcePath": "/Users/luzhenqian/Work/web3/web3-examples/contract/noah-nft/contracts/NoahNFT.sol",
  "compiler": {
    "name": "solc",
    "version": "0.8.17+commit.8df45f5f.Emscripten.clang"
  },
  "schemaVersion": "3.4.11",
  "updatedAt": "2023-01-16T14:17:24.700Z",
  "networkType": "ethereum",
  "devdoc": {
    "kind": "dev",
    "methods": {},
    "version": 1
  },
  "userdoc": {
    "kind": "user",
    "methods": {},
    "version": 1
  }
}