{
  "contractName": "NoahNFT",
  "abi": [
    {
      "inputs": [
        {
          "internalType": "string",
          "name": "initName",
          "type": "string"
        },
        {
          "internalType": "string",
          "name": "initSymbol",
          "type": "string"
        }
      ],
      "stateMutability": "nonpayable",
      "type": "constructor"
    },
    {
      "anonymous": false,
      "inputs": [
        {
          "indexed": true,
          "internalType": "address",
          "name": "owner",
          "type": "address"
        },
        {
          "indexed": true,
          "internalType": "address",
          "name": "approved",
          "type": "address"
        },
        {
          "indexed": true,
          "internalType": "uint256",
          "name": "tokenId",
          "type": "uint256"
        }
      ],
      "name": "Approval",
      "type": "event"
    },
    {
      "anonymous": false,
      "inputs": [
        {
          "indexed": true,
          "internalType": "address",
          "name": "owner",
          "type": "address"
        },
        {
          "indexed": true,
          "internalType": "address",
          "name": "operator",
          "type": "address"
        },
        {
          "indexed": false,
          "internalType": "bool",
          "name": "approved",
          "type": "bool"
        }
      ],
      "name": "ApprovalForAll",
      "type": "event"
    },
    {
      "anonymous": false,
      "inputs": [
        {
          "indexed": true,
          "internalType": "address",
          "name": "from",
          "type": "address"
        },
        {
          "indexed": true,
          "internalType": "address",
          "name": "to",
          "type": "address"
        },
        {
          "indexed": true,
          "internalType": "uint256",
          "name": "tokenId",
          "type": "uint256"
        }
      ],
      "name": "Transfer",
      "type": "event"
    },
    {
      "inputs": [
        {
          "internalType": "address",
          "name": "",
          "type": "address"
        }
      ],
      "name": "balances",
      "outputs": [
        {
          "internalType": "uint256",
          "name": "",
          "type": "uint256"
        }
      ],
      "stateMutability": "view",
      "type": "function"
    },
    {
      "inputs": [
        {
          "internalType": "address",
          "name": "",
          "type": "address"
        },
        {
          "internalType": "address",
          "name": "",
          "type": "address"
        }
      ],
      "name": "operatorApprovals",
      "outputs": [
        {
          "internalType": "bool",
          "name": "",
          "type": "bool"
        }
      ],
      "stateMutability": "view",
      "type": "function"
    },
    {
      "inputs": [],
      "name": "owner",
      "outputs": [
        {
          "internalType": "address",
          "name": "",
          "type": "address"
        }
      ],
      "stateMutability": "view",
      "type": "function"
    },
    {
      "inputs": [
        {
          "internalType": "uint256",
          "name": "",
          "type": "uint256"
        }
      ],
      "name": "owners",
      "outputs": [
        {
          "internalType": "address",
          "name": "",
          "type": "address"
        }
      ],
      "stateMutability": "view",
      "type": "function"
    },
    {
      "inputs": [
        {
          "internalType": "uint256",
          "name": "",
          "type": "uint256"
        }
      ],
      "name": "tokenApprovals",
      "outputs": [
        {
          "internalType": "address",
          "name": "",
          "type": "address"
        }
      ],
      "stateMutability": "view",
      "type": "function"
    },
    {
      "inputs": [],
      "name": "totalSupply",
      "outputs": [
        {
          "internalType": "uint256",
          "name": "",
          "type": "uint256"
        }
      ],
      "stateMutability": "view",
      "type": "function"
    },
    {
      "inputs": [
        {
          "internalType": "bytes4",
          "name": "interfaceId",
          "type": "bytes4"
        }
      ],
      "name": "supportsInterface",
      "outputs": [
        {
          "internalType": "bool",
          "name": "",
          "type": "bool"
        }
      ],
      "stateMutability": "pure",
      "type": "function"
    },
    {
      "inputs": [],
      "name": "name",
      "outputs": [
        {
          "internalType": "string",
          "name": "",
          "type": "string"
        }
      ],
      "stateMutability": "view",
      "type": "function"
    },
    {
      "inputs": [],
      "name": "symbol",
      "outputs": [
        {
          "internalType": "string",
          "name": "",
          "type": "string"
        }
      ],
      "stateMutability": "view",
      "type": "function"
    },
    {
      "inputs": [
        {
          "internalType": "uint256",
          "name": "tokenId",
          "type": "uint256"
        }
      ],
      "name": "tokenURI",
      "outputs": [
        {
          "internalType": "string",
          "name": "",
          "type": "string"
        }
      ],
      "stateMutability": "view",
      "type": "function"
    },
    {
      "inputs": [
        {
          "internalType": "address",
          "name": "_owner",
          "type": "address"
        }
      ],
      "name": "balanceOf",
      "outputs": [
        {
          "internalType": "uint256",
          "name": "",
          "type": "uint256"
        }
      ],
      "stateMutability": "view",
      "type": "function"
    },
    {
      "inputs": [
        {
          "internalType": "uint256",
          "name": "tokenId",
          "type": "uint256"
        }
      ],
      "name": "ownerOf",
      "outputs": [
        {
          "internalType": "address",
          "name": "",
          "type": "address"
        }
      ],
      "stateMutability": "view",
      "type": "function"
    },
    {
      "inputs": [
        {
          "internalType": "address",
          "name": "to",
          "type": "address"
        },
        {
          "internalType": "uint256",
          "name": "tokenId",
          "type": "uint256"
        }
      ],
      "name": "approve",
      "outputs": [],
      "stateMutability": "nonpayable",
      "type": "function"
    },
    {
      "inputs": [
        {
          "internalType": "uint256",
          "name": "tokenId",
          "type": "uint256"
        }
      ],
      "name": "getApproved",
      "outputs": [
        {
          "internalType": "address",
          "name": "",
          "type": "address"
        }
      ],
      "stateMutability": "view",
      "type": "function"
    },
    {
      "inputs": [
        {
          "internalType": "address",
          "name": "operator",
          "type": "address"
        },
        {
          "internalType": "bool",
          "name": "approved",
          "type": "bool"
        }
      ],
      "name": "setApprovalForAll",
      "outputs": [],
      "stateMutability": "nonpayable",
      "type": "function"
    },
    {
      "inputs": [
        {
          "internalType": "address",
          "name": "_owner",
          "type": "address"
        },
        {
          "internalType": "address",
          "name": "operator",
          "type": "address"
        }
      ],
      "name": "isApprovedForAll",
      "outputs": [
        {
          "internalType": "bool",
          "name": "",
          "type": "bool"
        }
      ],
      "stateMutability": "view",
      "type": "function"
    },
    {
      "inputs": [
        {
          "internalType": "address",
          "name": "from",
          "type": "address"
        },
        {
          "internalType": "address",
          "name": "to",
          "type": "address"
        },
        {
          "internalType": "uint256",
          "name": "tokenId",
          "type": "uint256"
        }
      ],
      "name": "transferFrom",
      "outputs": [],
      "stateMutability": "nonpayable",
      "type": "function"
    },
    {
      "inputs": [
        {
          "internalType": "address",
          "name": "from",
          "type": "address"
        },
        {
          "internalType": "address",
          "name": "to",
          "type": "address"
        },
        {
          "internalType": "uint256",
          "name": "tokenId",
          "type": "uint256"
        }
      ],
      "name": "safeTransferFrom",
      "outputs": [],
      "stateMutability": "nonpayable",
      "type": "function"
    },
    {
      "inputs": [
        {
          "internalType": "address",
          "name": "from",
          "type": "address"
        },
        {
          "internalType": "address",
          "name": "to",
          "type": "address"
        },
        {
          "internalType": "uint256",
          "name": "tokenId",
          "type": "uint256"
        },
        {
          "internalType": "bytes",
          "name": "data",
          "type": "bytes"
        }
      ],
      "name": "safeTransferFrom",
      "outputs": [],
      "stateMutability": "nonpayable",
      "type": "function"
    },
    {
      "inputs": [
        {
          "internalType": "address",
          "name": "to",
          "type": "address"
        },
        {
          "internalType": "string",
          "name": "_tokenURI",
          "type": "string"
        }
      ],
      "name": "mint",
      "outputs": [
        {
          "internalType": "uint256",
          "name": "",
          "type": "uint256"
        }
      ],
      "stateMutability": "nonpayable",
      "type": "function"
    },
    {
      "inputs": [
        {
          "internalType": "address",
          "name": "to",
          "type": "address"
        },
        {
          "internalType": "string",
          "name": "_tokenURI",
          "type": "string"
        }
      ],
      "name": "safeMint",
      "outputs": [
        {
          "internalType": "uint256",
          "name": "",
          "type": "uint256"
        }
      ],
      "stateMutability": "nonpayable",
      "type": "function"
    },
    {
      "inputs": [
        {
          "internalType": "address",
          "name": "to",
          "type": "address"
        },
        {
          "internalType": "string",
          "name": "_tokenURI",
          "type": "string"
        },
        {
          "internalType": "bytes",
          "name": "data",
          "type": "bytes"
        }
      ],
      "name": "safeMint",
      "outputs": [
        {
          "internalType": "uint256",
          "name": "",
          "type": "uint256"
        }
      ],
      "stateMutability": "nonpayable",
      "type": "function"
    },
    {
      "inputs": [
        {
          "internalType": "uint256",
          "name": "tokenId",
          "type": "uint256"
        }
      ],
      "name": "burn",
      "outputs": [],
      "stateMutability": "nonpayable",
      "type": "function"
    }
  ],
  "bytecode": "0x608060405260006008553480156200001657600080fd5b50604051620034ae380380620034ae83398181016040528101906200003c91906200023c565b33600460006101000a81548173ffffffffffffffffffffffffffffffffffffffff021916908373ffffffffffffffffffffffffffffffffffffffff16021790555081600590816200008e91906200050c565b508060069081620000a091906200050c565b505050620005f3565b6000604051905090565b600080fd5b600080fd5b600080fd5b600080fd5b6000601f19601f8301169050919050565b7f4e487b7100000000000000000000000000000000000000000000000000000000600052604160045260246000fd5b6200011282620000c7565b810181811067ffffffffffffffff82111715620001345762000133620000d8565b5b80604052505050565b600062000149620000a9565b905062000157828262000107565b919050565b600067ffffffffffffffff8211156200017a5762000179620000d8565b5b6200018582620000c7565b9050602081019050919050565b60005b83811015620001b257808201518184015260208101905062000195565b60008484015250505050565b6000620001d5620001cf846200015c565b6200013d565b905082815260208101848484011115620001f457620001f3620000c2565b5b6200020184828562000192565b509392505050565b600082601f830112620002215762000220620000bd565b5b815162000233848260208601620001be565b91505092915050565b60008060408385031215620002565762000255620000b3565b5b600083015167ffffffffffffffff811115620002775762000276620000b8565b5b620002858582860162000209565b925050602083015167ffffffffffffffff811115620002a957620002a8620000b8565b5b620002b78582860162000209565b9150509250929050565b600081519050919050565b7f4e487b7100000000000000000000000000000000000000000000000000000000600052602260045260246000fd5b600060028204905060018216806200031457607f821691505b6020821081036200032a5762000329620002cc565b5b50919050565b60008190508160005260206000209050919050565b60006020601f8301049050919050565b600082821b905092915050565b600060088302620003947fffffffffffffffffffffffffffffffffffffffffffffffffffffffffffffffff8262000355565b620003a0868362000355565b95508019841693508086168417925050509392505050565b6000819050919050565b6000819050919050565b6000620003ed620003e7620003e184620003b8565b620003c2565b620003b8565b9050919050565b6000819050919050565b6200040983620003cc565b620004216200041882620003f4565b84845462000362565b825550505050565b600090565b6200043862000429565b62000445818484620003fe565b505050565b5b818110156200046d57620004616000826200042e565b6001810190506200044b565b5050565b601f821115620004bc57620004868162000330565b620004918462000345565b81016020851015620004a1578190505b620004b9620004b08562000345565b8301826200044a565b50505b505050565b600082821c905092915050565b6000620004e160001984600802620004c1565b1980831691505092915050565b6000620004fc8383620004ce565b9150826002028217905092915050565b6200051782620002c1565b67ffffffffffffffff811115620005335762000532620000d8565b5b6200053f8254620002fb565b6200054c82828562000471565b600060209050601f8311600181146200058457600084156200056f578287015190505b6200057b8582620004ee565b865550620005eb565b601f198416620005948662000330565b60005b82811015620005be5784890151825560018201915060208501945060208101905062000597565b86831015620005de5784890151620005da601f891682620004ce565b8355505b6001600288020188555050505b505050505050565b612eab80620006036000396000f3fe608060405234801561001057600080fd5b506004361061014d5760003560e01c80636352211e116100c3578063b88d4fde1161007c578063b88d4fde146103d6578063c87b56dd146103f2578063d0def52114610422578063d204c45e14610452578063e985e9c514610482578063f6dda936146104b25761014d565b80636352211e146102ee57806370a082311461031e5780638da5cb5b1461034e57806395d89b411461036c578063a22cb4651461038a578063acdeb5b9146103a65761014d565b80630d95e054116101155780630d95e0541461021c57806318160ddd1461024c57806323b872dd1461026a57806327e235e31461028657806342842e0e146102b657806342966c68146102d25761014d565b806301ffc9a714610152578063025e7c271461018257806306fdde03146101b2578063081812fc146101d0578063095ea7b314610200575b600080fd5b61016c60048036038101906101679190611bcb565b6104e2565b6040516101799190611c13565b60405180910390f35b61019c60048036038101906101979190611c64565b61061c565b6040516101a99190611cd2565b60405180910390f35b6101ba61064f565b6040516101c79190611d7d565b60405180910390f35b6101ea60048036038101906101e59190611c64565b6106e1565b6040516101f79190611cd2565b60405180910390f35b61021a60048036038101906102159190611dcb565b6107c5565b005b61023660048036038101906102319190611e0b565b610ac3565b6040516102439190611c13565b60405180910390f35b610254610af2565b6040516102619190611e5a565b60405180910390f35b610284600480360381019061027f9190611e75565b610af8565b005b6102a0600480360381019061029b9190611ec8565b610b08565b6040516102ad9190611e5a565b60405180910390f35b6102d060048036038101906102cb9190611e75565b610b20565b005b6102ec60048036038101906102e79190611c64565b610b40565b005b61030860048036038101906103039190611c64565b610bc2565b6040516103159190611cd2565b60405180910390f35b61033860048036038101906103339190611ec8565b610bd4565b6040516103459190611e5a565b60405180910390f35b610356610c8a565b6040516103639190611cd2565b60405180910390f35b610374610cb0565b6040516103819190611d7d565b60405180910390f35b6103a4600480360381019061039f9190611f21565b610d42565b005b6103c060048036038101906103bb9190611c64565b610f1c565b6040516103cd9190611cd2565b60405180910390f35b6103f060048036038101906103eb9190611fc6565b610f4f565b005b61040c60048036038101906104079190611c64565b610fa6565b6040516104199190611d7d565b60405180910390f35b61043c6004803603810190610437919061217e565b61104b565b6040516104499190611e5a565b60405180910390f35b61046c60048036038101906104679190612230565b61105f565b6040516104799190611e5a565b60405180910390f35b61049c60048036038101906104979190611e0b565b6110c8565b6040516104a99190611c13565b60405180910390f35b6104cc60048036038101906104c79190612290565b611239565b6040516104d99190611e5a565b60405180910390f35b60007f80ac58cd000000000000000000000000000000000000000000000000000000007bffffffffffffffffffffffffffffffffffffffffffffffffffffffff1916827bffffffffffffffffffffffffffffffffffffffffffffffffffffffff191614806105ad57507f5b5e139f000000000000000000000000000000000000000000000000000000007bffffffffffffffffffffffffffffffffffffffffffffffffffffffff1916827bffffffffffffffffffffffffffffffffffffffffffffffffffffffff1916145b8061061557507f01ffc9a7000000000000000000000000000000000000000000000000000000007bffffffffffffffffffffffffffffffffffffffffffffffffffffffff1916827bffffffffffffffffffffffffffffffffffffffffffffffffffffffff1916145b9050919050565b60016020528060005260406000206000915054906101000a900473ffffffffffffffffffffffffffffffffffffffff1681565b60606005805461065e90612354565b80601f016020809104026020016040519081016040528092919081815260200182805461068a90612354565b80156106d75780601f106106ac576101008083540402835291602001916106d7565b820191906000526020600020905b8154815290600101906020018083116106ba57829003601f168201915b5050505050905090565b6000806001600084815260200190815260200160002060009054906101000a900473ffffffffffffffffffffffffffffffffffffffff169050600073ffffffffffffffffffffffffffffffffffffffff168173ffffffffffffffffffffffffffffffffffffffff1603610789576040517f08c379a0000000000000000000000000000000000000000000000000000000008152600401610780906123f7565b60405180910390fd5b6002600084815260200190815260200160002060009054906101000a900473ffffffffffffffffffffffffffffffffffffffff16915050919050565b60006001600083815260200190815260200160002060009054906101000a900473ffffffffffffffffffffffffffffffffffffffff1690508073ffffffffffffffffffffffffffffffffffffffff163373ffffffffffffffffffffffffffffffffffffffff16148061083d575061083c81336110c8565b5b61087c576040517f08c379a000000000000000000000000000000000000000000000000000000000815260040161087390612489565b60405180910390fd5b3373ffffffffffffffffffffffffffffffffffffffff168173ffffffffffffffffffffffffffffffffffffffff16146108ea576040517f08c379a00000000000000000000000000000000000000000000000000000000081526004016108e190612489565b60405180910390fd5b600073ffffffffffffffffffffffffffffffffffffffff168373ffffffffffffffffffffffffffffffffffffffff1603610959576040517f08c379a00000000000000000000000000000000000000000000000000000000081526004016109509061251b565b60405180910390fd5b8273ffffffffffffffffffffffffffffffffffffffff168173ffffffffffffffffffffffffffffffffffffffff16036109c7576040517f08c379a00000000000000000000000000000000000000000000000000000000081526004016109be90612587565b60405180910390fd5b6109d181846110c8565b15610a11576040517f08c379a0000000000000000000000000000000000000000000000000000000008152600401610a0890612489565b60405180910390fd5b826002600084815260200190815260200160002060006101000a81548173ffffffffffffffffffffffffffffffffffffffff021916908373ffffffffffffffffffffffffffffffffffffffff160217905550818373ffffffffffffffffffffffffffffffffffffffff168273ffffffffffffffffffffffffffffffffffffffff167f8c5be1e5ebec7d5bd14f71427d1e84f3dd0314c0f7b2291e5b200ac8c7c3b92560405160405180910390a4505050565b60036020528160005260406000206020528060005260406000206000915091509054906101000a900460ff1681565b60085481565b610b038383836112d9565b505050565b60006020528060005260406000206000915090505481565b610b3b83838360405180602001604052806000815250611554565b505050565b610b49816115af565b73ffffffffffffffffffffffffffffffffffffffff163373ffffffffffffffffffffffffffffffffffffffff1614610bb6576040517f08c379a0000000000000000000000000000000000000000000000000000000008152600401610bad906125f3565b60405180910390fd5b610bbf81611660565b50565b6000610bcd826115af565b9050919050565b60008073ffffffffffffffffffffffffffffffffffffffff168273ffffffffffffffffffffffffffffffffffffffff1603610c44576040517f08c379a0000000000000000000000000000000000000000000000000000000008152600401610c3b90612685565b60405180910390fd5b6000808373ffffffffffffffffffffffffffffffffffffffff1673ffffffffffffffffffffffffffffffffffffffff168152602001908152602001600020549050919050565b600460009054906101000a900473ffffffffffffffffffffffffffffffffffffffff1681565b606060068054610cbf90612354565b80601f0160208091040260200160405190810160405280929190818152602001828054610ceb90612354565b8015610d385780601f10610d0d57610100808354040283529160200191610d38565b820191906000526020600020905b815481529060010190602001808311610d1b57829003601f168201915b5050505050905090565b600073ffffffffffffffffffffffffffffffffffffffff168273ffffffffffffffffffffffffffffffffffffffff1603610db1576040517f08c379a0000000000000000000000000000000000000000000000000000000008152600401610da89061251b565b60405180910390fd5b3373ffffffffffffffffffffffffffffffffffffffff168273ffffffffffffffffffffffffffffffffffffffff1603610e1f576040517f08c379a0000000000000000000000000000000000000000000000000000000008152600401610e1690612587565b60405180910390fd5b80600360003373ffffffffffffffffffffffffffffffffffffffff1673ffffffffffffffffffffffffffffffffffffffff16815260200190815260200160002060008473ffffffffffffffffffffffffffffffffffffffff1673ffffffffffffffffffffffffffffffffffffffff16815260200190815260200160002060006101000a81548160ff0219169083151502179055508173ffffffffffffffffffffffffffffffffffffffff163373ffffffffffffffffffffffffffffffffffffffff167f17307eab39ab6107e8899845ad3d59bd9653f200f220920489ca2b5937696c3183604051610f109190611c13565b60405180910390a35050565b60026020528060005260406000206000915054906101000a900473ffffffffffffffffffffffffffffffffffffffff1681565b610f9f85858585858080601f016020809104026020016040519081016040528093929190818152602001838380828437600081840152601f19601f82011690508083019250505050505050611554565b5050505050565b6060600760008381526020019081526020016000208054610fc690612354565b80601f0160208091040260200160405190810160405280929190818152602001828054610ff290612354565b801561103f5780601f106110145761010080835404028352916020019161103f565b820191906000526020600020905b81548152906001019060200180831161102257829003601f168201915b50505050509050919050565b60006110578383611677565b905092915050565b60006110bf8484848080601f016020809104026020016040519081016040528093929190818152602001838380828437600081840152601f19601f8201169050808301925050505050505060405180602001604052806000815250611782565b90509392505050565b60008073ffffffffffffffffffffffffffffffffffffffff168373ffffffffffffffffffffffffffffffffffffffff1603611138576040517f08c379a000000000000000000000000000000000000000000000000000000000815260040161112f90612717565b60405180910390fd5b600073ffffffffffffffffffffffffffffffffffffffff168273ffffffffffffffffffffffffffffffffffffffff16036111a7576040517f08c379a000000000000000000000000000000000000000000000000000000000815260040161119e90612717565b60405180910390fd5b600360008473ffffffffffffffffffffffffffffffffffffffff1673ffffffffffffffffffffffffffffffffffffffff16815260200190815260200160002060008373ffffffffffffffffffffffffffffffffffffffff1673ffffffffffffffffffffffffffffffffffffffff16815260200190815260200160002060009054906101000a900460ff16905092915050565b60006112ce8686868080601f016020809104026020016040519081016040528093929190818152602001838380828437600081840152601f19601f8201169050808301925050505050505085858080601f016020809104026020016040519081016040528093929190818152602001838380828437600081840152601f19601f82011690508083019250505050505050611782565b905095945050505050565b60006001600083815260200190815260200160002060009054906101000a900473ffffffffffffffffffffffffffffffffffffffff1690508373ffffffffffffffffffffffffffffffffffffffff168173ffffffffffffffffffffffffffffffffffffffff161461137f576040517f08c379a0000000000000000000000000000000000000000000000000000000008152600401611376906127a9565b60405180910390fd5b600073ffffffffffffffffffffffffffffffffffffffff168373ffffffffffffffffffffffffffffffffffffffff16036113ee576040517f08c379a00000000000000000000000000000000000000000000000000000000081526004016113e59061283b565b60405180910390fd5b3373ffffffffffffffffffffffffffffffffffffffff168173ffffffffffffffffffffffffffffffffffffffff16148061142e575061142d81336110c8565b5b8061149757503373ffffffffffffffffffffffffffffffffffffffff166002600084815260200190815260200160002060009054906101000a900473ffffffffffffffffffffffffffffffffffffffff1673ffffffffffffffffffffffffffffffffffffffff16145b6114d6576040517f08c379a00000000000000000000000000000000000000000000000000000000081526004016114cd906128cd565b60405180910390fd5b6114df826117e2565b6114e98483611883565b6114f38383611913565b818373ffffffffffffffffffffffffffffffffffffffff168573ffffffffffffffffffffffffffffffffffffffff167fddf252ad1be2c89b69c2b068fc378daa952ba7f163c4a11628f55a4df523b3ef60405160405180910390a450505050565b61155f8484846112d9565b61156a8484836119bf565b6115a9576040517f08c379a00000000000000000000000000000000000000000000000000000000081526004016115a09061295f565b60405180910390fd5b50505050565b6000806001600084815260200190815260200160002060009054906101000a900473ffffffffffffffffffffffffffffffffffffffff169050600073ffffffffffffffffffffffffffffffffffffffff168173ffffffffffffffffffffffffffffffffffffffff1603611657576040517f08c379a000000000000000000000000000000000000000000000000000000000815260040161164e906129f1565b60405180910390fd5b80915050919050565b61167461166c826115af565b6000836112d9565b50565b60008073ffffffffffffffffffffffffffffffffffffffff168373ffffffffffffffffffffffffffffffffffffffff16036116e7576040517f08c379a00000000000000000000000000000000000000000000000000000000081526004016116de90612a5d565b60405180910390fd5b6001600860008282546116fa9190612aac565b9250508190555061170d83600854611913565b6008548373ffffffffffffffffffffffffffffffffffffffff16600073ffffffffffffffffffffffffffffffffffffffff167fddf252ad1be2c89b69c2b068fc378daa952ba7f163c4a11628f55a4df523b3ef60405160405180910390a461177760085483611b3a565b600854905092915050565b6000611790600085846119bf565b6117cf576040517f08c379a00000000000000000000000000000000000000000000000000000000081526004016117c69061295f565b60405180910390fd5b6117d98484611677565b90509392505050565b600073ffffffffffffffffffffffffffffffffffffffff166002600083815260200190815260200160002060009054906101000a900473ffffffffffffffffffffffffffffffffffffffff1673ffffffffffffffffffffffffffffffffffffffff1614611880576002600082815260200190815260200160002060006101000a81549073ffffffffffffffffffffffffffffffffffffffff02191690555b50565b60016000808473ffffffffffffffffffffffffffffffffffffffff1673ffffffffffffffffffffffffffffffffffffffff16815260200190815260200160002060008282546118d29190612ae0565b925050819055506001600082815260200190815260200160002060006101000a81549073ffffffffffffffffffffffffffffffffffffffff02191690555050565b60016000808473ffffffffffffffffffffffffffffffffffffffff1673ffffffffffffffffffffffffffffffffffffffff16815260200190815260200160002060008282546119629190612aac565b92505081905550816001600083815260200190815260200160002060006101000a81548173ffffffffffffffffffffffffffffffffffffffff021916908373ffffffffffffffffffffffffffffffffffffffff1602179055505050565b6000808373ffffffffffffffffffffffffffffffffffffffff163b036119e85760019050611b33565b8273ffffffffffffffffffffffffffffffffffffffff1663150b7a023386600854866040518563ffffffff1660e01b8152600401611a299493929190612b69565b6020604051808303816000875af1925050508015611a6557506040513d601f19601f82011682018060405250810190611a629190612bca565b60015b611ae7573d8060008114611a95576040519150601f19603f3d011682016040523d82523d6000602084013e611a9a565b606091505b506000815103611adf576040517f08c379a0000000000000000000000000000000000000000000000000000000008152600401611ad69061295f565b60405180910390fd5b805181602001fd5b63150b7a0260e01b7bffffffffffffffffffffffffffffffffffffffffffffffffffffffff1916817bffffffffffffffffffffffffffffffffffffffffffffffffffffffff1916149150505b9392505050565b80600760008481526020019081526020016000209081611b5a9190612da3565b505050565b6000604051905090565b600080fd5b600080fd5b60007fffffffff0000000000000000000000000000000000000000000000000000000082169050919050565b611ba881611b73565b8114611bb357600080fd5b50565b600081359050611bc581611b9f565b92915050565b600060208284031215611be157611be0611b69565b5b6000611bef84828501611bb6565b91505092915050565b60008115159050919050565b611c0d81611bf8565b82525050565b6000602082019050611c286000830184611c04565b92915050565b6000819050919050565b611c4181611c2e565b8114611c4c57600080fd5b50565b600081359050611c5e81611c38565b92915050565b600060208284031215611c7a57611c79611b69565b5b6000611c8884828501611c4f565b91505092915050565b600073ffffffffffffffffffffffffffffffffffffffff82169050919050565b6000611cbc82611c91565b9050919050565b611ccc81611cb1565b82525050565b6000602082019050611ce76000830184611cc3565b92915050565b600081519050919050565b600082825260208201905092915050565b60005b83811015611d27578082015181840152602081019050611d0c565b60008484015250505050565b6000601f19601f8301169050919050565b6000611d4f82611ced565b611d598185611cf8565b9350611d69818560208601611d09565b611d7281611d33565b840191505092915050565b60006020820190508181036000830152611d978184611d44565b905092915050565b611da881611cb1565b8114611db357600080fd5b50565b600081359050611dc581611d9f565b92915050565b60008060408385031215611de257611de1611b69565b5b6000611df085828601611db6565b9250506020611e0185828601611c4f565b9150509250929050565b60008060408385031215611e2257611e21611b69565b5b6000611e3085828601611db6565b9250506020611e4185828601611db6565b9150509250929050565b611e5481611c2e565b82525050565b6000602082019050611e6f6000830184611e4b565b92915050565b600080600060608486031215611e8e57611e8d611b69565b5b6000611e9c86828701611db6565b9350506020611ead86828701611db6565b9250506040611ebe86828701611c4f565b9150509250925092565b600060208284031215611ede57611edd611b69565b5b6000611eec84828501611db6565b91505092915050565b611efe81611bf8565b8114611f0957600080fd5b50565b600081359050611f1b81611ef5565b92915050565b60008060408385031215611f3857611f37611b69565b5b6000611f4685828601611db6565b9250506020611f5785828601611f0c565b9150509250929050565b600080fd5b600080fd5b600080fd5b60008083601f840112611f8657611f85611f61565b5b8235905067ffffffffffffffff811115611fa357611fa2611f66565b5b602083019150836001820283011115611fbf57611fbe611f6b565b5b9250929050565b600080600080600060808688031215611fe257611fe1611b69565b5b6000611ff088828901611db6565b955050602061200188828901611db6565b945050604061201288828901611c4f565b935050606086013567ffffffffffffffff81111561203357612032611b6e565b5b61203f88828901611f70565b92509250509295509295909350565b600080fd5b7f4e487b7100000000000000000000000000000000000000000000000000000000600052604160045260246000fd5b61208b82611d33565b810181811067ffffffffffffffff821117156120aa576120a9612053565b5b80604052505050565b60006120bd611b5f565b90506120c98282612082565b919050565b600067ffffffffffffffff8211156120e9576120e8612053565b5b6120f282611d33565b9050602081019050919050565b82818337600083830152505050565b600061212161211c846120ce565b6120b3565b90508281526020810184848401111561213d5761213c61204e565b5b6121488482856120ff565b509392505050565b600082601f83011261216557612164611f61565b5b813561217584826020860161210e565b91505092915050565b6000806040838503121561219557612194611b69565b5b60006121a385828601611db6565b925050602083013567ffffffffffffffff8111156121c4576121c3611b6e565b5b6121d085828601612150565b9150509250929050565b60008083601f8401126121f0576121ef611f61565b5b8235905067ffffffffffffffff81111561220d5761220c611f66565b5b60208301915083600182028301111561222957612228611f6b565b5b9250929050565b60008060006040848603121561224957612248611b69565b5b600061225786828701611db6565b935050602084013567ffffffffffffffff81111561227857612277611b6e565b5b612284868287016121da565b92509250509250925092565b6000806000806000606086880312156122ac576122ab611b69565b5b60006122ba88828901611db6565b955050602086013567ffffffffffffffff8111156122db576122da611b6e565b5b6122e7888289016121da565b9450945050604086013567ffffffffffffffff81111561230a57612309611b6e565b5b61231688828901611f70565b92509250509295509295909350565b7f4e487b7100000000000000000000000000000000000000000000000000000000600052602260045260246000fd5b6000600282049050600182168061236c57607f821691505b60208210810361237f5761237e612325565b5b50919050565b7f4552433732313a20617070726f76656420717565727920666f72206e6f6e657860008201527f697374656e7420746f6b656e0000000000000000000000000000000000000000602082015250565b60006123e1602c83611cf8565b91506123ec82612385565b604082019050919050565b60006020820190508181036000830152612410816123d4565b9050919050565b7f4552433732313a20617070726f76652063616c6c6572206973206e6f74206f7760008201527f6e6572206e6f7220617070726f76656420666f7220616c6c0000000000000000602082015250565b6000612473603883611cf8565b915061247e82612417565b604082019050919050565b600060208201905081810360008301526124a281612466565b9050919050565b7f4552433732313a20617070726f766520746f20746865207a65726f206164647260008201527f6573730000000000000000000000000000000000000000000000000000000000602082015250565b6000612505602383611cf8565b9150612510826124a9565b604082019050919050565b60006020820190508181036000830152612534816124f8565b9050919050565b7f4552433732313a20617070726f766520746f2063616c6c657200000000000000600082015250565b6000612571601983611cf8565b915061257c8261253b565b602082019050919050565b600060208201905081810360008301526125a081612564565b9050919050565b7f4552433732313a2063616c6c6572206973206e6f7420746865206f776e657200600082015250565b60006125dd601f83611cf8565b91506125e8826125a7565b602082019050919050565b6000602082019050818103600083015261260c816125d0565b9050919050565b7f4552433732313a2062616c616e636520717565727920666f7220746865207a6560008201527f726f206164647265737300000000000000000000000000000000000000000000602082015250565b600061266f602a83611cf8565b915061267a82612613565b604082019050919050565b6000602082019050818103600083015261269e81612662565b9050919050565b7f4552433732313a206f70657261746f7220717565727920666f72206e6f6e657860008201527f697374656e7420746f6b656e0000000000000000000000000000000000000000602082015250565b6000612701602c83611cf8565b915061270c826126a5565b604082019050919050565b60006020820190508181036000830152612730816126f4565b9050919050565b7f4552433732313a207472616e73666572206f6620746f6b656e2074686174206960008201527f73206e6f74206f776e0000000000000000000000000000000000000000000000602082015250565b6000612793602983611cf8565b915061279e82612737565b604082019050919050565b600060208201905081810360008301526127c281612786565b9050919050565b7f4552433732313a207472616e7366657220746f20746865207a65726f2061646460008201527f7265737300000000000000000000000000000000000000000000000000000000602082015250565b6000612825602483611cf8565b9150612830826127c9565b604082019050919050565b6000602082019050818103600083015261285481612818565b9050919050565b7f4552433732313a207472616e736665722063616c6c6572206973206e6f74206f60008201527f776e6572206e6f7220617070726f76656420666f7220616c6c00000000000000602082015250565b60006128b7603983611cf8565b91506128c28261285b565b604082019050919050565b600060208201905081810360008301526128e6816128aa565b9050919050565b7f4552433732313a207472616e7366657220746f206e6f6e20455243373231526560008201527f63656976657220696d706c656d656e7465720000000000000000000000000000602082015250565b6000612949603283611cf8565b9150612954826128ed565b604082019050919050565b600060208201905081810360008301526129788161293c565b9050919050565b7f4552433732313a206f776e657220717565727920666f72206e6f6e657869737460008201527f656e7420746f6b656e0000000000000000000000000000000000000000000000602082015250565b60006129db602983611cf8565b91506129e68261297f565b604082019050919050565b60006020820190508181036000830152612a0a816129ce565b9050919050565b7f4552433732313a206d696e7420746f20746865207a65726f2061646472657373600082015250565b6000612a47602083611cf8565b9150612a5282612a11565b602082019050919050565b60006020820190508181036000830152612a7681612a3a565b9050919050565b7f4e487b7100000000000000000000000000000000000000000000000000000000600052601160045260246000fd5b6000612ab782611c2e565b9150612ac283611c2e565b9250828201905080821115612ada57612ad9612a7d565b5b92915050565b6000612aeb82611c2e565b9150612af683611c2e565b9250828203905081811115612b0e57612b0d612a7d565b5b92915050565b600081519050919050565b600082825260208201905092915050565b6000612b3b82612b14565b612b458185612b1f565b9350612b55818560208601611d09565b612b5e81611d33565b840191505092915050565b6000608082019050612b7e6000830187611cc3565b612b8b6020830186611cc3565b612b986040830185611e4b565b8181036060830152612baa8184612b30565b905095945050505050565b600081519050612bc481611b9f565b92915050565b600060208284031215612be057612bdf611b69565b5b6000612bee84828501612bb5565b91505092915050565b60008190508160005260206000209050919050565b60006020601f8301049050919050565b600082821b905092915050565b600060088302612c597fffffffffffffffffffffffffffffffffffffffffffffffffffffffffffffffff82612c1c565b612c638683612c1c565b95508019841693508086168417925050509392505050565b6000819050919050565b6000612ca0612c9b612c9684611c2e565b612c7b565b611c2e565b9050919050565b6000819050919050565b612cba83612c85565b612cce612cc682612ca7565b848454612c29565b825550505050565b600090565b612ce3612cd6565b612cee818484612cb1565b505050565b5b81811015612d1257612d07600082612cdb565b600181019050612cf4565b5050565b601f821115612d5757612d2881612bf7565b612d3184612c0c565b81016020851015612d40578190505b612d54612d4c85612c0c565b830182612cf3565b50505b505050565b600082821c905092915050565b6000612d7a60001984600802612d5c565b1980831691505092915050565b6000612d938383612d69565b9150826002028217905092915050565b612dac82611ced565b67ffffffffffffffff811115612dc557612dc4612053565b5b612dcf8254612354565b612dda828285612d16565b600060209050601f831160018114612e0d5760008415612dfb578287015190505b612e058582612d87565b865550612e6d565b601f198416612e1b86612bf7565b60005b82811015612e4357848901518255600182019150602085019450602081019050612e1e565b86831015612e605784890151612e5c601f891682612d69565b8355505b6001600288020188555050505b50505050505056fea264697066735822122006dab0709f162b1dfdaaa8d39c37e2a00f7a95f33c8f25473af5f90bb58a4f1c64736f6c63430008110033",
  "immutableReferences": {},
  "source": "// SPDX-License-Identifier: MIT\n\npragma solidity ^0.8.0;\n\nimport \"./IERC721.sol\";\nimport \"./IERC165.sol\";\n\ncontract NoahNFT is IERC721, IERC721Metadata, IERC165 {\n    mapping(address => uint256) public balances; //   NFT  =>  NFT \n    mapping(uint256 => address) public owners; //   NFT id =>  NFT \n    mapping(uint256 => address) public tokenApprovals; //  NFT id =>  NFT \n    mapping(address => mapping(address => bool)) public operatorApprovals; //  NFT   NFT  =>  => \n    address public owner; // \n    string private _name; //  NFT \n    string private _symbol; //  NFT \n    mapping(uint256 => string) private _tokenURIs; //  NFT   NFT id => \n    uint256 public totalSupply = 0; //  NFT id\n\n    // \n    constructor(string memory initName, string memory initSymbol) {\n        owner = msg.sender;\n        _name = initName;\n        _symbol = initSymbol;\n    }\n\n    // \n    function supportsInterface(bytes4 interfaceId)\n        public\n        pure\n        override\n        returns (bool)\n    {\n        return\n            interfaceId == type(IERC721).interfaceId ||\n            interfaceId == type(IERC721Metadata).interfaceId ||\n            interfaceId == type(IERC165).interfaceId;\n    }\n\n    //  NFT \n    function name() public view override returns (string memory) {\n        return _name;\n    }\n\n    //  NFT \n    function symbol() public view override returns (string memory) {\n        return _symbol;\n    }\n\n    //  NFT  MetadataURI\n    function tokenURI(uint256 tokenId)\n        public\n        view\n        override\n        returns (string memory)\n    {\n        return _tokenURIs[tokenId];\n    }\n\n    //  NFT \n    function balanceOf(address _owner) public view override returns (uint256) {\n        //  NFT 0\n        require(\n            _owner != address(0),\n            \"ERC721: balance query for the zero address\"\n        );\n        return balances[_owner];\n    }\n\n    //  NFT \n    function ownerOf(uint256 tokenId) public view override returns (address) {\n        return _ownerOf(tokenId);\n    }\n\n    //  NFT  \n    function _ownerOf(uint256 tokenId) internal view returns (address) {\n        address tokenOwner = owners[tokenId];\n        //  NFT 0\n        require(\n            tokenOwner != address(0),\n            \"ERC721: owner query for nonexistent token\"\n        );\n        return tokenOwner;\n    }\n\n    //  NFT\n    function approve(address to, uint256 tokenId) public override {\n        address tokenOwner = owners[tokenId]; //  NFT \n        //  NFT  NFT  NFT \n        require(\n            msg.sender == tokenOwner ||\n                isApprovedForAll(tokenOwner, msg.sender),\n            \"ERC721: approve caller is not owner nor approved for all\"\n        );\n        // NFT  NFT \n        require(\n            tokenOwner == msg.sender,\n            \"ERC721: approve caller is not owner nor approved for all\"\n        );\n        // 0\n        require(to != address(0), \"ERC721: approve to the zero address\");\n        // \n        require(tokenOwner != to, \"ERC721: approve to caller\");\n        //  NFT \n        require(\n            !isApprovedForAll(tokenOwner, to),\n            \"ERC721: approve caller is not owner nor approved for all\"\n        );\n        //  NFT \n        tokenApprovals[tokenId] = to;\n        // \n        emit Approval(tokenOwner, to, tokenId);\n    }\n\n    //  NFT \n    function getApproved(uint256 tokenId)\n        public\n        view\n        override\n        returns (address)\n    {\n        address tokenOwner = owners[tokenId]; //  NFT \n        //  NFT 0\n        require(\n            tokenOwner != address(0),\n            \"ERC721: approved query for nonexistent token\"\n        );\n        return tokenApprovals[tokenId];\n    }\n\n    //  NFT\n    function setApprovalForAll(address operator, bool approved)\n        public\n        override\n    {\n        // 0\n        require(operator != address(0), \"ERC721: approve to the zero address\");\n        // \n        require(operator != msg.sender, \"ERC721: approve to caller\");\n        //  NFT \n        operatorApprovals[msg.sender][operator] = approved;\n        //  NFT \n        emit ApprovalForAll(msg.sender, operator, approved);\n    }\n\n    //  NFT  NFT \n    function isApprovedForAll(address _owner, address operator)\n        public\n        view\n        override\n        returns (bool)\n    {\n        //  NFT 0\n        require(\n            _owner != address(0),\n            \"ERC721: operator query for nonexistent token\"\n        );\n        // 0\n        require(\n            operator != address(0),\n            \"ERC721: operator query for nonexistent token\"\n        );\n        return operatorApprovals[_owner][operator];\n    }\n\n    //  NFT\n    function transferFrom(\n        address from,\n        address to,\n        uint256 tokenId\n    ) public override {\n        _transfer(from, to, tokenId);\n    }\n\n    //  NFT\n    function _transfer(\n        address from,\n        address to,\n        uint256 tokenId\n    ) internal {\n        address tokenOwner = owners[tokenId]; //  NFT \n        // from  NFT \n        require(\n            tokenOwner == from,\n            \"ERC721: transfer of token that is not own\"\n        );\n        // 0\n        require(to != address(0), \"ERC721: transfer to the zero address\");\n        //  NFT  NFT  NFT  NFT  NFT \n        require(\n            tokenOwner == msg.sender ||\n                isApprovedForAll(tokenOwner, msg.sender) ||\n                tokenApprovals[tokenId] == msg.sender,\n            \"ERC721: transfer caller is not owner nor approved for all\"\n        );\n        //  NFT \n        _clearApproval(tokenId);\n        //  NFT \n        _removeTokenFrom(from, tokenId);\n        //  NFT\n        _addTokenTo(to, tokenId);\n        //  NFT \n        emit Transfer(from, to, tokenId);\n    }\n\n    //  NFT \n    function _clearApproval(uint256 tokenId) internal {\n        //  NFT \n        if (tokenApprovals[tokenId] != address(0)) {\n            delete tokenApprovals[tokenId];\n        }\n    }\n\n    //  NFT \n    function _removeTokenFrom(address from, uint256 tokenId) internal {\n        //  NFT \n        balances[from] -= 1;\n        //  NFT  NFT\n        delete owners[tokenId];\n    }\n\n    //  NFT\n    function _addTokenTo(address to, uint256 tokenId) internal {\n        //  NFT \n        balances[to] += 1;\n        //  NFT  NFT \n        owners[tokenId] = to;\n    }\n\n    //  NFT\n    function _checkOnERC721Received(\n        address from,\n        address to,\n        bytes memory _data\n    ) internal returns (bool) {\n        // \n        if (to.code.length == 0) {\n            return true;\n        }\n        //  onERC721Received \n        try\n            IERC721Receiver(to).onERC721Received(\n                msg.sender,\n                from,\n                totalSupply,\n                _data\n            )\n        returns (bytes4 retval) {\n            //  ERC721_RECEIVED \n            return retval == IERC721Receiver(to).onERC721Received.selector;\n        } catch (bytes memory reason) {\n            // \n            if (reason.length == 0) {\n                revert(\"ERC721: transfer to non ERC721Receiver implementer\");\n            } else {\n                assembly {\n                    revert(add(32, reason), mload(reason))\n                }\n            }\n        }\n    }\n\n    //  NFT   data \n    function safeTransferFrom(\n        address from,\n        address to,\n        uint256 tokenId\n    ) public override {\n        //  NFT\n        _safeTransfer(from, to, tokenId, \"\");\n    }\n\n    //  NFT   data \n    function safeTransferFrom(\n        address from,\n        address to,\n        uint256 tokenId,\n        bytes calldata data\n    ) public override {\n        _safeTransfer(from, to, tokenId, data);\n    }\n\n    //  NFT  \n    function _safeTransfer(\n        address from,\n        address to,\n        uint256 tokenId,\n        bytes memory data\n    ) internal {\n        //  NFT\n        _transfer(from, to, tokenId);\n        //  NFT\n        require(\n            _checkOnERC721Received(from, to, data),\n            \"ERC721: transfer to non ERC721Receiver implementer\"\n        );\n    }\n\n    //  NFT\n    function mint(address to, string memory _tokenURI)\n        public\n        returns (uint256)\n    {\n        //  NFT\n        return _mint(to, _tokenURI);\n    }\n\n    //  NFT   data \n    function safeMint(address to, string calldata _tokenURI)\n        public\n        returns (uint256)\n    {\n        return _safeMint(to, _tokenURI, \"\");\n    }\n\n    //  NFT   data \n    function safeMint(\n        address to,\n        string calldata _tokenURI,\n        bytes calldata data\n    ) public returns (uint256) {\n        return _safeMint(to, _tokenURI, data);\n    }\n\n    //  NFT  \n    function _mint(address to, string memory _tokenURI)\n        internal\n        returns (uint256)\n    {\n        // 0\n        require(to != address(0), \"ERC721: mint to the zero address\");\n\n        //  NFT ID\n        totalSupply += 1;\n\n        //  NFT\n        _addTokenTo(to, totalSupply);\n        //  NFT \n        emit Transfer(address(0), to, totalSupply);\n\n        //  Token URI\n        _setTokenURI(totalSupply, _tokenURI);\n\n        //  NFT ID\n        return totalSupply;\n    }\n\n    //  Token URI \n    function _setTokenURI(uint256 tokenId, string memory _tokenURI) internal {\n        //  Token URI\n        _tokenURIs[tokenId] = _tokenURI;\n    }\n\n    //  NFT  \n    function _safeMint(\n        address to,\n        string memory _tokenURI,\n        bytes memory _data\n    ) internal returns (uint256) {\n        //  NFT\n        require(\n            _checkOnERC721Received(address(0), to, _data),\n            \"ERC721: transfer to non ERC721Receiver implementer\"\n        );\n        //  NFT\n        return _mint(to, _tokenURI);\n    }\n\n    //  NFT\n    function burn(uint256 tokenId) public {\n        //  NFT \n        require(\n            msg.sender == _ownerOf(tokenId),\n            \"ERC721: caller is not the owner\"\n        );\n        //  NFT\n        _burn(tokenId);\n    }\n\n    //  NFT  \n    function _burn(uint256 tokenId) internal {\n        //  NFT\n        _transfer(_ownerOf(tokenId), address(0), tokenId);\n    }\n}\n",
  "sourcePath": "/Users/luzhenqian/Work/web3/web3-examples/contract/noah-nft/contracts/NoahNFT.sol",
  "compiler": {
    "name": "solc",
    "version": "0.8.17+commit.8df45f5f.Emscripten.clang"
  },
  "schemaVersion": "3.4.11",
  "updatedAt": "2023-01-15T13:52:07.353Z",
  "devdoc": {
    "kind": "dev",
    "methods": {},
    "version": 1
  },
  "userdoc": {
    "kind": "user",
    "methods": {},
    "version": 1
  }
}